:10000000020D8702000A53EFFE323202001A53EF4C
:10001000FD323202001253EFFB323202002253EF64
:10002000FE3232020F8A120038120E8712004A8006
:10003000FE900204E585F022C2AF22020EE353EFE8
:02004000FD328F
:0A0043000210BE53EFFB32D2AF22D1
:03005300020006A2
:03005B0002000E92
:0300630002001E7A
:0300830002001662
:03008B000210E080
:03009300020F3A1F
:03009B0002003E22
:1000A300020046020467E86480F8E933E83360112C
:1000B3000460F0ED33EC337009E8FCE9FDEAFEEB94
:1000C300FF220460DED3EB9FEA9EE99DE8C2E78C42
:1000D300F0C2F795F0400CE8CCF8E9CDF9EACEFA96
:1000E300EBCFFB12043285D0F05804700320D5B354
:1000F300E80470075002B2D502047192D5EC046093
:10010300F7E4CCC0E0C398F8603B94186008400D56
:10011300D0E0FB020449E4FBFAC9FC8028E830E4A0
:1001230006E4C9FBE4CAFCE830E305E4C9CACBFC36
:10013300E854076010F8C3E913F9EA13FAEB13FB69
:10014300EC13FCD8F130F52FC3E49CFCEF9BFFEEDE
:100153009AFEED99FDD0E0FBEF4E4D4C701222DB81
:100163000302046EEC2CFCEF33FFEE33FEED33FDA4
:10017300ED30E7EB020449EF2BFFEE3AFEED39FDDC
:10018300D0E0FB50130BBB0003020471ED13FDEE33
:1001930013FEEF13FFEC13FC020449EC4D6011E86E
:1001A300497017ED33EC3304600DE4FCFFFEFD22D0
:1001B300E933E8330470F802046712043258046028
:1001C30009E4CC2481500628500902047128400315
:1001D30002046EC0E0EB4A7044B98006D0E0FB0233
:1001E300045DEF4E701CBD8008EBFFEAFEE9FD8065
:1001F300EBE98DF0A4FEE5F0020287E9CDF9EAFE12
:10020300EBFFEF89F0A4FCE5F0CE89F0A42EFFE428
:1002130035F0CD89F0A42DFEE435F08067EF4E7004
:1002230005BD80D780C3EF8BF0A4ACF0EE8BF0A4B8
:100233002CFCE435F0F8EF8AF0A42CE5F038FCE46C
:1002430033CB8DF0A42CFCE5F03BF8EE8AF0A42C24
:10025300FCE5F038F8E433CF89F0A42CFCE5F03862
:10026300CF3400CE89F0A42FFFE5F03EFEE433C97E
:100273008DF0A42EFEE5F039CD8AF0A42FFFE5F032
:100283003EFEE43DFD33D0E0FB50070BBB000F0205
:100293000471EC2CFCEF33FFEE33FEED33FD02046F
:1002A30049020471EC5D046005E85904700302041B
:1002B30067120432580460F6EC4860F2EC7004FDF7
:1002C300FEFF22C860DB2481C85009C39860025036
:1002D3000602046E9850CAF582E9294B4A7005ABB1
:1002E3008202045D75F0007C1A7880C3EF9BEE9A5E
:1002F300ED99400DC3EF9BFFEE9AFEED99FDE842A9
:10030300F0DC23ACF0D0E0FFD0E0FED0E0FDAB8228
:1003130020E7101BEB60BAEC2CFCEF33FFEE33FE4F
:10032300ED33FD020449E803F830E705C0F075F04A
:1003330000EF2FFFEE33FEED33FD40B830E7C28010
:10034300AA74F8CC6480CCC86480C8F58204604F7A
:10035300C3EB9FF5F0EA9E42F0E99D42F0E89C452D
:10036300F0603C501DE5825FFFE582D313CB5BCB8E
:10037300F42B5582FB50280ABA002409B90020083F
:10038300801DE5825BFBE582D313CF5FCFF4C313FC
:100393002F5582FF50090EBE00050DBD00010CC391
:1003A300EB9FF5F0EA9E42F0E99D42F0E89C45F0B0
:1003B3006007CC4820E701B3EC2275F020800E756E
:1003C300F010800575F0087D007E007F003392D524
:1003D30030D50312082CEC334010EF33FFEE33FE1D
:1003E300ED33FDEC33FCD5F0ED22E5F0247EA2D510
:1003F30013CC92E7CDCEFF22EDD2E7CD33EC33928F
:10040300D524814006E4FFFEFDFC22FCE4CFCECDE3
:10041300CC24E0501174FF80EDC3CC13CCCD13CDAD
:10042300CE13CECF13CF0470F030D5DE02082CE903
:10043300D2E7C933E833F892D5EDD2E7CD33EC33C5
:10044300FC5002B2D522EC30E7100FBF000C0EBEF9
:1004530000080DBD00040BEB6014A2D5EB13FCEDFB
:1004630092E7FD2274FFFCFDFEFF22E480F8A2D593
:1004730074FF13FC7D80E480EFE709F608DFFA8060
:1004830046E709F208DFFA803E88828C83E709F0A9
:10049300A3DFFA8032E309F608DFFA8078E309F292
:1004A30008DFFA807088828C83E309F0A3DFFA8087
:1004B3006489828A83E0A3F608DFFA805889828AF6
:1004C30083E0A3F208DFFA804C80D280FA80C680F2
:1004D300D4806980F28033801080A680EA809A807D
:1004E300A880DA80E280CA803389828A83ECFAE4C6
:1004F30093A3C8C582C8CCC583CCF0A3C8C582C8A2
:10050300CCC583CCDFE9DEE7800D89828A83E4935F
:10051300A3F608DFF9ECFAA9F0EDFB2289828A83BE
:10052300ECFAE0A3C8C582C8CCC583CCF0A3C8C588
:1005330082C8CCC583CCDFEADEE880DB89828A838C
:10054300E493A3F208DFF980CC88F0EF60010E4E4C
:1005530060C388F0ED2402B4040050B9F582EB24A3
:1005630002B4040050AF23234582239004CC73C20A
:10057300D530F707B2D563F0FF05F030E70CB2D5FD
:10058300F4048463F0FF05F080018430D502F404A1
:1005930022BB010689828A83E0225002E722BBFE46
:1005A30002E32289828A83E49322BB010CE5822938
:1005B300F582E5833AF583E0225006E92582F8E6E1
:1005C30022BBFE06E92582F8E222E58229F582E5CF
:1005D300833AF583E49322BB010689828A83F0225E
:1005E3005002F722BBFE01F322F8BB010DE582297D
:1005F300F582E5833AF583E8F0225006E92582C8BF
:10060300F622BBFE05E92582C8F222EF8DF0A4A8ED
:10061300F0CF8CF0A428CE8DF0A42EFE22BC000BCC
:10062300BE0029EF8DF084FFADF022E4CCF875F025
:1006330008EF2FFFEE33FEEC33FCEE9DEC98400504
:10064300FCEE9DFE0FD5F0E9E4CEFD22EDF8F5F0CA
:10065300EE8420D21CFEADF075F008EF2FFFED33D2
:10066300FD4007985006D5F0F222C398FD0FD5F050
:10067300EA22C2D5EC30E709B2D5E4C39DFDE49C80
:10068300FCEE30E715B2D5E4C39FFFE49EFE1206ED
:1006930020C3E49DFDE49CFC800312062030D507B3
:1006A300C3E49FFFE49EFE22C5F0F8A3E028F0C553
:1006B300F0F8E582158270021583E038F022A3F882
:1006C300E0C5F025F0F0E582158270021583E0C8DD
:1006D30038F0E822BB0110E58229F582E5833AF57B
:1006E30083E0F5F0A3E0225009E92582F886F008BB
:1006F300E622BBFE0AE92582F8E2F5F008E222E5EC
:10070300832AF583E993F5F0A3E99322E88FF0A414
:10071300CC8BF0A42CFCE98EF0A42CFC8AF0EDA485
:100723002CFCEA8EF0A4CDA8F08BF0A42DCC3825B8
:10073300F0FDE98FF0A42CCD35F0FCEB8EF0A4FE98
:10074300A9F0EB8FF0A4CFC5F02ECD39FEE43CFC2D
:10075300EAA42DCE35F0FDE43CFC2275F008758249
:1007630000EF2FFFEE33FECD33CDCC33CCC5823338
:10077300C5829BED9AEC99E58298400CF582EE9B3D
:10078300FEED9AFDEC99FC0FD5F0D6E4CEFBE4CD5B
:10079300FAE4CCF9A88222B800C1B90059BA002DF5
:1007A300EC8BF084CFCECDFCE5F0CBF97818EF2FAE
:1007B300FFEE33FEED33FDEC33FCEB33FB10D703DD
:1007C300994004EB99FB0FD8E5E4F9FA227818EF86
:1007D3002FFFEE33FEED33FDEC33FCC933C910D7E5
:1007E300059BE99A4007EC9BFCE99AF90FD8E0E4F2
:1007F300C9FAE4CCFB2275F010EF2FFFEE33FEEDC8
:1008030033FDCC33CCC833C810D7079BEC9AE89997
:10081300400AED9BFDEC9AFCE899F80FD5F0DAE479
:10082300CDFBE4CCFAE4C8F922C3E49FFFE49EFEC7
:10083300E49DFDE49CFC22EB9FF5F0EA9E42F0E987
:100843009D42F0EC6480C864809845F022EB9FF5EC
:10085300F0EA9E42F0E99D42F0E89C45F022E86010
:100863000FECC313FCED13FDEE13FEEF13FFD8F1F2
:1008730022BB010789828A830209345005E9F80201
:100883000928BBFE05E9F802094089828A83020927
:100893004CECF0A3EDF0A3EEF0A3EFF022A88285D9
:1008A30083F0D083D0821208B71208B71208B712A8
:1008B30008B7E473E493A3C583C5F0C583C8C582B1
:1008C300C8F0A3C583C5F0C583C8C582C822F5F0A7
:1008D300C582A4C582C5F0C583A42583F58322BB45
:1008E300010789828A830209655005E9F802095CD8
:1008F300BBFE05E9F802096E89828A83020977D073
:1009030083D082F8E4937012740193700DA3A393C0
:10091300F8740193F5828883E4737402936860EF3B
:10092300A3A3A380DFE6FC08E6FD08E6FE08E6FFD6
:1009330022E0FCA3E0FDA3E0FEA3E0FF22E2FC082B
:10094300E2FD08E2FE08E2FF22E493FC740193FD5A
:10095300740293FE740393FF22E6FB08E6FA08E6AB
:10096300F922E0FBA3E0FAA3E0F922E2FB08E2FAB2
:1009730008E2F922E493FB740193FA740293F922D7
:1009830043BA80E59D603178FAE6FBAF9FC3EF9BE6
:10099300FFE49400FEE49400FDE49400FC7BE07A21
:1009A300287901780012070FE42FFFEE3451FEED92
:1009B3003425FDEC3402802E78FBE6FBAF9FC3EFBA
:1009C3009BFFE49400FEE49400FDE49400FCE47BCC
:1009D300807ABBF9F812070FE42FFFEE3436FEEDF1
:1009E300346EFDEC3401FC9001FC1208949001FC80
:1009F300E0FCA3E0FDA3E0FEA3E0FFC00790FE013F
:100A0300E0FBE4FAF9F8D00712079A9001FC120808
:100A1300947FC07EF67D577C009001FCE0F8A3E054
:100A2300F9A3E0FAA3E0FBC312085050097F007E4C
:100A3300607D547C00227FC07E267D827C009001F5
:100A4300FCE0F8A3E0F9A3E0FAA3E0FBC31208502B
:100A530050097F807E8D7D5B7C00227F807EED7DD3
:100A6300AF7C009001FCE0F8A3E0F9A3E0FAA3E077
:100A7300FBC312085050097F007EC07DA87C002272
:100A83007F807E2D7DE87C009001FCE0F8A3E0F9F7
:100A9300A3E0FAA3E0FBC312085050097F007E1BBA
:100AA3007DB77C00227F807E367D257C019001FC12
:100AB300E0F8A3E0F9A3E0FAA3E0FBC31208505067
:100AC300097F007E407D197C01227F807E567D4117
:100AD3007C019001FCE0F8A3E0F9A3E0FAA3E0FBBA
:100AE300C312085050097F007E2D7D317C01227F87
:100AF300007EDB7D5F7C019001FCE0F8A3E0F9A3BD
:100B0300E0FAA3E0FBC312085050097F007E807D0A
:100B1300517C01227F607E197D857C019001FCE080
:100B2300F8A3E0F9A3E0FAA3E0FBC31208505009CD
:100B33007F007E367D6E7C01227F207EE07DB27C4D
:100B4300019001FCE0F8A3E0F9A3E0FAA3E0FBC302
:100B530012085050097FC07EFC7D9B7C01227FE000
:100B63007EA67DE07C019001FCE0F8A3E0F9A3E020
:100B7300FAA3E0FBC312085050097F807EC37DC9EE
:100B83007C01227F607E2B7DFF7C019001FCE0F8DD
:100B9300A3E0F9A3E0FAA3E0FBC312085050097FD6
:100BA300007E407DFA7C01227FC07E0E7D167C0292
:100BB300229001FCEFF0A3EDF0A3EBF0A3E0F8A388
:100BC300E0F9A3E0FAA3E0FB90020CE0FCA3E0FD54
:100BD300A3E0FEA3E0FF12079AE47B04FAF9F812FC
:100BE300079AC3E49FFFE49EAD07FC9001FCE01469
:100BF3007003020C8D147003020CD0147003020DE9
:100C03002924036003020D86900203E0FB7A00644B
:100C13000170144398508D8BECF58D438E40D28E2A
:100C2300E49001CAF08011EB64024A700B439850C0
:100C33008DD7ECF5D6438E1553A23F9001FDE0F915
:100C4300FF7E007008A3E0640170028035EF640248
:100C53004E700D9001FEE06403700543A2408022B4
:100C6300E96404700D9001FEE06405700543A28001
:100C73008010E96406700B9001FEE0640770034383
:100C8300A2C0E49001CAF0D2AC22900203E0640255
:100C9300700B439A108DD7ECF5D6438E1453BAFEDE
:100CA3009001FDE0FF7E0064087008A3E064097012
:100CB300028011EF640A4E700B9001FEE0640B702A
:100CC3000343BA0143AF01E49001CBF02290020346
:100CD300E0FB7A006402700D43AC108DD7ECF5D6BF
:100CE300438E148011EB64034A700B43AC508DD5D3
:100CF300ECF5D443D10A53BAFD9001FDE0FF7E0029
:100D0300640C7008A3E0640D70028011EF640E4E52
:100D1300700B9001FEE0640F700343BA0243AF0807
:100D2300E49001CCF022900203E0FB7A00640270AD
:100D33000D4384108DD7ECF5D6438E148011EB64EC
:100D4300044A700B4384508DD3ECF5D243D1A053A6
:100D5300BAFB9001FDE0FF7E0064107008A3E0641D
:100D63001170028016EF64124E70109001FEE06461
:100D7300137008F5CA75C90443BA0443AF10E4906D
:100D830001CDF022787FE4F6D8FD758107020DCE00
:100D9300020026E493A3F8E493A34003F68001F250
:100DA30008DFF48029E493A3F85407240CC8C33361
:100DB300C4540F4420C8834004F456800146F6DF30
:100DC300E4800B0102040810204080901102E47EAD
:100DD300019360BCA3FF543F30E509541FFEE49325
:100DE300A360010ECF54C025E060A840B8E493A3EC
:100DF300FAE493A3F8E493A3C8C582C8CAC583CA17
:100E0300F0A3C8C582C8CAC583CADFE9DEE780BECE
:100E1300AD07EDFB7A0070209001D4E0FEA3E0F56E
:100E2300EAEEF5FA9001CEE0FEA3E0FF9001D5E0F3
:100E33002FF09001D4E03EF0EB64014A7020900162
:100E4300D6E0FEA3E0F5EBEEF5FB9001D0E0FEA3C8
:100E5300E0FF9001D7E02FF09001D6E03EF0ED6483
:100E63000270209001D8E0FEA3E0F5ECEEF5FC90D3
:100E730001D2E0FEA3E0FF9001D9E02FF09001D86A
:100E8300E03EF02212098390020C120894E4F594D8
:100E9300F593F592F591F596F595F5B2F5B1F5B4AF
:100EA300F5B3F5CAF5C9F5D8F5D9F5DEF58EF5989C
:100EB300F59AF5ACF584F5A2F5BAF5AFF589F5E940
:100EC300F5F943BA801210959001FF1208A00001B2
:100ED300C2009002037402F07B01E4FDFF020BB435
:100EE300C0E0C0F0C083C082C0D075D000C000C0D5
:100EF30001C002C003C004C005C006C00730D80B40
:100F030053D8FEE4FF120E13120FD930D90853D869
:100F1300FD7F01120E1330DA0353D8FBD007D0063E
:100F2300D005D004D003D002D001D000D0D0D082DD
:100F3300D083D0F0D0E032C0E0C0F0C083C082C024
:100F4300D075D000C000C001C002C003C004C005FA
:100F5300C006C007E58430E1085384FD9001CDE469
:100F6300F0E58430E0065384FE120031D007D0064A
:100F7300D005D004D003D002D001D000D0D0D0828D
:100F8300D083D0F0D0E032C0E0C083C082C0D0753F
:100F9300D000C007E59830E1085398FD9001CAE4FA
:100FA300F0E59830E0255398FEAF99EF647F701613
:100FB300900212E0FF04F0D3EF9414748094804005
:100FC3000A75C7608005900212E4F0D007D0D0D034
:100FD30082D083D0E032E4900205F0D2A0C2A1C255
:100FE300A0D2A1D2A0C2A1F0900205E0C394807464
:100FF3008094805027C2A0E4FD7F0E12106A9002F5
:1010030005E025E02401F582E43400F583EEF0A346
:10101300EFF0D2A0900205E004F080CC90000074C1
:1010230001F022C2D5E830E70FB2D5E4C39BFBE45D
:101033009AFAE499F9E498F8EC30E717B2D512106C
:101043005C12079AE4C39BFBE49AFAE499F9E498E7
:10105300F8800312079A30D50DE4C39FFFE49EFE88
:10106300E49DFDE49CFC22A90553BCF0EF42BC4384
:10107300BC40E5BC30E5FB53BCDFAFBDEFFEADBE0E
:10108300EDFFAD01A805088005CEC313CE13D8F933
:10109300FF22E47BE07A2EF9F890020CE0FCA3E057
:1010A300FDA3E0FEA3E0FF12079A900210EEF0A367
:1010B300EFF075DC48E4F5D9D2DE22C0E0C083C08E
:1010C30082E59A30E108539AFD9001CBE4F0E59A6A
:1010D30030E003539AFED082D083D0E032C0E0C028
:1010E30083C082E5AC30E10853ACFD9001CCE4F061
:1010F300E5AC30E00353ACFED082D083D0E0324481
:10110300020C000000004601D4000000000000466D
:0E11130001CE000000000000420210000000AB
:00000001FF
