:0761D70044051D000000005B
:10258A0043BA80E59D602E78FAE6FFAD9FC3ED9FC2
:10259A00FFE49400FE3395E0FDFC7BE07A287901A4
:1025AA007800121507E42FFFEE3451FEED3425FDB5
:1025BA00EC3402802B78FBE6FFAD9FC3ED9FFFE46E
:1025CA009400FE3395E0FDFCE47B807ABBF9F812B7
:1025DA001507E42FFFEE3436FEED346EFDEC3401C0
:1025EA00FC90046C12168C90046CE0FCA3E0FDA332
:1025FA00E0FEA3E0FFC00790FE01E0FBE4FAF9F871
:10260A00D00712159290046C12168C7FC07EF67D4C
:10261A00577C0090046CE0F8A3E0F9A3E0FAA3E089
:10262A00FBC312164850097F007E607D547C00224D
:10263A007FC07E267D827C0090046CE0F8A3E0F9DE
:10264A00A3E0FAA3E0FBC312164850097F807E8DEF
:10265A007D5B7C00227F807EED7DAF7C0090046CE8
:10266A00E0F8A3E0F9A3E0FAA3E0FBC3121648508E
:10267A00097F007EC07DA87C00227F807E2D7DE8B8
:10268A007C0090046CE0F8A3E0F9A3E0FAA3E0FB75
:10269A00C312164850097F007E1B7DB77C00227F3B
:1026AA00807E367D257C0190046CE0F8A3E0F9A3D6
:1026BA00E0FAA3E0FBC312164850097F007E407D72
:1026CA00197C01227F807E567D417C0190046CE05A
:1026DA00F8A3E0F9A3E0FAA3E0FBC31216485009F5
:1026EA007F007E2D7D317C01227F007EDB7D5F7C39
:1026FA000190046CE0F8A3E0F9A3E0FAA3E0FBC3BD
:10270A0012164850097F007E807D517C01227F602D
:10271A007E197D857C0190046CE0F8A3E0F9A3E0C2
:10272A00FAA3E0FBC312164850097F007E367D6E7D
:10273A007C01227F207EE07DB27C0190046CE0F86F
:10274A00A3E0F9A3E0FAA3E0FBC312164850097FFD
:10275A00C07EFC7D9B7C01227FE07EA67DE07C0121
:10276A0090046CE0F8A3E0F9A3E0FAA3E0FBC3123B
:10277A00164850097F807EC37DC97C01227F607E16
:10278A002B7DFF7C0190046CE0F8A3E0F9A3E0FA4A
:10279A00A3E0FBC312164850097F007E407DFA7CF5
:0A27AA0001227FC07E0E7D167C0226
:0127B4002202
:1055B60012258A90051D12168CE4F594F593F59242
:1055C600F591F596F595F5B2F5B1F5B4F5B3F5CADD
:1055D600F5C9F5D8F5D9F5DEF58EF598F59AF5AC59
:1055E600F584F5A2F5BAF5AFF589F5E9F5F9126096
:1055F6005590046F1216980001C20090047374024D
:09560600F07B01E4FDFF022BCE54
:1065070090054FEFF0FDE4FF12589B90054FE0FF19
:016517002261
:03003E00C2AF222C
:03005000D2AF220A
:103B4800900474EFF014603914605F147003023B42
:103B5800DB24036003023C05E4FD7F131222D9E451
:103B6800FD7F141222D9E4FD7F151222D97D017F31
:103B780013125500E4FD7F141255007D017F158056
:103B880079E4FD7F231222D9E4FD7F241222D9E4AF
:103B9800FD7F251222D97D017F23125500E4FD7F88
:103BA800241255007D017F258050E4FD7F401222BC
:103BB800D9E4FD7F411222D9E4FD7F431222D97D49
:103BC800017F40125500E4FD7F411255007D017FC1
:103BD800438027E4FD7F341222D9E4FD7F3312228B
:103BE800D9E4FD7F321222D97D017F34125500E4D9
:103BF800FD7F331255007D017F3212550053A2F329
:103C0800900474E014600A14600C14600E2403809D
:103C18000D43A204800843A208800343A20C53CE9C
:103C2800F3900478E024FE600C14600E2402700DFA
:103C380043CE04800843CE08800343CE0C90047A18
:103C4800E042CE900479E0700643CE8043CE104324
:033C5800CE402239
:0D0006008FCFE5CD30E7FB75CDC0AFCF2229
:1042B900900521EFF053A2F3E014603914605F1404
:1042C90070030243502403600302437AE4FD7F1321
:1042D9001222D9E4FD7F141222D9E4FD7F1512229E
:1042E900D97D017F13125500E4FD7F141255007D1D
:1042F900017F158079E4FD7F231222D9E4FD7F2413
:104309001222D9E4FD7F251222D97D017F2312557E
:1043190000E4FD7F241255007D017F258050E4FDD6
:104329007F401222D9E4FD7F411222D9E4FD7F4367
:104339001222D97D017F40125500E4FD7F411255BB
:10434900007D017F438027E4FD7F341222D9E4FDFB
:104359007F331222D9E4FD7F321222D97D017F34C5
:10436900125500E4FD7F331255007D017F3212554D
:1043790000900521E014600914600A14600B2403FD
:0D4389002243A2042243A2082243A20C22D8
:1063930053CEF7EF24FE600B14600C2402700B4302
:0B63A300CE042243CE082243CE0C2281
:1064E200EF1FAA0670011E4A60087D091DED60F0CB
:0264F20080FA2E
:0164F4002285
:105E1A00E490053FF0A3F0FC90FE82E020E61E7FAE
:105E2A00017E001264E290053FE475F0011214B994
:105E3A00FEC3E5F0941EEE940040DD7C0190FE82E4
:065E4A00E054BFF0AF04BC
:015E5000222F
:0965E30090FE817401F0025E1AC1
:08641300AF01EF25E04401FF99
:0E641B0090FE86EFF090FE817402F0025E1A91
:0965EC0090FE817403F0025E1AB6
:0F656B0090FE817404F0125E1A90FE87E0FF220A
:0F630300900485E0FBA3E0FAA3E0F9EF1213D2B8
:0E63120090FE82E4F090FE817405F0025E1AA7
:0F657A0090FE827401F090FE817405F0025E1AAB
:0965F50090FE817406F0025E1AAA
:105AD20053BACF43BA80EF14600A14600C14600EFC
:105AE2002403800D43BA10800843BA20800343BACE
:105AF2003090FE80E04440F0E04480F0C083C082F9
:105B0200E0FB90047EA3A3A3E0FFEB4FD082D083FF
:075B1200F090FE82E4F02296
:104FB700A90553BACFEF14600A14600C14600E24CD
:104FC70003800D43BA10800843BA20800343BA30E8
:104FD7001265E3EF60037F0122AF01EF25E0FF12C7
:104FE700641BEF60037F01221265ECEF60037F0112
:104FF70022AF0312641BEF60037F01221265ECEFFF
:1050070060037F0122900528E0FF12641BEF600315
:105017007F01221265ECEF60037F01221265F5EF35
:0850270060037F01227F0022DB
:104EBE00A90553BACFEF14600A14600C14600E24C7
:104ECE0003800D43BA10800843BA20800343BA30E2
:104EDE001265E3EF60037F0122E925E0FF12641BF8
:104EEE00EF60037F01221265ECEF60037F0122AFBA
:104EFE000312641BEF60037F01221265ECEF600367
:104F0E007F0122126413EF60037F01221265ECEF22
:104F1E0060037F012212656B9004BD126306EF6081
:104F2E00037F01221265F5EF60037F01227F0022CD
:104A4400A90553BACFEF14600A14600C14600E2445
:104A540003800D43BA10800843BA20800343BA3060
:104A64001265E3EF60037F0122E925E0FF12641B76
:104A7400EF60037F01221265ECEF60037F0122AF38
:104A84000312641BEF60037F01221265ECEF6003E5
:104A94007F0122126413EF60037F01221265ECEFA1
:104AA40060037F0122900488E014F0601812656BA3
:104AB400126303EF60037F0122900486E475F00122
:104AC4001214A380E012656B126303EF60037F018D
:0D4AD400221265F5EF60037F01227F0022B2
:10005E0043BA8053BACFEF14600A14600C14600ECA
:10006E002403800D43BA10800843BA20800343BA9C
:05007E003053BA7F229F
:0B2BCE0090046CEFF0A3EDF0A3EBF01F
:102BD900A3E0F8A3E0F9A3E0FAA3E0FB90051DE068
:102BE900FCA3E0FDA3E0FEA3E0FF121592E47B0441
:102BF900FAF9F8121592C3E49FFFE49EAD07FC9021
:102C0900046CE0147003022CA7147003022CEA145C
:102C19007003022D4324036003022DA0900473E086
:102C2900FB7A00640170144398508D8BECF58D4349
:102C39008E40D28EE49001CAF08011EB64024A7092
:102C49000B4398508DD7ECF5D6438E1553A23F9080
:102C5900046DE0F9FF7E007008A3E0640170028052
:102C690035EF64024E700D90046EE0640370054305
:102C7900A2408022E96404700D90046EE06405703E
:102C89000543A2808010E96406700B90046EE0642D
:102C990007700343A2C0E49001CAF0D2AC229004A9
:102CA90073E06402700B439A108DD7ECF5D6438E0E
:102CB9001453BAFE90046DE0FF7E0064087008A307
:102CC900E0640970028011EF640A4E700B90046E83
:102CD900E0640B700343BA0143AF01E49001CBF008
:102CE90022900473E0FB7A006402700D439A108D00
:102CF900D7ECF5D6438E148011EB64034A700B436D
:102D0900AC508DD5ECF5D443D10A53BAFD90046D7E
:102D1900E0FF7E00640C7008A3E0640D700280116E
:102D2900EF640E4E700B90046EE0640F700343BAAB
:102D39000243AF08E49001CCF022900473E0FB7ADF
:102D4900006402700D4384108DD7ECF5D6438E14C0
:102D59008011EB64044A700B4384508DD3ECF5D297
:102D690043D1A053BAFB90046DE0FF7E006410705C
:102D790008A3E0641170028016EF64124E7010907F
:102D8900046EE064137008F5CA75C90443BA0443B4
:072D9900AF10E49001CDF042
:012DA0002210
:0F588C00A3E475F0011214B9A9F0FA12138CFD00
:10589B00EF14601514601D1460252403702D900106
:1058AB00CAE070FA04F08D99229001CBE070FA04F3
:1058BB00F08D9B229001CCE070FA04F08DAD22901C
:0C58CB0001CDE070FA04F0AF058F8522DB
:10607E009004C1EBF0A3EAF0A3E9F0AE079004C4DC
:10608E0074FFF5F01214B945F0600CAF069004C120
:08609E00E0FB12588C80E622A1
:1060A60090052DEBF0A3EAF0A3E9F0AE0790052DDD
:1060B600E0FBA3E0FAA3E0F912138C600AAF0690A6
:0860C600052D12588C80E62222
:1058D70043BC80EF131313541FFB7A006401701746
:1058E700EF5407FEF87401088002C333D8FCFEF4B6
:1058F7005294EE42938019EB4A7015EF5407FEF865
:105907007401088002C333D8FCFEF45292EE429130
:09591700ED540F42DE43DE2022B4
:025FAC00A90545
:105FAE0053BCF0EF42BC43BC40E5BC30E5FB53BCF8
:105FBE00DFAFBDEFFEADBEEDFFAD01A8050880055C
:085FCE00CEC313CE13D8F9FF76
:015FD60022A8
:105BEA00EF14601814602014602614602C240470CA
:105BFA0030E4F58AF58C438904D28C22E4F58BF5DE
:105C0A008D438940D28E22E4F5D7F5D6438E1822E9
:105C1A00E4F5D5F5D443D10C22E4F5D3F5D243D13A
:025C2A00C02296
:105B6000EF14601714601E14602514602C24047058
:105B700030AF8CEFFCAF8AEFFD8026AF8DEFFCAF2E
:105B80008BEFFD801CAFD6EFFCAFD7EFFD8012AFDF
:105B9000D4EFFCAFD5EFFD8008AFD2EFFCAFD3EF71
:055BA000FDAF05AE049D
:015BA50022DD
:10592000EF14601714601E14602714603024047094
:1059300037C28CE4F58CF58AD28C22C28EE4F58DC8
:10594000F58BD28E22538EEFE4F5D6F5D7438E1029
:105950002253D1F7E4F5D4F5D543D1082253D17FB2
:09596000E4F5D2F5D343D1802215
:054C9900900550EFF052
:104C9E007E037FE81214187C007D0C121406AB07FD
:104CAE00AA06E4F9F890051DE0FCA3E0FDA3E0FEE2
:104CBE00A3E0FF121592C3E49FFFE49EFE90055001
:104CCE00E0F9FD7C00700A8F8AEEF58CD28CD2A9A9
:104CDE0022ED64014C700A8F8BEEF58DD28ED2AB25
:104CEE0022E9FD7C006402700C8FD7EEF5D6438E60
:104CFE001043AF0422ED64034C700C8FD5EEF5D447
:104D0E0043D10843AF2022E96404700B8FD3EEF534
:074D1E00D243D18043AF40F6
:014D2500226B
:0527B50090037CEFF031
:1027BA00E4900387F07D011222D990037CE0C4548F
:1027CA000FFFF87401088002C333D8FC42F143BA00
:1027DA008090037DE0F8A3E0F9A3E0FAA3E0FB9080
:1027EA00051DE0FCA3E0FDA3E0FEA3E0FF121592A5
:1027FA00780F121659900387EFF090037DE0F8A343
:10280A00E0F9A3E0FAA3E0FB90051DE0FCA3E0FDDC
:10281A00A3E0FEA3E0FF121592C006C0079003874B
:10282A00E02401FFE433AB07FA3395E0F9F8D00767
:10283A00D006121592900385EEF0A3EFF090038173
:10284A00E0FCA3E0FDE41211BA7B007A40791C781F
:10285A004612109FC004C005C006C007900385E059
:10286A00FCA3E0FDE41211BAD003D002D001D000DB
:10287A00120F961211F3900383EEF0A3EFF0900378
:10288A007CE0FFC3943074809480900387E0FD500D
:10289A006AEFC4540FF975F050A4FFAEF02402FB9E
:1028AA00EE34FF8B82F583EDF0900385E0FCA3E024
:1028BA00FDE42FFFEE34FF8F82F583ECF0A3EDF0F9
:1028CA00900383E0FCA3E0FDE975F050A42410FB1B
:1028DA00E5F034FFFA90037CE0540F75F008A42B5E
:1028EA00FFE5F03A8F82F583ECF0A3EDF0E975F09D
:1028FA0050A42414FDE5F034FF806D90037CE0249D
:10290A00D0C4540FF975F050A4FFAEF02402FBEEC8
:10291A0034FC8B82F583EDF0900385E0FCA3E0FDA7
:10292A00E42FFFEE34FC8F82F583ECF0A3EDF090F8
:10293A000383E0FCA3E0FDE975F050A42410FBE555
:10294A00F034FCFA90037CE0540F75F008A42BFFD6
:10295A00E5F03A8F82F583ECF0A3EDF0E975F050DB
:10296A00A42414FDE5F034FCFC90037CE0540F75BC
:10297A00F008A42DFFE5F03C8F82F583E04480F057
:10298A0090037CE0C4540F14601514601714601986
:10299A0014601B14601D2405701C43F60180174344
:1029AA00F610801243F701800D43F710800843FEAA
:0929BA0001800343FE1053BA7FB3
:0129C30022F1
:0B3A310090050EEFF0A3ECF0A3EDF009
:103A3C0043BA8090050EE0C3943074809480506F2C
:103A4C00A3E0FCA3E0FDE41211BA7B007A40791CE0
:103A5C00784612109FC004C005C006C00790050E22
:103A6C00E0C4540F75F050A42400FFE5F034FF8F30
:103A7C0082F583E0FCA3E0FDE41211BAD003D0027E
:103A8C00D001D000120F961211F3900511EEF0A395
:103A9C00EFF0900511E0FCA3E0FD90050EE0F9C4F9
:103AAC00540F75F050A42410FBE5F034FF80739094
:103ABC00050FE0FCA3E0FDE41211BA7B007A40791B
:103ACC001C784612109FC004C005C006C0079005A4
:103ADC000EE024D0C4540F75F050A42400FFE5F080
:103AEC0034FC8F82F583E0FCA3E0FDE41211BAD024
:103AFC0003D002D001D000120F961211F3900511D1
:103B0C00EEF0A3EFF0900511E0FCA3E0FD90050EA4
:103B1C00E0F924D0C4540F75F050A42410FBE5F048
:103B2C0034FCFAE9540F75F008A42BFFE5F03A8F3A
:0B3B3C0082F583ECF0A3EDF053BA7F9C
:013B4700225B
:052DA10090035FEFF05C
:102DA600E490036EF0900360E0F8A3E0F9A3E0FA84
:102DB600A3E0FB90051DE0FCA3E0FDA3E0FEA3E07D
:102DC600FF121592780F12165990036EEFF09003CA
:102DD60060E0F8A3E0F9A3E0FAA3E0FB90051DE0AC
:102DE600FCA3E0FDA3E0FEA3E0FF121592C006C01F
:102DF6000790036EE02401FFE433AB07FA3395E056
:102E0600F9F8D007D00612159290036A12168C9024
:102E16000364E0FCA3E0FDE41211BA7B007A40797A
:102E26001C784612109FC004C005C006C007900358
:102E36006AE0FCA3E0FDA3E0FEA3E0FFE41211B507
:102E4600D003D002D001D000120F961211F39003D6
:102E56006612168C43BA8090035FE0C39430748088
:102E6600948090036EE0FD90035FE0504AC4540FD7
:102E7600F975F050A4FBAAF02402FFEA34FF8F8212
:102E8600F583EDF090036AA3A3E0FEA3E0FFE42B35
:102E9600FDEA34FF8D82F583EEF0A3EFF090036632
:102EA600A3A3E0FEA3E0FDAC06E975F050A4241050
:102EB600FBE5F034FF804A24D0C4540FF975F05076
:102EC600A4FBAAF02402FFEA34FC8F82F583EDF01E
:102ED60090036AA3A3E0FEA3E0FFE42BFDEA34FC23
:102EE6008D82F583EEF0A3EFF0900366A3A3E0FED8
:102EF600A3E0FDAC06E975F050A42410FBE5F03420
:102F0600FCFA90035FE0540F75F008A42BFFE5F080
:102F16003A8F82F583ECF0A3EDF090035FE0C454A2
:102F26000F14601514601714601914601B14601DCB
:102F36002405701C43F601801743F610801243F7F0
:102F460001800D43F710800843FE01800343FE1005
:032F560053BA7FEC
:012F59002255
:1061DE0046038E0000000000004603880000000009
:0261EE000000AF
:1054A000E4F5D875D906EF64017054EDB40A0050E4
:1054B0004E9054B8F82828730254D60254DA025495
:1054C000DE0254E20254E60254EA0254EE0254F2BE
:1054D0000254F60254FCE4F5DA2275DA422275DA57
:1054E000632275DA532275DA732275DA202275DAAF
:1054F000102275DA302275DA49D2DE2275DA4C22B2
:1064F500EF64017008AFFAEFFCAFEAEFFDAF05AE50
:016505000491
:016506002272
:0A004600EF64017004F5F9F5E922FA
:0541DA0090046CEFF001
:1041DF00C2DEAFF9EFFFABE9EBA3CFF0A3EFF090A7
:1041EF00046CE070637E037FE81214187C007D0C72
:1041FF00121406AB07AA06E4F9F890051DE0FCA31C
:10420F00E0FDA3E0FEA3E0FF121592AC06AD079010
:10421F000388ECF0A3EDF075DA49E5E904F5EA85DA
:10422F00F9FA900388E0FEA3E0FF90038FE02FFFE1
:10423F0090038EE03EFE90046EE02FFF90046DE041
:10424F003E90038EF0A3EFF090046CE06401705782
:10425F007E037FE81214187C007D0C121406AB0746
:10426F00AA06E4F9F890051DE0FCA3E0FDA3E0FE2B
:10427F00A3E0FF12159290038AEEF0A3EFF075DB27
:10428F0049E5E904F5EB85F9FB900391E02FFF90E9
:10429F000390E03EFE90046EE02FFF90046DE03E31
:0942AF00900390F0A3EFF0D2DEC1
:0142B80022E3
:1052F400AD07EDFB7A00702090038EE0FEA3E0F58D
:10530400EAEEF5FA900388E0FEA3E0FF90038FE055
:105314002FF090038EE03EF0EB64014A702090037E
:1053240090E0FEA3E0F5EBEEF5FB90038AE0FEA32C
:10533400E0FF900391E02FF0900390E03EF0ED64E5
:10534400027020900392E0FEA3E0F5ECEEF5FC90F1
:10535400038CE0FEA3E0FF900393E02FF090039210
:04536400E03EF02215
:105EBD00EF7007ED24FF9288D2A8EF64017007ED13
:105ECD0024FF928AD2AAEFFD7C0064027003758FC5
:105EDD0010ED64034C7003758F20ED64044C70035A
:045EED00758F40224B
:0561F000420541000022
:10605500E47BE07A2EF9F890051DE0FCA3E0FDA3B2
:10606500E0FEA3E0FF121592900541EEF0A3EFF0DC
:0960750075DC48E4F5D9D2DE2205
:10632000AFF9EFFEADE9EDFF900542E02FFF9005DC
:0C63300041E03E8FECF5FC30DAFDC2DAF3
:01633C00223E
:10646A00AB07AA06EB1BAE0270011A4E6005126357
:04647A002080F1226B
:10550000EDFB7A0064017025EFC4540F2410FDE414
:1055100034FE8D82F583C083C082E0FEEF540FFF1E
:10552000F87401088002C333D8FC4E8028EB4A701F
:1055300029EFC4540F2410FDE434FE8D82F583C09E
:1055400083C082E0FEEF540FFFF87401088002C3AD
:0B55500033D8FCF45ED082D083F02240
:1022D900ED600302237CEF54F0F9FB7A007013EFF1
:1022E900540FFEF87401088002C333D8FCF45293EA
:1022F9005294EB64104A7013EF540FFEF8740108FE
:102309008002C333D8FCF452915292E964207013CD
:10231900EF540FFEF87401088002C333D8FCF4525D
:10232900955296E9FB7A0064307013EF540FFEF86A
:102339007401088002C333D8FCF452B152B2EB6481
:10234900404A7013EF540FFEF87401088002C3333A
:10235900D8FCF452B352B4E964506003022589EF02
:10236900540FFEF87401088002C333D8FCF452C933
:1023790052CA22ED6401600302242CEF54F0F9FBE8
:102389007A007015EF540FFEF87401088002C33308
:10239900D8FCFEF45293EE4294EB64104A7015EFA8
:1023A900540FFEF87401088002C333D8FCFEF452BE
:1023B90091EE4292E964207015EF540FFEF8740112
:1023C900088002C333D8FCFEF45295EE4296E9FB2D
:1023D9007A0064307015EF540FFEF874010880021A
:1023E900C333D8FCFEF452B1EE42B2EB64404A70FA
:1023F90015EF540FFEF87401088002C333D8FCFEB0
:10240900F452B3EE42B4E964506003022589EF54F3
:102419000FFEF87401088002C333D8FCFEF452C9D8
:10242900022586ED640260030224DDEF54F0F9FB16
:102439007A007015EF540FFEF87401088002C33357
:10244900D8FCFE4293EEF45294EB64104A7015EFF7
:10245900540FFEF87401088002C333D8FCFE429180
:10246900EEF45292E964207015EF540FFEF87401EE
:10247900088002C333D8FCFE4295EEF45296E9FB7C
:102489007A0064307015EF540FFEF8740108800269
:10249900C333D8FCFE42B1EEF452B2EB64404A7049
:1024A90015EF540FFEF87401088002C333D8FCFEFF
:1024B90042B3EEF452B4E964506003022589EF5443
:1024C9000FFEF87401088002C333D8FCFE42C9EE3E
:1024D900F452CA22ED64036003022589EF54F0FD2A
:1024E9007C007014EF540FFEF87401088002C333A6
:1024F900D8FCFE4293EE4294ED64104C7014EF54F4
:102509000FFEF87401088002C333D8FCFE4291EE35
:102519004292EF54F064207014EF540FFEF87401E6
:10252900088002C333D8FCFE4295EE4296EF54F080
:10253900FD7C0064307014EF540FFEF874010880BC
:1025490002C333D8FCFE42B1EE42B2ED64404C7096
:1025590014EF540FFEF87401088002C333D8FCFE4F
:1025690042B3EE42B4EF54F064507014EF540FFECE
:10257900F87401088002C333D8FCFE42C9EE42CA8E
:01258900222F
:0665FE0025640025660083
:0A65A700C2B5C2B3120006D2B5223D
:0A65B100C2B5D2B3120006D2B52223
:0461FB00AD07AC063A
:1061FF00EC900543F0A3EFF0C2B5D2B3900543E0A6
:0E620F00FF120006900544E0FF120006D2B513
:01621D00225E
:10543F0090043CEEF0A3EFF0A3ECF0A3EDF0A3EAA1
:10544F00F0A3EBF07F2A1265A7E4FF1265B1900479
:10545F003CA3E02402FF1265B1E4FF1265B1900492
:10546F0040A3E02402FF1265B17F2B1265A7E4FF72
:10547F001265B190043EA3E004FF1265B1E4FF1280
:10548F0065B1900442A3E004FF1265B17F2C026561
:01549F00A765
:08555B00900529EEF0A3EFF02A
:10556300900442E4F0A3749FF07B7F7A00E4FDFC97
:10557300FFFE12543FE490052BF090052BE0C394FB
:10558300A074809480502BE4A3F090052CE0C39486
:1055930080748094805013900529E0FEA3E0FF12ED
:1055A30061FB90052CE004F080E090052BE004F013
:0255B30080C8AE
:0155B50022D3
:1029C4009004777412F0E4A3F0A3F0A3F07B117DDC
:1029D400107F01123B48C2B27F0A7E0012646AD2A1
:1029E400B27F787E0012646A7F111265A77F787EB9
:1029F4000012646A7FB11265A77F011265B17F2C52
:102A04001265B17F2D1265B17FB21265A77F0112E5
:102A140065B17F2C1265B17F2D1265B17FB312654C
:102A2400A77F011265B17F2C1265B17F2D1265B1AC
:102A34007F011265B17F2C1265B17F2D1265B17FC4
:102A4400B41265A77F071265B17FC01265A77FA284
:102A54001265B17F021265B17F841265B17FC11224
:102A640065A77FC51265B17FC21265A77F0A12658B
:102A7400B1E4FF1265B17FC31265A77F8A1265B105
:102A84007F2A1265B17FC41265A77F8A1265B17F60
:102A9400EE1265B17FC51265A77F0E1265B17F3650
:102AA4001265A7E4701E14600E14600F14601024E5
:102AB4000370117FC0800AE4FF80067FA080027F3C
:102AC400601265B17FE01265A77F0F1265B17F1AAE
:102AD4001265B17F0F1265B17F181265B17F2F1295
:102AE40065B17F281265B17F201265B17F2212651E
:102AF400B17F1F1265B17F1B1265B17F231265B1CF
:102B04007F371265B1E4FF1265B17F071265B17FAB
:102B1400021265B17F101265B17FE11265A77F0FC4
:102B24001265B17F1B1265B17F0F1265B17F171259
:102B340065B17F331265B17F2C1265B17F291265AF
:102B4400B17F2E1265B17F301265B17F301265B14D
:102B54007F391265B17F3F1265B1E4FF1265B17F21
:102B6400071265B17F031265B17F101265B17F2A28
:102B74001265A7E4FF1265B17F021265B1E4FF128A
:102B840065B17F821265B17F2B1265A7E4FF1265E0
:102B9400B17F031265B1E4FF1265B17F831265B1A1
:102BA4007FF01265A77F011265B17FF61265A7E475
:102BB400FF1265B17F3A1265A77F051265B17F29BF
:0A2BC4001265A774FFFFFE02555BC7
:105C2C009004C6EEF0A3EFF09004CAEAF0A3EBF0F8
:105C3C009004C8ECF0A3EDF09004C6E0FAA3E0FBEE
:105C4C00FFAE02C007A3E0FFA3E0900442CFF0A395
:105C5C00EFF0D00712543F9004CAE0FEA3E0FF021D
:025C6C0061FBDA
:06401A00F583E02430FBF9
:10402000900444EEF0A3EFF0A3ECF0A3EDF0A3EBCB
:01403000F09F
:10403100E4A3F0900449E0F9C394107480948040A3
:10404100030240F9E9FF900447E02FFD900446E0A8
:104051003400FC900445E02407FB900444E0340064
:10406100FA7E00900446E0F8A3E02FFFEE389004BA
:1040710042F0A3EFF0900444E0FEA3E0FF12543FAE
:10408100900448E0FF3395E0FEEFC4F8540FC86890
:10409100FFEEC454F048FE74962FF58274FE3EF58F
:1040A10083C083C082900449E0D082D0832582F509
:1040B10082E43583F583E49390044BF0E490044A61
:1040C100F090044AE0C39408748094805021A3E0E6
:1040D10030E0067F007EF8800474FFFFFE1261FB72
:1040E10090044BE0C313F090044AE004F080D290B6
:0840F1000449E004F002403430
:0140F90022A4
:10511D0090040FEEF0A3EFF0A3ECF0A3EDF0A3EBF2
:07512D00F0A3EAF0A3E9F092
:10513400E4A3F0A3F0900413E0FBA3E0FAA3E0F9E6
:10514400A3E0FEA3E0FFF5828E831213A5FB603E6D
:10515400EF7803C333CE33CED8F9FF900410E02F99
:10516400FF90040FE03EFE900412E0C4F8540FC810
:1051740068FD900411E0C454F048FC1240209004EF
:0E51840017E004F070AF900416E004F080A76E
:0151920022FA
:10439600900418EEF0A3EFF0A3ECF0A3EDF0A3EB7E
:0143A600F026
:1043A7003395E0C36480948090041BE0C4F8540FF5
:1043B700C868FD90041AE0C454F048FC900418E063
:1043C700FEA3E0FF500E7B2D12402090041CE0F46A
:1043D70004F080057B2012402090041CE0FF75F05C
:1043E7006412136A90041DF0EF75F00A12136AFF46
:1043F70075F00A12136AAFF090041EEFF090041CD8
:10440700E0FF75F00A12136AAFF090041FEFF0E4B3
:10441700A3F0900420E0FBFF7E00C3940374809414
:10442700805045EF2401FFEE33FEEF7803C333CE10
:1044370033CED8F9FF900419E02FFF900418E03E1F
:10444700FE90041BE0C4F8540FC868FD90041AE0FE
:10445700C454F048FC741D2BF582E4340412401A4E
:08446700900420E004F080AA9B
:01446F00222A
:0E502F0090044CEEF0A3EFF0A3ECF0A3EDF034
:10503D00EB75F06484A3F0EB75F00A8475F00A84C7
:10504D00A3E5F0F0EB75F00A84A3E5F0F0E4A3F02E
:10505D00900453E0C3940374809480503BE0FB753F
:10506D00F008A4FF90044DE02FFF90044CE035F0C4
:10507D00FE90044FE0C4F8540FC868FD90044EE054
:10508D00C454F048FC74502BF582E4340412401AD9
:08509D00900453E004F080B818
:0150A50022E8
:1036D400900394EEF0A3EFF0A3ECF0A3EDF0A3EAD3
:0436E400F0A3EBF074
:1036E800C3EA64809480900397E0C4F8540FC868D4
:1036F800FD900396E0C454F048FC900394E0FEA3C8
:10370800E0FF501C7B2D124020900398E0FEA3E0C0
:10371800FFC3E49FFFE49E900398F0A3EFF08005B9
:103728007B20124020900398E0FAA3E0FB7C277DE1
:1037380010FFAE0212146DA3EFF07C037DE8AF0317
:10374800AE0212146D7C007D0A12146DA3EDF09088
:103758000398A3E07C007D64FFAE0212146D7C0028
:103768007D0A12146D90039CEDF07C007D0AAF0376
:10377800AE0212146D7C007D0A12146DA3EDF09058
:103788000398E0FEA3E0FF7C007D0A12146D90030D
:103798009EEDF0E4A3F090039FE0FBFF7E00C3944E
:1037A80005748094805045EF2401FFEE33FEEF78D6
:1037B80003C333CE33CED8F9FF900395E02FFF90A3
:1037C8000394E03EFE900397E0C4F8540FC868FDE8
:1037D800900396E0C454F048FC749A2BF582E434C4
:0C37E8000312401A90039FE004F080AA36
:0137F40022B2
:0E46E5009003F1EEF0A3EFF0A3ECF0A3EDF0E4
:1046F3007C277D10AF03AE02121418A3EFF07C03E6
:104703007DE8AF03AE021214187C007D0A12141860
:10471300A3EDF07C007D64AF03AE021214187C009D
:104723007D0A121418A3EDF07C007D0AAF03AE02DC
:104733001214187C007D0A121418A3EDF0AE02AF18
:10474300037C007D0A121418A3EDF0E4A3F0900398
:10475300FAE0C3940574809480503BE0FB75F00845
:10476300A4FF9003F2E02FFF9003F1E035F0FE90F9
:1047730003F4E0C4F8540FC868FD9003F3E0C45495
:10478300F048FC74F52BF582E4340312401A9003CD
:06479300FAE004F080B81A
:0147990022FD
:0E3D54009002B7EEF0A3EFF0A3ECF0A3EDF0B9
:103D62009002BFE0FFC3740A9F7480F898500374F6
:103D72000AF09002BFE004F09002BBE0FCA3E0FD79
:103D8200A3E0FEA3E0FFE4FBFAF9F8D312163240F7
:103D9200319001D174FFF0A37465F0A374FEF0902A
:103DA20002BBE0FCA3E0FDA3E0FEA3E0FF9001D490
:103DB20012168C0B7A0279C0121D379002E2EFF0D4
:103DC20080389002C07420F09001D174FFF0A37487
:103DD20065F0A374FEF09002BBE0FCA3E0FDA3E05B
:103DE200FEA3E0FF9001D412168C7B017A0279C106
:103DF200121D379002E2EFF0801E9002BFE0FF90AA
:103E020002E2E0FEC39F501574C02EF582E4340234
:103E1200F5837420F09002E2E004F080DD74C02F9C
:103E2200F582E43402F583E4F09002B7E0FEA3E009
:103E3200FFA3E0FCA3E0FD7B017A0279C002511DE1
:0E31100090022AEEF0A3EFF0A3ECF0A3EDF096
:10311E00900233E0FFC374069F7480F898500374D6
:10312E0006F0900232E0FFC3740A9F7480F8985044
:10313E0003740AF090022EE0FCA3E0FDA3E0FEA3D0
:10314E00E0FFE4FBFAF9F812113C9001D160314036
:10315E002F74FFF0A37466F0A37401F090022EE0BA
:10316E00FCA3E0FDA3E0FEA3E0FF9001D412168CB9
:10317E007B017A027935121D37900234EFF08030E0
:10318E0074FFF0A37466F0A37401F090022EE0FCBD
:10319E00A3E0FDA3E0FEA3E0FF9001D412168C7B0A
:1031AE00017A027936121D37900234EFF0E004F006
:1031BE00900234E024F9FD900232E0FEC3ED9E143D
:1031CE00900257F0900233E0AE052E04900258F0B4
:1031DE00900257E0FF3395E0FED3E49FEE6480F853
:1031EE007480984022A3E0FF3395E0FE74352FF5EE
:1031FE008274023EF5837420F0900258E004F09041
:10320E000257E004F080C990022EE0FCA3E0FDA37B
:10321E00E0FEA3E0FFE4FBFAF9F812113C9002572E
:10322E0060174015E0FF3395E0FE74352FF582747C
:10323E00023EF583742DF08013E0FF3395E0FE74AB
:10324E00352FF58274023EF5837420F0900258E01B
:10325E00FF3395E0FE74352FF58274023EF583E45C
:10326E00F090022AE0FEA3E0FFA3E0FCA3E0FD7BCA
:08327E00017A02793502511DAD
:0B3916009003D0EBF0A3EAF0A3E9F06F
:1039210074FFFFFE12555BE49003D7F0A3F0E4901F
:1039310003D5F0A3F09003D5E0FAA3E0FB7C007D72
:1039410028FFAE02121406C006C007A3E0FEA3E0E2
:10395100FF121406C006C007AF03AE02121406EF31
:103961002427FBE43EFA9003D7E0FEA3E0FF121404
:1039710006EF2427FFE43E900442F0A3EFF0D005C8
:10398100D004D007D00612543FE49003D3F0A3F043
:103991009003D4E025E0FF9003D3E033FE9003D001
:1039A100E0FBA3E0FAA3E0F98F828E831213A590C6
:1039B10003DAF0E92FF9EA3EFA9000011213A5901B
:1039C10003D9F0FEA3E0FDEDFF1261FB9003D4E00B
:1039D10004F070069003D3E004F0C39003D4E094A4
:1039E100409003D3E06480948640A59003D6E00420
:1039F100F070069003D5E004F0C39003D6E0940381
:103A01009003D5E06480948050030239369003D846
:103A1100E004F070069003D7E004F0C39003D8E00F
:0F3A210094049003D7E064809480500302392FFF
:013A30002273
:10009600000000000000000000000000000000005A
:1000A6000000000808080808080800000808000002
:1000B6000048242412000000000000000000000098
:1000C6000000004848487E2424247E24242400007E
:1000D6000000103C5252121C30505052523C10102C
:1000E600000000222515150D2A58545452220000EE
:1000F6000000000C1212120A76252919916E0000D2
:1001060000060404020000000000000000000000D9
:1001160000402010100808080808081010204000A9
:10012600000204080810101010101008080402003D
:100136000000000008086B1C1C6B0808000000008B
:100146000000000000101010FE101010000000004B
:100156000000000000000000000000000604040289
:1001660000000000000000007E000000000000000B
:10017600000000000000000000000000060600006D
:100186000000402020201010080808040402020085
:100196000000001824424242424242422418000013
:1001A600000000101C10101010101010107C000021
:1001B6000000003C4242424020100804427E0000FB
:1001C6000000003C4242402018204042423C0000D1
:1001D60000000020303028242422FE2020F80000D1
:1001E6000000007E0202021E22404042221C000045
:1001F600000000182402023A4642424244380000F7
:100206000000007E422020101008080808080000A0
:100216000000003C4242422418244242423C000074
:100226000000001C22424242625C4040241800004A
:100236000000000000001818000000001818000058
:100246000000000000000008000000000008080888
:10025600000000402010080402040810204000009E
:100266000000000000007E00007E0000000000008C
:1002760000000002040810204020100804020000BC
:100286000000003C424246201010100018180000E2
:100296000000001C225A55555555553A423C00005F
:1002A6000000000808181414243C224242E700000B
:1002B6000000001F2222221E22424242221F00006C
:1002C6000000007C4242010101010142221C0000A3
:1002D6000000001F2242424242424242221F0000C8
:1002E6000000003F4212121E12120242423F00005C
:1002F6000000003F4212121E121202020207000004
:100306000000003C2222010101712122221C000072
:10031600000000E7424242427E42424242E700007B
:100326000000003E0808080808080808083E000003
:100336000000007C10101010101010101010110F7B
:100346000000007722120A0E0A12122222770000FB
:10035600000000070202020202020202427F0000BF
:100366000000007736363636362A2A2A2A6B0000EF
:10037600000000E346464A4A525252626247000073
:100386000000001C2241414141414141221C000024
:100396000000003F424242423E02020202070000C3
:1003A6000000001C224141414141414D321C600088
:1003B6000000003F4242423E1212222242C7000083
:1003C6000000007C4242020418204042423E0000E7
:1003D6000000007F4908080808080808081C0000F3
:1003E600000000E74242424242424242423C000092
:1003F600000000E7424222242414141808080000D2
:100406000000006B2A2A2A2A2A3614141414000023
:10041600000000E7422424181818242442E70000AC
:10042600000000772222141408080808081C00009F
:100436000000007E2120101008040442423F000004
:100446000078080808080808080808080808780056
:100456000000020404040808081010202020404070
:10046600001E1010101010101010101010101E008A
:10047600001824000000000000000000000000003A
:1004860000000000000000007E00000000000000E8
:100496000006080000000000000000000000000048
:1004A600000000000000001C22302C22326C0000EC
:1004B600000000000302021A26424242261A0000E9
:1004C6000000000000000038440202024438000028
:1004D600000000006040407C4242424262DC000074
:1004E600000000000000003C42427E02423C000048
:1004F600000000003048083E08080808083E0000D2
:10050600000000000000007C22221C023C42423C0B
:10051600000000000302023A4642424242E700005F
:100526000000000C0C00000E08080808083E000039
:100536000000003030000038202020202020221E1D
:100546000000000003020272120A0E122277000057
:10055600000000080E08080808080808083E000001
:10056600000000000000007F9292929292B7000075
:10057600000000000000003B4642424242E7000005
:10058600000000000000003C42424242423C0000A3
:10059600000000000000001B26424242261A020705
:1005A600000000000000005864424242645840E0E7
:1005B60000000000000000774C040404041F000043
:1005C600000000000000007C42023C40423E000069
:1005D600000000000008083E08080808483000002F
:1005E60000000000000000634242424262DC00005C
:1005F6000000000000000077222214140808000002
:1006060000000000000000DB91525A2A242400005A
:10061600000000000000006E241818182476000060
:1006260000000000000000E742242418180808060D
:10063600000000000000007E22100808447E000032
:1006460000C0202020202020102020202020C000B4
:100656001010101010101010101010101010101094
:10066600000304040404040408040404040403004A
:10067600045A2000000000000000000000000000F6
:100686000000000000000000002F0000000007002E
:10069600070000147F147F1400242A7F2A120062A8
:1006A6006408132300364955225000000503000054
:1006B60000001C224100000041221C000014083EDC
:1006C60008140008083E0808000000A060000008A2
:1006D60008080808000060600000002010080402F6
:1006E600003E5149453E0000427F400000426151B4
:1006F6004946002141454B31001814127F1000274E
:1007060045454539003C4A49493000017109050310
:1007160000364949493600064949291E0000363641
:1007260000000000563600000008142241000014A4
:100736001414141400004122140800020151090681
:1007460000324959513E007C1211127C007F494902
:100756004936003E41414122007F4141221C007F33
:1007660049494941007F09090901003E4149497A41
:10077600007F0808087F0000417F410000204041BB
:100786003F01007F08142241007F40404040007F27
:10079600020C027F007F0408107F003E4141413E6B
:1007A600007F09090906003E4151215E007F0919B3
:1007B60029460046494949310001017F0101003FB0
:1007C6004040403F001F2040201F003F4038403F30
:1007D6000063140814630007087008070061514994
:1007E600454300007F41410000552A552A55000027
:1007F60041417F00000402010204004040404040A5
:10080600000001020400002054545478007F48443C
:10081600443800384444442000384444487F003873
:100826005454541800087E0901020018A4A4A47C9C
:10083600007F080404780000447D40000040808466
:100846007D00007F102844000000417F4000007CAE
:1008560004180478007C08040478003844444438BA
:1008660000FC242424180018242418FC007C080406
:10087600040800485454542000043F444020003CDF
:100886004040207C001C2040201C003C4030403C66
:10089600004428102844001CA0A0A07C00446454F6
:1008A6004C4414141414141400000000000000003A
:1008B6000000000000000000000000F8000000003A
:1008C600000000333000000000100C06100C06007B
:1008D600000000000000000040C07840C0784000E2
:1008E600043F04043F040400007088FC0830000044
:1008F600001820FF211E0000F008F000E01800009C
:1009060000211C031E211E0000F008887000000054
:100916001E2123241927211010160E0000000000A6
:100926000000000000000000000000E018040200C3
:10093600000000071820400000020418E000000034
:100946000040201807000000404080F08040400032
:100956000202010F01020200000000F00000000088
:100966000101011F0101010000000000000000005C
:1009760080B07000000000000000000000000000D1
:10098600000101010101010100000000000000005A
:1009960000303000000000000000000080601804F5
:1009A600006018060100000000E010080810E000D2
:1009B600000F102020100F00001010F8000000009B
:1009C6000020203F202000000070080808887000E2
:1009D6000030282422213000003008888848300062
:1009E6000018202020110E000000C02010F8000082
:1009F60000070424243F240000F80888880808001B
:100A06000019212020110E0000E01088881800002F
:100A1600000F112020110E0000380808C838080001
:100A26000000003F00000000007088080888700081
:100A3600001C222121221C0000E010080810E00002
:100A46000000312222110F00000000C0C00000008B
:100A560000000030300000000000008000000000B0
:100A660000008060000000000000804020100800A8
:100A76000001020408102000404040404040400071
:100A8600040404040404040000081020408000004C
:100A96000020100804020100007048080808F00051
:100AA6000000003036010000C030C828E810E00021
:100AB6000718272423140B000000C038E0000000AC
:100AC600203C23020227382008F888888870000016
:100AD600203F202020110E00C030080808083800EA
:100AE600071820202010080008F808080810E00061
:100AF600203F202020100F0008F88888E808100002
:100B0600203F20202320180008F88888E8081000D5
:100B1600203F200003000000C0300808083800000D
:100B260007182020221E020008F808000008F8080E
:100B3600203F210101213F20000808F80808000095
:100B46000020203F2020000000000808F8080800C8
:100B5600C08080807F00000008F888C02818080040
:100B6600203F20012638200008F808000000000079
:100B7600203F20202020300008F8F800F8F8080070
:100B8600203F003F003F200008F830C00008F8086A
:100B9600203F200007183F00E01008080810E0007A
:100BA6000F10202020100F0008F808080808F00091
:100BB600203F210101010000E01008080810E000B4
:100BC6000F18242438504F0008F888888888700049
:100BD600203F2000030C30200070880808083800E9
:100BE6000038202121221C00180808F808081800DF
:100BF6000000203F2000000008F808000008F80860
:100C0600001F202020201F000878880000C8380810
:100C1600000007380E010000F80800F80008F80088
:100C2600033C0700073C0300081868808068180822
:100C360020302C03032C30200838C800C8380800A0
:100C46000000203F2000000010080808C8380800EF
:100C56002038262120201800000000FE0202020093
:100C66000000007F40404000000C30C00000000043
:100C7600000000010638C00000020202FE0000006B
:100C8600004040407F000000000004020202040011
:100C9600000000000000000000000000000000004E
:100CA6008080808080808080000202040000000036
:100CB600000000000000000000008080808000002E
:100CC6000019242222223F2008F80080800000001C
:100CD600003F112020110E000000008080800000DF
:100CE600000E112020201100000000808088F800EE
:100CF600000E112020103F20000080808080000020
:100D0600001F222222221300008080F08888881883
:100D16000020203F2020000000008080808080008E
:100D2600006B94949493600008F800808080000023
:100D3600203F210000203F200080989800000000FE
:100D46000020203F2020000000000080989800002E
:100D560000C08080807F000008F80000808080004E
:100D6600203F24022D302000000808F80000000073
:100D76000020203F2020000080808080808080002E
:100D8600203F20003F20003F8080008080800000C0
:100D9600203F210000203F2000008080808000004E
:100DA600001F202020201F0080800080800000007F
:100DB60080FFA12020110E000000008080808000AE
:100DC600000E112020A0FF8080808000808080009F
:100DD60020203F21200001000000808080808000CC
:100DE6000033242424241900008080E08080000041
:100DF6000000001F2020000080800000008080008E
:100E0600001F202020103F208080800000808080EE
:100E160000010E300806010080800080008080807E
:100E26000F300C030C300F000080800080808000A3
:100E36000020312E0E3120008080800000808080CE
:100E460080818E701806010000808080808080007E
:100E56000021302C2221300000000000807C02029C
:100E660000000000003F404000000000FF000000BE
:100E760000000000FF0000000002027C800000006D
:100E86000040403F00000000000601010202040489
:080E9600000000000000000054
:10616800E4900551F0900551E064126017E4FB7D5E
:10617800757F69125D6F900551EFF07F0A7E0012FE
:04618800646A80E1E4
:01618C0022F0
:1053D9007F0A7E0012646A1261687B807D6B7F6937
:1053E9001263777F027E0012646AE4FB7D6B7F693A
:1053F900125D6FEF20E7F37B017D6B7F69126377A5
:10540900E4FB7D6C7F691263777B017D1A7F6912EA
:1054190063777B077D197F691263777B187D1B7F13
:10542900691263777B107D1C7F691263777B037D2B
:065439001D7F690263778C
:105758007B017A0479CC9004957406F0E4A3F07D7B
:105768003B7F69124F3E9004CCE0FEA3E0FDEDFFC5
:105778009003A0EEF0A3EFF09004CEE0FEA3E0FDCE
:10578800EDFF9003A2EEF0A3EFF09004D0E0FEA3AB
:0C579800E0FDEDFF9003A4EEF0A3EFF0A5
:0157A40022E2
:1057A5007B017A0479D29004957406F0E4A3F07D28
:1057B500437F69124F3E9004D2E0FEA3E0FDEDFF6A
:1057C5009003A6EEF0A3EFF09004D4E0FEA3E0FD75
:1057D500EDFF9003A8EEF0A3EFF09004D6E0FEA352
:0C57E500E0FDEDFF9003AAEEF0A3EFF052
:0157F1002295
:0660CE00C2A7EF4480FFB1
:1060D400E4FEEEC39408748094805015EF3392A3C9
:1060E400EF25E0FFC2A5D2A5A2A4E4334FFF0E80A2
:0160F400E1CA
:0160F5002288
:0D001600C2A71260D4AF051260D4D2A72299
:0F6589001260CEE4FF1260D4EF1213D2D2A72219
:0B5CF100900514EBF0A3EAF0A3E9F02B
:105CFC001260CEE4FDFC900517E0FFC3ED9FEC9421
:105D0C0000501FE4FF1260D4900514E0FBA3E0FAEE
:105D1C00A3E0F98D828C83EF1213E40DBD00010C0E
:045D2C0080D4D2A7A6
:015D30002250
:10647E007B017A0579527F75126589900552E06429
:03648E001270ED9C
:0164910022E8
:10560F0012647E7D807F6B1200167F027E00126413
:10561F006A7B017A0579537F6B126589900553E098
:10562F00644170ED7D017F6B1200161D7F6C1200BF
:10563F00160D7F1A1200167D077F191200167D189E
:10564F007F1B1200167D107F1C1200167D037F1D1D
:03565F0002001630
:1059B2007B017A0479D89005177406F07F3B125C5C
:1059C200F19004D8E0FEA3E0FDEDFF9003A0EEF01D
:1059D200A3EFF09004DAE0FEA3E0FDEDFF9003A256
:1059E200EEF0A3EFF09004DCE0FEA3E0FDEDFF900B
:0759F20003A4EEF0A3EFF0A7
:0159F900228B
:1059FA007B017A0479DE9005177406F07F43125C06
:105A0A00F19004DEE0FEA3E0FDEDFF9003A6EEF0C8
:105A1A00A3EFF09004E0E0FEA3E0FDEDFF9003A801
:105A2A00EEF0A3EFF09004E2E0FEA3E0FDEDFF90BC
:075A3A0003AAEEF0A3EFF058
:015A41002242
:0E651800EBF0A3EAF0A3E9F0C2A7EF4480FF86
:036526000200066A
:10002600900554EDF0C2A7126526900554E0FF1224
:050036006526D2A7229F
:10633D00900530126518E4FF126526900530E0FBDC
:0D634D00A3E0FAA3E0F9EF1213D2D2A722C9
:0356B50090048AD4
:1056B800126518E490048EF0A3F090048DE0FFC307
:1056C80090048FE09F90048EE09400502FE4FF1226
:1056D800652690048AE0FBA3E0FAA3E0F990048E23
:1056E800E0FCA3E0F5828C83EF1213E490048FE0D2
:0E56F80004F070C690048EE004F080BED2A7CD
:015706002280
:10621E00E4900555F0900555E0641260147B017A08
:10622E000579557F7512633D7F0A7E0012646A8080
:01623E00E47B
:01623F00223C
:10519300E4900556F07F0AFE12646A900477741255
:1051A300F0E4A3F0A3F0A3F07B117D107F01123B89
:1051B3004812621E7D807F6B1200267F027E0012E2
:1051C300646A7B017A0579567F6B12633D900556BD
:1051D300E0644170ED7D017F6B120026E4FD7F6C7E
:1051E3001200267D017F1A1200267D077F19120007
:1051F300267D187F1B1200267D107F1C1200267D42
:06520300037F1D020026DE
:105A42007B017A0479E490048D7406F07F3B125650
:105A5200B59004E4E0FEA3E0FDEDFF9003A0EEF0BC
:105A6200A3EFF09004E6E0FEA3E0FDEDFF9003A2B9
:105A7200EEF0A3EFF09004E8E0FEA3E0FDEDFF906E
:075A820003A4EEF0A3EFF016
:015A890022FA
:105A8A007B017A0479EA90048D7406F07F431256FA
:105A9A00B59004EAE0FEA3E0FDEDFF9003A6EEF068
:105AAA00A3EFF09004ECE0FEA3E0FDEDFF9003A865
:105ABA00EEF0A3EFF09004EEE0FEA3E0FDEDFF9020
:075ACA0003AAEEF0A3EFF0C8
:015AD10022B2
:01004100229C
:07642900C2A5126430D2A5E8
:0E6430007F147E00EF1FAC0670011E4C70F64C
:01643E00223B
:0F659800D2A3D2A5126430C2A3126430C2A522CE
:0A65BB00C2A3126429D2A3026430C7
:1063AE00AD07C2A5126430ED6004C2A38002D2A371
:0A63BE00D2A5126430C2A5026430BB
:10643F0012642930A306C2A5E4FEFF22C2A512648E
:06644F00307E007F0122F7
:0460F600E025E0FFC2
:0260FA00AD07F0
:1060FC007B08AF031BEF6015ED30E704D2A38002E1
:10610C00C2A3ED25E0FD12642BC2A580E502643F1D
:025E8800AD0764
:105E8A00E4FBC2A5126430D2A3E4FAEAC39408740C
:105E9A008094805011126430126429EB25E0FB30A3
:105EAA00A3010B0A80E5C2A5126430AF051263AEE6
:025EBA00AF0334
:015EBC0022C3
:10637700900557EFF0AA03A9051265981260F6AFCA
:0C638700011260FAAF021260FA0265BB5E
:095D6F00900558EDF0AA07A90304
:105D7800126598EA25E0FF1260FAE0FF1260FAE97E
:105D8800640170031265BB126598AF02EF25E04409
:105D980001FF1260FAE4FF125E88AD071265BBAF1F
:015DA80005F5
:015DA90022D7
:104F3E00900490EFF0A3EDF0A3EBF0A3EAF0A3E959
:104F4E00F01265989004901260F6A3E0FF1260FADA
:104F5E00900496E0640170031265BB12659890048C
:104F6E0090E025E04401FF1260FA900495E014F001
:104F7E0060207F01125E88900492E0FBA3E0FAA30A
:104F8E00E0F9EF1213D2900493E475F0011214A31A
:104F9E0080D8E4FF125E88900492E0FBA3E0FAA3AF
:094FAE00E0F9EF1213D20265BB19
:10654B007D017F0E1258D77D0A7C00E4FF0241DAF1
:104AE100900519EBF0A3EAF0A3E9F0900518EFF0B7
:104AF100E490051CF0FD12589B900518E0FF7DFF26
:104B010012589B900518E0FF7D0112589B900518E3
:104B1100E0FFE4FD12589BE490051CF090051CE0B9
:104B2100FFC3948074809480504C900519E0FBA3DE
:104B3100E0FAA3E0F975F002EFA4F58285F08312A3
:104B410014CF7D00900518E0FF12589B900519E0E5
:104B5100FBA3E0FAA3E0F9A3E075F002A4F58285D6
:104B6100F0831214CFFD900518E0FF12589B9005B9
:064B71001CE004F080A628
:014B7700221B
:105B1900E4900559F0D2A0C2A1C2A0D2A1D2A0C2DC
:105B2900A1F0900559E0C39480748094805027C2F5
:105B3900A0E4FD7F0E125FAC900559E025E0240139
:105B4900F582E43400F583EEF0A3EFF0D2A09005DE
:065B590059E004F080CCCD
:015B5F002223
:066604002564002566007C
:0A65C500C2B5C2B3120006D2B5221F
:0A65CF00C2B5D2B3120006D2B52205
:075FD7002428FFE03400FE66
:045FDE00AD07AC0659
:105FE200EC900545F0A3EFF0C2B5D2B3900545E0C1
:0E5FF200FF120006900546E0FF120006D2B531
:01600000227D
:10356E009004777412F0E4A3F0A3F0A3F07B117D26
:10357E00107F01123B48D2B6C2B3C2B27FC87E00E2
:10358E0012646AD2B27F647E0012646A7F3612655C
:10359E00C57FA01265CF7F3A1265C57F051265CF34
:1035AE007FB21265C57F0C1265CF7F0C1265CFE41A
:1035BE00FF1265CF7F331265CF7F331265CF7FB792
:1035CE001265C57F351265CF7FBB1265C57F371279
:1035DE0065CF7FC01265C57F2C1265CF7FC2126585
:1035EE00C57F011265CF7FC31265C57F121265CFED
:1035FE007FC41265C57F201265CF7FC61265C57F59
:10360E000F1265CF7FD01265C57FA41265CF7FA143
:10361E001265CF7FE01265C57FD01265CF7F041291
:10362E0065CF7F0D1265CF7F111265CF7F131265A7
:10363E00CF7F2B1265CF7F3F1265CF7F541265CFA0
:10364E007F4C1265CF7F181265CF7F0D1265CF7F2D
:10365E000B1265CF7F1F1265CF7F231265CF7FE1DF
:10366E001265C57FD01265CF7F041265CF7F0C1215
:10367E0065CF7F111265CF7F131265CF7F2C126538
:10368E00CF7F3F1265CF7F441265CF7F511265CF3A
:10369E007F2F1265CF7F1F1265CF7F1F1265CF7FE1
:1036AE00201265CF7F231265CF7F211265C57F1152
:1036BE001265C57F787E0012646A7F291265C57413
:0636CE00FFFFFE0253683D
:10570700900454EEF0A3EFF0A3ECF0A3EDF0A3EABE
:10571700F0A3EBF07F2A1265C5900455E09004547E
:10572700125FD7900459E0900458125FD77F2B126D
:1057370065C5900457E02434FF900456125FDA9051
:10574700045BE02434FF90045A125FDA7F2C026571
:01575700C58C
:085368009004F6EEF0A3EFF053
:1053700090045AE4F0A37486F07BEF7A00E4FDFC1D
:10538000FFFE125707E49004F8F0A3F0E49004FA4B
:10539000F0A3F09004F6E0FEA3E0FF125FDE9004BD
:1053A000FBE004F070069004FAE004F0C39004FB04
:1053B000E094879004FAE0940040D89004F9E00467
:1053C000F070069004F8E004F0C39004F9E094F063
:0853D0009004F8E0940040B4E1
:0153D80022B2
:105C6E009004FCEEF0A3EFF0900500EAF0A3EBF049
:105C7E009004FEECF0A3EDF09004FCE0FAA3E0FB40
:105C8E00FFAE02C007A3E0FFA3E090045ACFF0A33B
:105C9E00EFF0D007125707900500E0FEA3E0FF02D9
:025CAE005FDEB7
:0640FA00F583E02430FB19
:1041000090045CEEF0A3EFF0A3ECF0A3EDF0A3EBD2
:01411000F0BE
:10411100E4A3F0900461E0F9C394107480948040AA
:10412100030241D9E9FF90045FE02FFD90045EE0B6
:104131003400FC90045DE02407FB90045CE0340053
:10414100FA7E0090045EE0F8A3E02FFFEE389004C1
:104151005AF0A3EFF090045CE0FEA3E0FF125707D2
:10416100900460E0FF3395E0FEEFC4F8540FC86897
:10417100FFEEC454F048FE74962FF58274FE3EF5AE
:1041810083C083C082900461E0D082D0832582F510
:1041910082E43583F583E493900463F0E490046250
:1041A100F0900462E0C39408748094805021A3E0ED
:1041B10030E0067F007EF8800474FFFFFE125FDEB0
:1041C100900463E0C313F0900462E004F080D290A5
:0841D1000461E004F002411456
:0141D90022C3
:10520900900421EEF0A3EFF0A3ECF0A3EDF0A3EBF3
:07521900F0A3EAF0A3E9F0A5
:10522000E4A3F0A3F0900425E0FBA3E0FAA3E0F9E7
:10523000A3E0FEA3E0FFF5828E831213A5FB603E80
:10524000EF7803C333CE33CED8F9FF900422E02F9A
:10525000FF900421E03EFE900424E0C4F8540FC8FF
:1052600068FD900423E0C454F048FC12410090040F
:0E52700029E004F070AF900428E004F080A75D
:01527E00220D
:1044700090042AEEF0A3EFF0A3ECF0A3EDF0A3EB91
:01448000F04B
:104481003395E0C36480948090042DE0C4F8540F08
:10449100C868FD90042CE0C454F048FC90042AE064
:1044A100FEA3E0FF500E7B2D12410090042EE0F49C
:1044B10004F080057B2012410090042EE0FF75F08E
:1044C1006412136A90042FF0EF75F00A12136AFF59
:1044D10075F00A12136AAFF0900430EFF090042ED9
:1044E100E0FF75F00A12136AAFF0900431EFF0E4C7
:1044F100A3F0900432E0FBFF7E00C3940374809428
:10450100805045EF2401FFEE33FEEF7803C333CE35
:1045110033CED8F9FF90042BE02FFF90042AE03E20
:10452100FE90042DE0C4F8540FC868FD90042CE0FF
:10453100C454F048FC742F2BF582E434041240FA81
:08454100900432E004F080AAAE
:01454900224F
:0E50A600900464EEF0A3EFF0A3ECF0A3EDF0A5
:1050B400EB75F06484A3F0EB75F00A8475F00A8450
:1050C400A3E5F0F0EB75F00A84A3E5F0F0E4A3F0B7
:1050D40090046BE0C3940374809480503BE0FB75B0
:1050E400F008A4FF900465E02FFF900464E035F01D
:1050F400FE900467E0C4F8540FC868FD900466E0AD
:10510400C454F048FC74682BF582E434041240FA69
:0851140090046BE004F080B888
:01511C002270
:1037F5009003ACEEF0A3EFF0A3ECF0A3EDF0A3EA99
:04380500F0A3EBF051
:10380900C3EA648094809003AFE0C4F8540FC86899
:10381900FD9003AEE0C454F048FC9003ACE0FEA375
:10382900E0FF501C7B2D1241009003B0E0FEA3E0A5
:10383900FFC3E49FFFE49E9003B0F0A3EFF080057F
:103849007B201241009003B0E0FAA3E0FB7C277DC6
:1038590010FFAE0212146DA3EFF07C037DE8AF03F5
:10386900AE0212146D7C007D0A12146DA3EDF09066
:1038790003B0A3E07C007D64FFAE0212146D7C00EE
:103889007D0A12146D9003B4EDF07C007D0AAF033C
:10389900AE0212146D7C007D0A12146DA3EDF09036
:1038A90003B0E0FEA3E0FF7C007D0A12146D9003D3
:1038B900B6EDF0E4A3F09003B7E0FBFF7E00C394FC
:1038C90005748094805045EF2401FFEE33FEEF78B4
:1038D90003C333CE33CED8F9FF9003ADE02FFF9069
:1038E90003ACE03EFE9003AFE0C4F8540FC868FD96
:1038F9009003AEE0C454F048FC74B22BF582E43472
:0C390900031240FA9003B7E004F080AA1B
:01391500228F
:0E479A009003FBEEF0A3EFF0A3ECF0A3EDF024
:1047A8007C277D10AF03AE02121418A3EFF07C0330
:1047B8007DE8AF03AE021214187C007D0A121418AB
:1047C800A3EDF07C007D64AF03AE021214187C00E8
:1047D8007D0A121418A3EDF07C007D0AAF03AE0227
:1047E8001214187C007D0A121418A3EDF0AE02AF63
:1047F800037C007D0A121418A3EDF0E4A3F09004E2
:1048080004E0C3940574809480503BE0FB75F00885
:10481800A4FF9003FCE02FFF9003FBE035F0FE902F
:1048280003FEE0C4F8540FC868FD9003FDE0C454CB
:10483800F048FC74FF2BF582E434031240FA90042C
:0648480004E004F080B85A
:01484E002247
:0E3E42009002E3EEF0A3EFF0A3ECF0A3EDF09E
:103E50009002EBE0FFC3740A9F7480F898500374DB
:103E60000AF09002EBE004F09002E7E0FCA3E0FD32
:103E7000A3E0FEA3E0FFE4FBFAF9F8D31216324008
:103E8000319001D174FFF0A37466F0A37404F09034
:103E900002E7E0FCA3E0FDA3E0FEA3E0FF9001D475
:103EA00012168C0B7A0279EC121D3790030EEFF08C
:103EB00080389002EC7420F09001D174FFF0A3746C
:103EC00066F0A37404F09002E7E0FCA3E0FDA3E039
:103ED000FEA3E0FF9001D412168C7B017A0279EDEB
:103EE000121D3790030EEFF0801E9002EBE0FF9062
:103EF000030EE0FEC39F501574EC2EF582E43402ED
:103F0000F5837420F090030EE004F080DD74EC2F54
:103F1000F582E43402F583E4F09002E3E0FEA3E0EE
:103F2000FFA3E0FCA3E0FD7B017A0279EC025209D9
:0E328600900259EEF0A3EFF0A3ECF0A3EDF0F0
:10329400900262E0FFC374069F7480F89850037430
:1032A40006F0900261E0FFC3740A9F7480F898509E
:1032B40003740AF090025DE0FCA3E0FDA3E0FEA32A
:1032C400E0FFE4FBFAF9F812113C9001D1603140BF
:1032D4002F74FFF0A37466F0A37407F090025DE00E
:1032E400FCA3E0FDA3E0FEA3E0FF9001D412168C42
:1032F4007B017A027964121D37900263EFF080300B
:1033040074FFF0A37466F0A37407F090025DE0FC10
:10331400A3E0FDA3E0FEA3E0FF9001D412168C7B92
:10332400017A027965121D37900263EFF0E004F030
:10333400900263E024F9FD900261E0FEC3ED9E1467
:10334400900286F0900262E0AE052E04900287F0AF
:10335400900286E0FF3395E0FED3E49FEE6480F8AC
:103364007480984022A3E0FF3395E0FE74642FF547
:103374008274023EF5837420F0900287E004F0909A
:103384000286E004F080C990025DE0FCA3E0FDA3A6
:10339400E0FEA3E0FFE4FBFAF9F812113C90028688
:1033A40060174015E0FF3395E0FE74642FF58274D6
:1033B400023EF583742DF08013E0FF3395E0FE7434
:1033C400642FF58274023EF5837420F0900287E046
:1033D400FF3395E0FE74642FF58274023EF583E4B6
:1033E400F0900259E0FEA3E0FFA3E0FCA3E0FD7B24
:0833F400017A0279640252091A
:10600100E4FB7D6B7F681263777B077D197F6812E4
:106011006377E4FB7D197F68125D6FEF64076009A8
:0A6021007F017E0012646A80E9220C
:105969007F647E0012646A126001E4FB7D6B7F68CC
:105979001263777B077D197F681263777B047D1A31
:105989007F681263777B187D1B7F681263777B10B2
:105999007D1C7F68126377E4FB7D6A7F68126377F9
:0959A9007B027D377F6802637701
:1057F2007B017A0579029004957406F0E4A3F07DAA
:105802003B7F68124F3E900502E0FEA3E0FDEDFFF4
:105812009003B8EEF0A3EFF0900504E0FEA3E0FDE4
:10582200EDFF9003BAEEF0A3EFF0900506E0FEA3C1
:0C583200E0FDEDFF9003BCEEF0A3EFF0F2
:01583E002247
:10583F007B017A0579089004957406F0E4A3F07D56
:10584F00437F68124F3E900508E0FEA3E0FDEDFF99
:10585F009003BEEEF0A3EFF090050AE0FEA3E0FD8B
:10586F00EDFF9003C0EEF0A3EFF090050CE0FEA368
:0C587F00E0FDEDFF9003C2EEF0A3EFF09F
:01588B0022FA
:0A65D9002D00200025640025660057
:05602B00F583E493FF82
:106030007E08C2B5D2B3C2A5AD061EED6014EF3026
:10604000E704D2A38002C2A3D2A5C2A5EF25E0FF38
:0460500080E6D2B55F
:016054002229
:10618D007E06C2B5D2B3C2A5AD061EED6014EF30CA
:10619D00E704D2A38002C2A3D2A5C2A5EF25E0FFDA
:0461AD0080E6D2B501
:0161B10022CB
:085F530054F0C4540F4410FF88
:105F5B007E08C2B5C2B3C2A5AD061EED6014EF300C
:105F6B00E704D2A38002C2A3D2A5C2A5EF25E0FF0E
:045F7B0080E6D2B535
:015F7F0022FF
:104E3C00900497EEF0A3EFF0A3EBF0A3EAF0A3E954
:014E4C00F075
:104E4D0090049D7406F0900499E0FBA3E0FAA3E0B2
:104E5D00F990049DE0F582758300E4804E90049DE9
:104E6D00E0604D14F0900497E0FAA3E0FB7C007D28
:104E7D000AFFAE0212141890049CEDF07C007D0A1E
:104E8D00AF03AE02121418900497EEF0A3EFF0905A
:104E9D00049CE02430FF900499E0FBA3E0FAA3E02A
:104EAD00F990049DE0F582758300EF1213E480AD57
:014EBD0022D2
:1048FB00D2B5D2A5C2B27F327E0012646AD2B27F29
:10490B00AE125F5BE4FF125F5B7F10125F5B7F4059
:10491B00125F5B7F81125F5B7F7F125F5B7FA112F8
:10492B005F5B7FC8125F5B7FA6125F5B7FA8125F26
:10493B005B7F3F125F5B7FD3125F5BE4FF125F5BBA
:10494B007FD5125F5B7F80125F5B7FD9125F5B7FCE
:10495B00F1125F5B7FDA125F5B7F12125F5B7FDBB3
:10496B00125F5B7F40125F5B7F20125F5B7F0212E7
:10497B005F5B7F8D125F5B7F14125F5B7FA4125FA7
:10498B005B7FA6125F5B7FAF125F5BE4FF125E5132
:06499B00E4FDFF0264923E
:10649200AC07ED24B0FF125F5BEC125F53EC540FBC
:0464A200FF025F5B3B
:025E5100AC079C
:105E5300E4FBEBC39408748094805028EB24B0FFD8
:105E6300125F5B7F01125F5B7F10125F5BE4FAEAF4
:105E7300C39480748094805008AF041260300A8009
:045E8300EE0B80CED4
:015E870022F8
:1062C700AA07A905126492E924B0FF125F5BEA12DC
:0E62D7005F53EA540FFF125F5BAF03026030AB
:1062E500AB07AA05126492EA24B0FF125F5BEB12BA
:0E62F5005F53EB540FFF125F5BE4FF0260305B
:104C090090049EEFF0A3EDF0A3EBF0A3EAF0A3E983
:014C1900F0AA
:104C1A00E4A3F0FCA3F09004A0E0FBA3E0FAA3E075
:104C2A00F99004A4E0F5827583001213A5605F244D
:104C3A00E09004A3F090049EE0D3947E7480948064
:104C4A004006E4F0A3E004F090049EE0FFA3E0FD38
:104C5A00126492E4FCECC394067480948050209011
:104C6A0004A3E075F006A42486F582E5F03406F57F
:104C7A0083E5822CF582E4358312602B0C80D69072
:0E4C8A00049EE02406F09004A4E004F080886C
:014C980022F9
:104619009004A5EFF0A3EDF0A3EBF0A3EAF0A3E972
:01462900F0A0
:10462A00E4A3F0FCA3F09004A7E0FBA3E0FAA3E064
:10463A00F99004ABE0F5827583001213A5700302AA
:10464A0046E424E09004AAF09004A5E0D394787498
:10465A008094804006E4F0A3E004F09004A5E0FF13
:10466A00A3E0FD126492E4FCECC394087480948085
:10467A0050209004AAE075F010A42CF582E435F0DD
:10468A00F583E58224AEF582E583340812602B0CAB
:10469A0080D69004A5E0FFA3E004FD126492E4FC36
:1046AA00ECC394087480948050209004AAE075F0BA
:1046BA0010A42CF582E435F0F583E58224B6F58260
:1046CA00E583340812602B0C80D69004A5E02408F8
:0A46DA00F09004ABE004F00246305B
:0146E40022B3
:08611C00900433EFF0A3EDF055
:10612400AE02AF037B017A047935124E3C900433FE
:0E613400E0FFA3E0FD7B017A047936024C09FE
:0E527F009003DBEFF0A3EDF0A3EAF0A3EBF059
:10528D00C3EA6480948050259003DDE0FEA3E0FF27
:10529D00C3E49FFFE49E9003DDF0A3EFF09003DBEA
:1052AD00E0FFA3E0FD7BFF7A6579D9800E9003DBEB
:1052BD00E0FFA3E0FD7BFF7A6579DB124C099003DB
:1052CD00DBE02406F09003DDE0FEA3E0FF7B017A36
:1052DD000379DF124E3C9003DBE0FFA3E0FD7B0181
:0752ED007A0379E0024C098D
:0E3F300090030FEEF0A3EFF0A3ECF0A3EDF082
:103F3E00900317E0FFC3740A9F7480F898500374BF
:103F4E000AF0900317E004F0900313E0FCA3E0FDE9
:103F5E00A3E0FEA3E0FFE4FBFAF9F8D31216324019
:103F6E00319001D174FFF0A37465F0A374DDF0906D
:103F7E000313E0FCA3E0FDA3E0FEA3E0FF9001D459
:103F8E0012168C0B7A037918121D3790033AEFF044
:103F9E0080389003187420F09001D174FFF0A37450
:103FAE0065F0A374DDF0900313E0FCA3E0FDA3E045
:103FBE00FEA3E0FF9001D412168C7B017A037919CF
:103FCE00121D3790033AEFF0801E900317E0FF901A
:103FDE00033AE0FEC39F501574182EF582E43403A5
:103FEE00F5837420F090033AE004F080DD74182F0E
:103FFE00F582E43403F583E4F090030FA3E0FFA30E
:0C400E00A3E0FD7B017A037918024C0945
:0E33FC00900288EEF0A3EFF0A3ECF0A3EDF04A
:10340A00900291E0FFC374069F7480F89850037489
:10341A0006F0900290E0FFC3740A9F7480F89850F7
:10342A0003740AF090028CE0FCA3E0FDA3E0FEA383
:10343A00E0FFE4FBFAF9F812113C9001D160314047
:10344A002F74FFF0A37465F0A374E0F090028CE08F
:10345A00FCA3E0FDA3E0FEA3E0FF9001D412168CCA
:10346A007B017A027993121D37900292EFF0803035
:10347A0074FFF0A37465F0A374E0F090028CE0FC92
:10348A00A3E0FDA3E0FEA3E0FF9001D412168C7B1B
:10349A00017A027994121D37900292EFF0E004F05B
:1034AA00900292E024F9FD900290E0FEC3ED9E1492
:1034BA009002B5F0900291E0AE052E049002B6F0AB
:1034CA009002B5E0FF3395E0FED3E49FEE6480F806
:1034DA007480984022A3E0FF3395E0FE74932FF5A1
:1034EA008274023EF5837420F09002B6E004F090F4
:1034FA0002B5E004F080C990028CE0FCA3E0FDA3D1
:10350A00E0FEA3E0FFE4FBFAF9F812113C9002B5E1
:10351A0060174015E0FF3395E0FE74932FF582742F
:10352A00023EF583742DF08013E0FF3395E0FE74BC
:10353A00932FF58274023EF5837420F09002B6E070
:10354A00FF3395E0FE74932FF58274023EF583E40F
:10355A00F0900288A3E0FFA3A3E0FD7B017A027941
:04356A0093024C0973
:10177B00900350ECF0A3EDF0A3EBF0A3EAF0A3E998
:09178B00F090034EEEF0A3EFF024
:101794007E005407FF90035CEEF0A3EFF070179007
:1017A400034EE0FEA3E07803CEC313CE13D8F9FFB3
:1017B40090035AEE801890034EE0FEA3E07803CE27
:1017C400C313CE13D8F92401FFE43E90035AF0A3C7
:1017D400EFF0E4900356F0A3F090035AE0FEA3E088
:1017E400FF900356E0FCA3E0FDC39FEE6480F8EC99
:1017F4006480984003021D36E4FF126492E4A3F06F
:10180400A3F0900350E0FCA3E0FDC3900359E09DD6
:10181400900358E09C4003021D25E490035EF09081
:10182400035BE024FFFF90035AE034FFFE9003566D
:10183400E0FAA3E0FBC39FEE6480F8EA648098407A
:101844001590035CE0FEA3E0FF4E600AEF9401EE06
:1018540064809480404D90035EE0FFC007AE02EBCD
:101864007803C333CE33CED8F9FF12140690035253
:10187400E0FBA3E0FAA3E02FF9EA3EFA900358E074
:10188400FEA3E029F9EA3EFA12138CFF900355E017
:10189400FEEFD39E40047E0180027E00D0E04E9095
:1018A400035EF090035BE024FFFF90035AE034FFF3
:1018B400FE900356E0FCA3E0FDC39FEE6480F8ECC9
:1018C400648098401590035CE0FEA3E0FF4E600A3C
:1018D400EF9402EE64809480406390035EE0FFC066
:1018E40007AE04ED7803C333CE33CED8F9FF9003AB
:1018F40050E0FCA3E0FD121406A3E0FBA3E0FAA36E
:10190400E02FF9EA3EFA900358E0FEA3E029F9EA51
:101914003EFA900350E0FEA3E029F9EA3EFA1213DE
:101924008CFF900355E0FEEFD39E40047F018002BC
:101934007F00EF25E0FED0E04E90035EF090035B65
:10194400E024FFFF90035AE034FFFE900356E0FCCE
:10195400A3E0FDC39FEE6480F8EC6480984015908A
:10196400035CE0FEA3E0FF4E600AEF9403EE6480A4
:101974009480406C90035EE0FFC007AE04ED7803F2
:10198400C333CE33CED8F9FF900350E0FCA3E0FD7F
:10199400121406A3E0FBA3E0FAA3E02FF9EA3EFA4F
:1019A400900358E0FEA3E029F9EA3EFA900351E0DF
:1019B40025E0FF900350E033FEE92FF9EA3EFA12E6
:1019C400138CFF900355E0FEEFD39E40047F01800B
:1019D400027F00EF25E025E0FED0E04E90035EF0AC
:1019E40090035BE024FFFF90035AE034FFFE900372
:1019F40056E0FCA3E0FDC39FEE6480F8EC6480989D
:101A0400401590035CE0FEA3E0FF4E600AEF9404EF
:101A1400EE64809480406A90035EE0FFC007AE04E9
:101A2400ED7803C333CE33CED8F9FF900350E0FCF6
:101A3400A3E0FD121406A3E0FBA3E0FAA3E02FF950
:101A4400EA3EFA900358E0FEA3E029F9EA3EFA9050
:101A54000350E0FEA3E0F5828E8374031216C912CC
:101A640013A5FF900355E0FEEFD39E40047F018051
:101A7400027F00EF33333354F8FED0E04E90035E20
:101A8400F090035BE024FFFF90035AE034FFFE90E4
:101A94000356E0FCA3E0FDC39FEE6480F8EC648091
:101AA40098401590035CE0FEA3E0FF4E600AEF94BB
:101AB40005EE64809480406D90035EE0FFC007AE45
:101AC40004ED7803C333CE33CED8F9FF900350E04E
:101AD400FCA3E0FD121406A3E0FBA3E0FAA3E02FAD
:101AE400F9EA3EFA900358E0FEA3E029F9EA3EFA47
:101AF400900350E0FEA3E07802C333CE33CED8F98E
:101B040029F9EA3EFA12138CFF900355E0FEEFD355
:101B14009E40047F0180027F00EFC454F0FED0E0B9
:101B24004E90035EF090035BE024FFFF90035AE0C5
:101B340034FFFE900356E0FCA3E0FDC39FEE6480F7
:101B4400F8EC648098401590035CE0FEA3E0FF4E3F
:101B5400600AEF9406EE64809480406990035EE02E
:101B6400FFC007AE04ED7803C333CE33CED8F9FFFC
:101B7400900350E0FCA3E0FD121406A3E0FBA3E0F5
:101B8400FAA3E02FF9EA3EFA900358E0FEA3E02915
:101B9400F9EA3EFA900350E0FEA3E0F5828E8374E6
:101BA400051216C91213A5FF900355E0FEEFD39E4C
:101BB40040047F0180027F00EFC43354E0FED0E094
:101BC4004E90035EF090035BE024FFFF90035AE025
:101BD40034FFFE900356E0FCA3E0FDC39FEE648057
:101BE400F8EC648098401590035CE0FEA3E0FF4E9F
:101BF400600AEF9407EE64809480406A90035EE08C
:101C0400FFC007AE04ED7803C333CE33CED8F9FF5B
:101C1400900350E0FCA3E0FD121406A3E0FBA3E054
:101C2400FAA3E02FF9EA3EFA900358E0FEA3E02974
:101C3400F9EA3EFA900350E0FEA3E0F5828E837445
:101C4400061216C91213A5FF900355E0FEEFD39EAA
:101C540040047F0180027F00EFC4333354C0FED0C0
:101C6400E04E90035EF090035BE024FFFF90035A84
:101C7400E034FFFE900356E0FCA3E0FDC39FEE6456
:101C840080F8EC648098401590035CE0FEA3E0FFCC
:101C94004E600AEF9408EE64809480406B90035E7B
:101CA400E0FFC007AE04ED7803C333CE33CED8F9DA
:101CB400FF900350E0FCA3E0FD121406A3E0FBA395
:101CC400E0FAA3E02FF9EA3EFA900358E0FEA3E01D
:101CD40029F9EA3EFA900350E0FEA3E0F5828E83F0
:101CE40074071216C91213A5FF900355E0FEEFD333
:101CF4009E40047F0180027F00EFC433333354805D
:101D0400FED0E04E90035EF090035EE0FF12603080
:101D1400900359E004F07006900358E004F00218B0
:101D240006900357E004F07006900356E004F002B6
:021D340017DDB9
:011D3600228A
:0B454A0090036FEFF0A3EDF0A3EBF087
:10455500E4900376F0A3F0900375E0FFC390037732
:10456500E09F7480F8900376E064809840030246EB
:1045750018E4900378F0A3F0900371E0FF13131390
:10458500541FFD900378E0FAA3E0FBC39D7480F807
:10459500EA6480985069900376A3E08FF0A4FF90B9
:1045A500036FE02FFFA3E02BFD126492E490037AE2
:1045B500F0A3F0900372E0FBA3E0FAA3E0F9121375
:1045C5008CFF126030900373E475F0011214A39010
:1045D500037BE004F0700690037AE004F0C39003D7
:1045E5007BE0941090037AE06480948040C590034A
:1045F50079E004F07082900378E004F002457D9044
:104605000377E004F0600302455C900376E004F074
:0346150002455CFF
:01461800227F
:0663C800D2A27F017E005D
:1063CE00EF1FAA0670011E4A60087D091DED60F0E0
:0263DE0080FA43
:0163E000229A
:105EF100125F01D2A47F017E001263CEC2A4E4FF2F
:105F0100E4FEEEC39408748094805015EF3392A59B
:105F1100EF25E0FFC2A7D2A7A2A6E4334FFF0E8070
:015F2100E19E
:015F2200225C
:10652900C2A4EF4480FF125F01AF05125F01D2A43C
:01653900223F
:10645500C2A4EF4440FF125F01E4FF125F01EF1297
:0564650013D2D2A422B5
:0261B200AC053A
:1061B400C2A4EF4480FF125F01AF04125EF1AD0789
:1061C400E4FF125F01D2A4AF05EC6F60037F0122EC
:0261D4007F004A
:0161D60022A6
:105F2300900533EBF0A3EAF0A3E9F0C2A4EF4440F9
:105F3300FF125F01E4FF125EF1900533E0FBA3E083
:105F4300FAA3E0F9EF1213D2E4FF125F01D2A42205
:105DAA00900547EEF0A3EFF0C3E49FF074109E90C5
:105DBA000547F0A3E0C4F8540FC868FF900547E010
:105DCA00C454F048F0A3EFF0FDE4FF1261B290056D
:085DDA0047E0FD7F010261B208
:1062A600125EFDAD07ED7D00FCE4FF125F01D2A496
:1062B600AE04EEC4F854F0C868FEEFC4540F48FFAD
:0162C60022B5
:1064A6007B017A05795A7F06125F2390055AE064CC
:0364B6001C70ED6A
:0164B90022C0
:10655B001264A6E4FD7F091261B2E4FFFE025DAA9C
:0E653A00EBF0A3EAF0A3E9F0C2A2EF4440FFA9
:0365480002000648
:1063E10090055BEDF0C2A2EF4480FF126548900575
:0963F1005BE0FF126548D2A22214
:10635A0090053612653AE4FF125F01900536E0FBBC
:0D636A00A3E0FAA3E0F9EF1213D2D2A222B1
:055D3100900549EDF0B2
:105D3600C2A2EF4480FF126548900549E0FF126554
:105D4600481263C8C2A2E4FF12654890054AEFF004
:105D5600E4FF126548D2A290054AE0FF900549E0AB
:085D66006F60037F01227F0042
:015D6E002212
:105F800090053912653AE4FF1265481263C8C2A24F
:105F9000E4FF126548900539E0FBA3E0FAA3E0F9BD
:0C5FA000EF1213D2E4FF126548D2A222D7
:105DE20090054BEEF0A3EFF0C3E49FF074109E9089
:105DF200054BF0A3E0C4F8540FC868FF90054BE0D0
:105E0200C454F048F0A3EFF0FDE4FF125D319005B9
:085E12004BE0FD7F01025D3150
:105CB000E490054DF0A3F0C2A2FF12654890054D97
:105CC000E4F0A3EFF0E0F8E4F0E890054DF0E4FF35
:105CD00012654890054DE0F0A3E04FF0D2A2900588
:105CE0004DE0C4F854F0C868FEA3E0C4540F48FF68
:015CF0002291
:1064BA007B017A05795C7F06125F8090055CE06457
:0364CA001C70ED56
:0164CD0022AC
:106142009004777420F0E4A3F0A3F0A3F07B207D09
:10615200207F02123B481264BAE4FD7F09125D31CE
:06616200E4FFFE025DE215
:1063FA0090046F1216980001C2009004737404F09E
:09640A007B117D107F03022BCEF3
:10484F009004ACEBF0A3EAF0A3E9F0A38062E47F5D
:10485F001EFEFDFC9004AFE0F8A3E0F9A3E0FAA37D
:10486F00E0FBD3121648404D308702804B9004ACCA
:10487F00E0FBA3E0FAA3E0F99004C4E4F0A3741EF4
:10488F00F07F0312607E9004ADE475F01E1214A346
:10489F009004AFE0FCA3E0FDA3E0FEA3E0C3941EF1
:1048AF00FFEE9400FEED9400FDEC9400FC9004AF3D
:1048BF0012168C809930870F9004AFE0FCA3E0FDB7
:1048CF00A3E0FEA3E0FF229004ACE0FBA3E0FAA379
:1048DF00E0F9A3A3A3E0FFA3E09004C4CFF0A3EFFC
:0C48EF00F07F0312607EE4FFFEFDFC225F
:0E4B78009004B3EBF0A3EAF0A3E9F0A3EDF094
:104B860074FFA3F0A3F0E4A3F09004B6E0FF900452
:104B9600B9E0FEC39F50639004B3E0FBA3E0FAA321
:104BA600E0F98E827583001213A5FF9004B7E0F03A
:104BB600A3E06FF0E4FDEDC3940874809480503256
:104BC6009004B7E0FEA3E0FF30E019EEC313FEEF5A
:104BD60013FFEE64A0FEEF6401FF9004B7EEF0A3AE
:104BE600EFF0800B9004B7E0C313F0A3E013F00DD1
:104BF60080C49004B9E004F0808F9004B7E0FEA36F
:024C0600E0FFCD
:014C08002289
:1049A1009003E8ECF0A3EDF0A3EAF0A3EBF09003A1
:0649B100E6EEF0A3EFF0BA
:1049B700E4FC9003EEE0FBA3E0FAA3E0F9EF1213A7
:1049C700D29003E6E0FEEEFF9003EEE0FBA3E0FAF1
:1049D700A3E0F9900001EF1213E49003E8A3E0903D
:1049E70000021213E49003E8E0FEEE9000031213B6
:1049F700E49003EAA3E09000041213E49003EAE0D2
:104A0700FEEE9000051213E49003ECA3E09000067D
:104A17001213E49003ECE0FEEE9000071213E47D1E
:104A270008124B789003EEE0FBA3E0FAA3E0F990BD
:0D4A37000008EF1213E4EE9000090213E4F2
:102F5A00900200E0FBA3E475F0041214B9A9F0FA98
:102F6A0012166C90022512168C900225E0FCA3E042
:102F7A00FDA3E0FEA3E0FF7B017A027904E490035B
:062F8A0042F0A37410F0F8
:102F900090033B12168C90033FEBF0A3EAF0A3E9F9
:012FA000F040
:102FA100E490034CF0A3F0900342E0700302305F21
:102FB10090033BE0FCA3E0FDA3E0FEA3E0FF900350
:102FC1004412168C900344E0FCA3E0FDA3E0FEA3B1
:102FD100E0FFEC335010900344A3A3A3E0121624A6
:102FE10090034412168C900343E0FBE4FAF9F8A332
:102FF100E0FCA3E0FDA3E0FEA3E0FF125BA6EB244F
:1030010030FF90033FE0FBA3E0FAA3E0F9EF1213D6
:10301100D2900344E0FCA3E0FDA3E0FEA3E0FFC0E7
:1030210007900343E0FBE4FAF9F8D007125BA6909E
:10303100034412168C90034DE004F0900344E0FC2D
:10304100A3E0FDA3E0FEA3E0FFEC4D4E4F700302B1
:10305100310A900340E475F0011214A380889003B3
:103061003BE0FCA3E0FDA3E0FEA3E0FF90034812D8
:10307100168C900343E0FBE4FAF9F8900348E0FC76
:10308100A3E0FDA3E0FEA3E0FF121592AF039003BE
:103091004CEFF0D3740A9F7480F8985006E02437FF
:1030A100F0800790034CE02430F090034CE0FF9057
:1030B100033FE0FBA3E0FAA3E0F9EF1213D2900380
:1030C10048E0FCA3E0FDA3E0FEA3E0FFC0079003FE
:1030D10043E0FBE4FAF9F8D0071215929003481285
:1030E100168C90034DE004F0900348E0FCA3E0FD52
:1030F100A3E0FEA3E0FFEC4D4E4F600D900340E4D2
:0E31010075F0011214A302307390034DE0FF2D
:01310F00229D
:103C5B00900229EFF07B017A027904E0FFE4FCFD8E
:013C6B00FE5A
:0F3C6C009003C4EBF0A3EAF0A3E9F0A312168CC7
:103C7B009003CB12169800000000E47B02FAF9F8CF
:103C8B009003C7E0FCA3E0FDA3E0FEA3E0FF121549
:103C9B00929003CBE0F8A3E0F9A3E0FAA3E0FBC317
:103CAB001216484003023D539003C7A3A3E0FEA3A3
:103CBB00E024FFFBEE34FFFAA3A3A3E0FEA3E0FF97
:103CCB00C3EB9FFDEA9EFC9003C4E0FBA3E0FAA3C9
:103CDB00E0F98D828C831213A59003CFF08F828E27
:103CEB00831213A5FFC0079003C7A3A3E0FEA3E0B5
:103CFB0024FFFBEE34FFFAA3A3A3E0FEA3E0FDAC8D
:103D0B0006C3EB9DFFEA9CFE9003C4E0FBA3E0FA25
:103D1B008F828E83D0E01213E49003CFE0FFEF8D00
:103D2B00828C831213E49003CBE0FCA3E0FDA3E0B1
:103D3B00FEA3E02401FFE43EFEE43DFDE43CFC90E9
:083D4B0003CB12168C023C852B
:013D5300224D
:0B1D37009001CEEBF0A3EAF0A3E9F06E
:101D42009001FC121698000000009002007401F04D
:101D5200A37401F0A374D4F09001D1E0FBA3E0FAE4
:0B1D6200A3E0F912138C70030222C1F1
:101D6D00900203F06425600302226D9001D1A3E47B
:101D7D0075F0011214A3A9F0FA12138C1216FA229F
:101D8D0039251E3B462113581DB4631DD0641E3BDF
:101D9D00661DD06920986F21E07021677320127540
:071DAD00211378000022B4AD
:101DB400900200E0FBA3E475F0041214B9A9F0FA50
:091DC40012166C900204EFF0E02D
:031DCD0002227B74
:101DD000900200E0FBA3E475F0041214B9A9F0FA34
:101DE00012166C90022512168C900225E0FCA3E0DE
:101DF000FDA3E0FEA3E0FF7B017A02790490034299
:101E00007401F0A3740AF0122F90900229EFF09061
:101E10000225E0FCA3A3A3EC335014A3E02404F5B3
:101E200082E43402F583742DF0900229E004F07B03
:081E3000017A027904900229F5
:031E38000220562F
:101E3B00900200E0FBA3E475F0041214B9A9F0FAC8
:101E4B0012166C90022512168C900225E0FCA3E072
:101E5B00FDA3E0FEA3E0FF1211F37B017A027904EC
:101E6B009003427401F0A3740AF0122F9090022990
:101E7B00EFF0E4FFFEFDFC900225E0F8A3E0F9A3F0
:101E8B00E0FAA3E0FB12113C5016900229E0240467
:101E9B00F582E43402F583742DF0900229E004F00E
:101EAB007B017A027904900229123C66900229E0A8
:101EBB00FF7E009001CEE0FBA3E0FAA3E0F8AC02BA
:101ECB00AD037B017A027904121344900229E0FFDF
:101EDB00FD9001CFE48DF01214A39001FCE0F8A368
:101EEB00E0F9A3E0FAA3E0FBE4FCFDFEEB2FFFEE31
:101EFB003AFEED39FDEC38FC9001FC12168C900289
:101F0B0025E0FCA3E0FDA3E0FEA3E0FF1211F3EC40
:101F1B001211B5A804A905AA06AB07900225E0FC8F
:101F2B00A3E0FDA3E0FEA3E0FF120EA17B007A2449
:101F3B0079747849120F9690022512168C9002250F
:101F4B00E0FCA3E0FDA3E0FEA3E0FFEC4D4E4F60F1
:101F5B0024900225A3A3A3E01211F37B017A02794B
:101F6B00049003427401F0A3740AF0122F909002B4
:101F7B0029EFF080209002097430F0900208F09065
:101F8B000207F0900206F0900205F0900204F09028
:101F9B0002297406F0900229E0FFFDD374069D74AC
:101FAB0080F898401574042FF582E43402F583749D
:101FBB0030F0900229E004F080DB900229E0240449
:101FCB00F582E43402F583742EF0900229E00412BA
:101FDB003C5F900229E0FF7E009001CEE0FBA3E086
:101FEB00FAA3E0F8AC02AD037B017A027904121379
:101FFB00449001FCE0F8A3E0F9A3E0FAA3E0FB9026
:07200B000229E0FF0221554C
:10201200900200E0FBA3E475F0041214B9A9F0FAEF
:1020220012166C90022512168C900225E0FCA3E099
:10203200FDA3E0FEA3E0FF7B017A027904E49003B2
:1020420042F0A3740AF0122F90900229EFF07B0164
:102052007A027904123C66900229E0FF7E00900128
:10206200CEE0FBA3E0FAA3E0F8AC02AD037B017A79
:10207200027904121344900229E0FFFD9001CFE49B
:102082008DF01214A39001FCE0F8A3E0F9A3E0FAAA
:03209200A3E0FBCD
:03209500022155D0
:10209800900200E0FBA3E475F0041214B9A9F0FA69
:1020A80012166C90022512168C900225E0FCA3E013
:1020B800FDA3E0FEA3E0FF7B017A027904E490032C
:1020C80042F0A37408F0122F90123C5B900229E0B2
:1020D800FF7E009001CEE0FBA3E0FAA3E0F8AC029B
:1020E800AD037B017A027904121344900229E0FFC0
:1020F800FD9001CFE48DF01214A39001FCE0F8A349
:08210800E0F9A3E0FAA3E0FBFB
:0321100002215554
:10211300122F5A123C5B900229E0FF7E009001CE01
:10212300E0FBA3E0FAA3E0F8AC02AD037B017A0283
:102133007904121344900229E0FFFD9001CFE48D4E
:10214300F01214A39001FCE0F8A3E0F9A3E0FAA3D2
:10215300E0FBE4FCFDFEEB2FFFEE3AFEED39FDEC78
:012163003843
:032164000222ADA7
:10216700900200E0FBA3E475F0031214B9A9F0FA9A
:102177001216DA900204EBF0A3EAF0A3E9F090025A
:1021870004E0FBA3E0FAA3E0F912138C7003022228
:10219700B412138CFF9001CEE0FBA3E0FAA3E0F9A1
:1021A700EF1213D29001CFE475F0011214A390013E
:1021B700FCE0FCA3E0FDA3E0FEA3E02401FFE43E76
:1021C700FEE43DFDE43CFC9001FC12168C900205F8
:0921D700E475F0011214A380A5C7
:1021E000122F5A900229EFF07B017A0279047F08BE
:1021F0007E007D007C00123C6C9001CEE0FBA3E0F1
:10220000FAA3E0F8AC02AD037B017A0279047E0008
:102210007F081213449001CFE475F0081214A390C4
:1022200001FCE0FCA3E0FDA3E0FEA3E02408FFE442
:072230003EFEE43DFDE43C2D
:1022370080749001CEE0FBA3E0FAA3E0F9742512C5
:1022470013D29001CFE475F0011214A39001FCE0C2
:10225700FCA3E0FDA3E0FEA3E02401FFE43EFEE4CF
:102267003DFDE43C80409001D1E0FBA3E0FAA3E010
:10227700F912138CFF9001CEE0FBA3E0FAA3E0F97B
:10228700EF1213D29001CFE475F0011214A390015D
:10229700FCE0FCA3E0FDA3E0FEA3E02401FFE43E95
:1022A700FEE43DFDE43CFC9001FC12168C9001D24B
:0722B700E475F0011214A30D
:1022BE00021D5A900200E4F0A3F0A3F09001FCE09E
:0A22CE00FCA3E0FDA3E0FEA3E0FF87
:0122D80022E3
:0561F50042053D000021
:0300230002566220
:0F566200C0E0C083C082C0D075D000C005C007B3
:10567100309907C2999001CAE4F030982AC298AFD4
:1056810099EFFD647F6005ED6480701690053CE044
:10569100FF04F0D3EF941474809480400A75C760BE
:0756A100800590053CE4F0D8
:0D56A800D007D005D0D0D082D083D0E03222
:0300430002624016
:10624000C0E0C083C082E59A30E108539AFD900116
:10625000CBE4F0E59A30E003539AFED082D083D0AD
:02626000E0322A
:03008B00026262AC
:10626200C0E0C083C082E5AC30E10853ACFD9001D0
:10627200CCE4F0E5AC30E00353ACFED082D083D066
:02628200E03208
:0300930002628482
:10628400C0E0C083C082E58430E1085384FD9001FE
:10629400CDE4F0E58430E0035384FED082D083D093
:0262A400E032E6
:03003B00024DB2C1
:104DB200C0E0C0F0C083C082C0D075D000C000C0C7
:034DC20006C00721
:104DC50030D83EC2D890038EE0FEA3E0F5EAEEF5BA
:104DD500FA900388E0FEA3E0FF90038FE02FF090A8
:104DE500038EE03EF090053DE475F0011214A3AF8B
:104DF500F0FEBE030CBFE809B2CA90053DE4F0A37E
:104E0500F030D922C2D9900390E0FEA3E0F5EBEE95
:104E1500F5FB90038AE0FEA3E0FF900391E02FF0FD
:064E2500900390E03EF056
:104E2B00D007D006D000D0D0D082D083D0F0D0E045
:014E3B003244
:03000300020042B6
:01004200328B
:0300130002005692
:010056003277
:0300530002005751
:010057003276
:03005B0002005848
:010058003275
:030083000200591F
:010059003274
:1064CE0012003E1255B67D017C00E4FF1241DA1235
:0464DE00005080FEEC
:100E9E0002125FE86480F8E933E83360110460F011
:100EAE00ED33EC337009E8FCE9FDEAFEEBFF2204BA
:100EBE0060DED3EB9FEA9EE99DE8C2E78CF0C2F7B5
:100ECE0095F0400CE8CCF8E9CDF9EACEFAEBCFFB81
:100EDE0012122A85D0F05804700320D5B3E804709E
:100EEE00075002B2D502126992D5EC0460F7E4CC39
:100EFE00C0E0C398F8603B94186008400DD0E0FB4A
:100F0E00021241E4FBFAC9FC8028E830E406E4C989
:100F1E00FBE4CAFCE830E305E4C9CACBFCE854079D
:100F2E006010F8C3E913F9EA13FAEB13FBEC13FCA8
:100F3E00D8F130F52FC3E49CFCEF9BFFEE9AFEED4B
:100F4E0099FDD0E0FBEF4E4D4C701222DB030212E6
:100F5E0066EC2CFCEF33FFEE33FEED33FDED30E7A8
:100F6E00EB021241EF2BFFEE3AFEED39FDD0E0FB26
:100F7E0050130BBB0003021269ED13FDEE13FEEFCF
:080F8E0013FFEC13FC021241F9
:100F9600EC4D6011E8497017ED33EC3304600DE455
:100FA600FCFFFEFD22E933E8330470F802125F12FB
:100FB600122A58046009E4CC2481500628500902FC
:100FC6001269284003021266C0E0EB4A7044B980F9
:100FD60006D0E0FB021255EF4E701CBD8008EBFFF9
:100FE600EAFEE9FD80EBE98DF0A4FEE5F002107F54
:100FF600E9CDF9EAFEEBFFEF89F0A4FCE5F0CE8936
:10100600F0A42EFFE435F0CD89F0A42DFEE435F0F2
:101016008067EF4E7005BD80D780C3EF8BF0A4AC20
:10102600F0EE8BF0A42CFCE435F0F8EF8AF0A42C5B
:10103600E5F038FCE433CB8DF0A42CFCE5F03BF86E
:10104600EE8AF0A42CFCE5F038F8E433CF89F0A45E
:101056002CFCE5F038CF3400CE89F0A42FFFE5F064
:101066003EFEE433C98DF0A42EFEE5F039CD8AF0BC
:10107600A42FFFE5F03EFEE43DFD33D0E0FB500734
:101086000BBB000F021269EC2CFCEF33FFEE33FEB4
:06109600ED33FD021241E2
:10109C00021269EC5D046005E85904700302125FEA
:1010AC0012122A580460F6EC4860F2EC7004FDFE53
:1010BC00FF22C860DB2481C85009C3986002500627
:1010CC000212669850CAF582E9294B4A7005AB8228
:1010DC0002125575F0007C1A7880C3EF9BEE9AEDE6
:1010EC0099400DC3EF9BFFEE9AFEED99FDE842F09F
:1010FC00DC23ACF0D0E0FFD0E0FED0E0FDAB8220F2
:10110C00E7101BEB60BAEC2CFCEF33FFEE33FEED7B
:10111C0033FD021241E803F830E705C0F075F0002A
:10112C00EF2FFFEE33FEED33FD40B830E7C280AA5F
:10113C0074F8CC6480CCC86480C8F58204604FC35A
:10114C00EB9FF5F0EA9E42F0E99D42F0E89C45F0F9
:10115C00603C501DE5825FFFE582D313CB5BCBF483
:10116C002B5582FB50280ABA002409B900200880AC
:10117C001DE5825BFBE582D313CF5FCFF4C3132F46
:10118C005582FF50090EBE00050DBD00010CC3EBCE
:10119C009FF5F0EA9E42F0E99D42F0E89C45F06034
:0911AC0007CC4820E701B3EC2256
:1011B50075F020800E75F010800575F0087D007EB5
:1011C500007F003392D530D503121624EC3340103E
:1011D500EF33FFEE33FEED33FDEC33FCD5F0ED22BE
:0E11E500E5F0247EA2D513CC92E7CDCEFF22FA
:1011F300EDD2E7CD33EC3392D524814006E4FFFEF4
:10120300FDFC22FCE4CFCECDCC24E0501174FF8052
:10121300EDC3CC13CCCD13CDCE13CECF13CF0470EF
:07122300F030D5DE021624B5
:10122A00E9D2E7C933E833F892D5EDD2E7CD33EC0A
:07123A0033FC5002B2D52283
:10124100EC30E7100FBF000C0EBE00080DBD00040E
:101251000BEB6014A2D5EB13FCED92E7FD2274FFBA
:10126100FCFDFEFF22E480F8A2D574FF13FC7D8013
:03127100E480EF27
:03000000024D2688
:0C4D2600787FE4F6D8FD758107024D6D22
:10127400E709F608DFFA8046E709F208DFFA803E5C
:1012840088828C83E709F0A3DFFA8032E309F60849
:10129400DFFA8078E309F208DFFA807088828C83B1
:1012A400E309F0A3DFFA806489828A83E0A3F60865
:1012B400DFFA805889828A83E0A3F208DFFA804C3F
:1012C40080D280FA80C680D4806980F28033801016
:1012D40080A680EA809A80A880DA80E280CA80337F
:1012E40089828A83ECFAE493A3C8C582C8CCC583F7
:1012F400CCF0A3C8C582C8CCC583CCDFE9DEE780C7
:101304000D89828A83E493A3F608DFF9ECFAA9F045
:10131400EDFB2289828A83ECFAE0A3C8C582C8CC9B
:10132400C583CCF0A3C8C582C8CCC583CCDFEADEB4
:10133400E880DB89828A83E493A3F208DFF980CC16
:1013440088F0EF60010E4E60C388F0ED2402B4040F
:101354000050B9F582EB2402B4040050AF232345B6
:0613640082239012C47305
:10136A00C2D530F707B2D563F0FF05F030E70CB20B
:10137A00D5F4048463F0FF05F080018430D502F4CB
:02138A0004223B
:10138C00BB010689828A83E0225002E722BBFE025F
:09139C00E32289828A83E4932292
:1013A500BB010CE58229F582E5833AF583E02250FD
:1013B50006E92582F8E622BBFE06E92582F8E22247
:0D13C500E58229F582E5833AF583E4932261
:1013D200BB010689828A83F0225002F722BBFE01FA
:0213E200F322F4
:1013E400F8BB010DE58229F582E5833AF583E8F03F
:1013F400225006E92582C8F622BBFE05E92582C8EB
:02140400F222D2
:10140600EF8DF0A4A8F0CF8CF0A428CE8DF0A42EFA
:02141600FE22B4
:10141800BC000BBE0029EF8DF084FFADF022E4CCB8
:10142800F875F008EF2FFFEE33FEEC33FCEE9DEC81
:10143800984005FCEE9DFE0FD5F0E9E4CEFD22EDC7
:10144800F8F5F0EE8420D21CFEADF075F008EF2F11
:10145800FFED33FD4007985006D5F0F222C398FD02
:051468000FD5F0EA229F
:10146D00C2D5EC30E709B2D5E4C39DFDE49CFCEE9A
:10147D0030E715B2D5E4C39FFFE49EFE121418C3E6
:10148D00E49DFDE49CFC800312141830D507C3E4E1
:06149D009FFFE49EFE2209
:1014A300C5F0F8A3E028F0C5F0F8E58215827002D4
:0614B3001583E038F02271
:1014B900A3F8E0C5F025F0F0E582158270021583E6
:0614C900E0C838F0E82243
:1014CF00BB0110E58229F582E5833AF583E0F5F05B
:1014DF00A3E0225009E92582F886F008E622BBFE38
:1014EF000AE92582F8E2F5F008E222E5832AF5837E
:0814FF00E993F5F0A3E9932243
:10150700E88FF0A4CC8BF0A42CFCE98EF0A42CFC83
:101517008AF0EDA42CFCEA8EF0A4CDA8F08BF0A401
:101527002DCC3825F0FDE98FF0A42CCD35F0FCEB60
:101537008EF0A4FEA9F0EB8FF0A4CFC5F02ECD3925
:0F154700FEE43CFCEAA42DCE35F0FDE43CFC2292
:1015560075F008758200EF2FFFEE33FECD33CDCC4C
:1015660033CCC58233C5829BED9AEC99E5829840CF
:101576000CF582EE9BFEED9AFDEC99FC0FD5F0D6AC
:10158600E4CEFBE4CDFAE4CCF9A88222B800C1B9D6
:101596000059BA002DEC8BF084CFCECDFCE5F0CB14
:1015A600F97818EF2FFFEE33FEED33FDEC33FCEB4D
:1015B60033FB10D703994004EB99FB0FD8E5E4F908
:1015C600FA227818EF2FFFEE33FEED33FDEC33FCF5
:1015D600C933C910D7059BE99A4007EC9BFCE99AE9
:1015E600F90FD8E0E4C9FAE4CCFB2275F010EF2F2E
:1015F600FFEE33FEED33FDCC33CCC833C810D7072E
:101606009BEC9AE899400AED9BFDEC9AFCE899F868
:0E1616000FD5F0DAE4CDFBE4CCFAE4C8F922FB
:105BA600C2D5E830E70FB2D5E4C39BFBE49AFAE42A
:105BB60099F9E498F8EC30E717B2D5125BDC1215C8
:105BC60092E4C39BFBE49AFAE499F9E498F880031B
:105BD60012159230D50DE4C39FFFE49EFEE49DFDB1
:045BE600E49CFC221D
:0E162400C3E49FFFE49EFEE49DFDE49CFC22D7
:10163200EB9FF5F0EA9E42F0E99D42F0EC6480C82F
:0616420064809845F022CF
:10164800EB9FF5F0EA9E42F0E99D42F0E89C45F0F8
:01165800226F
:10165900E8600FECC313FCED13FDEE13FEEF13FF6F
:03166900D8F12293
:10166C00BB010789828A8302172C5005E9F80217FF
:10167C0020BBFE05E9F802173889828A83021744D9
:0C168C00ECF0A3EDF0A3EEF0A3EFF022D1
:10169800A8828583F0D083D0821216AF1216AF12BB
:1016A80016AF1216AFE473E493A3C583C5F0C583E0
:1016B800C8C582C8F0A3C583C5F0C583C8C582C89C
:0116C80022FF
:1016C900F5F0C582A4C582C5F0C583A42583F58339
:0116D90022EE
:1016DA00BB010789828A8302175D5005E9F8021760
:1016EA0054BBFE05E9F802176689828A8302176FDE
:1016FA00D083D082F8E4937012740193700DA3A37F
:10170A0093F8740193F5828883E473740293686092
:06171A00EFA3A3A380DF92
:104D32000264CEE493A3F8E493A34003F68001F265
:104D420008DFF48029E493A3F85407240CC8C33382
:104D5200C4540F4420C8834004F456800146F6DF51
:104D6200E4800B01020408102040809061D7E47EA9
:104D7200019360BCA3FF543F30E509541FFEE49346
:104D8200A360010ECF54C025E060A840B8E493A30D
:104D9200FAE493A3F8E493A3C8C582C8CAC583CA38
:104DA200F0A3C8C582C8CAC583CADFE9DEE780BEF0
:0161FA0000A4
:0C172000E6FC08E6FD08E6FE08E6FF22F5
:0C172C00E0FCA3E0FDA3E0FEA3E0FF2230
:0C173800E2FC08E2FD08E2FE08E2FF22ED
:10174400E493FC740193FD740293FE740393FF22EB
:09175400E6FB08E6FA08E6F922BA
:09175D00E0FBA3E0FAA3E0F9228D
:09176600E2FB08E2FA08E2F922B4
:0C176F00E493FB740193FA740293F922D6
:00000001FF
