:0761C90044050E0000000078
:10258A0043BA80E59D602E78FAE6FFAD9FC3ED9FC2
:10259A00FFE49400FE3395E0FDFC7BE07A287901A4
:1025AA007800121507E42FFFEE3451FEED3425FDB5
:1025BA00EC3402802B78FBE6FFAD9FC3ED9FFFE46E
:1025CA009400FE3395E0FDFCE47B807ABBF9F812B7
:1025DA001507E42FFFEE3436FEED346EFDEC3401C0
:1025EA00FC9003C412168C9003C4E0FCA3E0FDA384
:1025FA00E0FEA3E0FFC00790FE01E0FBE4FAF9F871
:10260A00D0071215929003C412168C7FC07EF67DF5
:10261A00577C009003C4E0F8A3E0F9A3E0FAA3E032
:10262A00FBC312164850097F007E607D547C00224D
:10263A007FC07E267D827C009003C4E0F8A3E0F987
:10264A00A3E0FAA3E0FBC312164850097F807E8DEF
:10265A007D5B7C00227F807EED7DAF7C009003C491
:10266A00E0F8A3E0F9A3E0FAA3E0FBC3121648508E
:10267A00097F007EC07DA87C00227F807E2D7DE8B8
:10268A007C009003C4E0F8A3E0F9A3E0FAA3E0FB1E
:10269A00C312164850097F007E1B7DB77C00227F3B
:1026AA00807E367D257C019003C4E0F8A3E0F9A37F
:1026BA00E0FAA3E0FBC312164850097F007E407D72
:1026CA00197C01227F807E567D417C019003C4E003
:1026DA00F8A3E0F9A3E0FAA3E0FBC31216485009F5
:1026EA007F007E2D7D317C01227F007EDB7D5F7C39
:1026FA00019003C4E0F8A3E0F9A3E0FAA3E0FBC366
:10270A0012164850097F007E807D517C01227F602D
:10271A007E197D857C019003C4E0F8A3E0F9A3E06B
:10272A00FAA3E0FBC312164850097F007E367D6E7D
:10273A007C01227F207EE07DB27C019003C4E0F818
:10274A00A3E0F9A3E0FAA3E0FBC312164850097FFD
:10275A00C07EFC7D9B7C01227FE07EA67DE07C0121
:10276A009003C4E0F8A3E0F9A3E0FAA3E0FBC312E4
:10277A00164850097F807EC37DC97C01227F607E16
:10278A002B7DFF7C019003C4E0F8A3E0F9A3E0FAF3
:10279A00A3E0FBC312164850097F007E407DFA7CF5
:0A27AA0001227FC07E0E7D167C0226
:0127B4002202
:1054F60012258A90050E12168CE4F594F593F59212
:10550600F591F596F595F5B2F5B1F5B4F5B3F5CA9D
:10551600F5C9F5D8F5D9F5DEF58EF598F59AF5AC19
:10552600F584F5A2F5BAF5AFF589F5E9F5F9126056
:10553600479003C71216980001C2009003CB74026D
:09554600F07B01E4FDFF022BCE15
:1064F80090053EEFF0FDE4FF12588D90053EE0FF59
:016508002270
:03003E00C2AF222C
:03005000D2AF220A
:103B480090046CEFF014603914605F147003023B4A
:103B5800DB24036003023C05E4FD7F131222D9E451
:103B6800FD7F141222D9E4FD7F151222D97D017F31
:103B780013125440E4FD7F141254407D017F1580D8
:103B880079E4FD7F231222D9E4FD7F241222D9E4AF
:103B9800FD7F251222D97D017F23125440E4FD7F49
:103BA800241254407D017F258050E4FD7F4012227D
:103BB800D9E4FD7F411222D9E4FD7F431222D97D49
:103BC800017F40125440E4FD7F411254407D017F43
:103BD800438027E4FD7F341222D9E4FD7F3312228B
:103BE800D9E4FD7F321222D97D017F34125440E49A
:103BF800FD7F331254407D017F3212544053A2F3AB
:103C080090046CE014600A14600C14600E240380A5
:103C18000D43A204800843A208800343A20C53CE9C
:103C2800F3900470E024FE600C14600E2402700D02
:103C380043CE04800843CE08800343CE0C90047220
:103C4800E042CE900471E0700643CE8043CE10432C
:033C5800CE402239
:0D0006008FCFE5CD30E7FB75CDC0AFCF2229
:1042B900900512EFF053A2F3E014603914605F1413
:1042C90070030243502403600302437AE4FD7F1321
:1042D9001222D9E4FD7F141222D9E4FD7F1512229E
:1042E900D97D017F13125440E4FD7F141254407D9F
:1042F900017F158079E4FD7F231222D9E4FD7F2413
:104309001222D9E4FD7F251222D97D017F2312547F
:1043190040E4FD7F241254407D017F258050E4FD57
:104329007F401222D9E4FD7F411222D9E4FD7F4367
:104339001222D97D017F40125440E4FD7F4112547D
:10434900407D017F438027E4FD7F341222D9E4FDBB
:104359007F331222D9E4FD7F321222D97D017F34C5
:10436900125440E4FD7F331254407D017F321254D0
:1043790040900512E014600914600A14600B2403CC
:0D4389002243A2042243A2082243A20C22D8
:1063850053CEF7EF24FE600B14600C2402700B4310
:0B639500CE042243CE082243CE0C228F
:1064C100EF1FAA0670011E4A60087D091DED60F0EC
:0264D10080FA4F
:0164D30022A6
:105E0C00E490052CF0A3F0FC90FE82E020E61E7FCF
:105E1C00017E001264C190052CE475F0011214B9D6
:105E2C00FEC3E5F0941EEE940040DD7C0190FE82F2
:065E3C00E054BFF0AF04CA
:015E4200223D
:0E640500EFF0A3EDF0A3EBF0A3EAF0A3E9F0B3
:0964130090FE817401F0025E0CA0
:0464D400E025E0FFE0
:0E64D80090FE86EFF090FE817402F0025E0CE2
:0965D40090FE817403F0025E0CDC
:0F655C0090FE817404F0125E0C90FE87E0FF2227
:0F62F5009004ADE0FBA3E0FAA3E0F9EF1213D29F
:0E63040090FE82E4F090FE817405F0025E0CC3
:0F656B0090FE827401F090FE817405F0025E0CC8
:0965DD0090FE817406F0025E0CD0
:105AC40053BACF43BA80EF14600A14600C14600E0A
:105AD4002403800D43BA10800843BA20800343BADC
:105AE4003090FE80E04440F0E04480F0C083C08207
:105AF400E0FB900476A3A3A3E0FFEB4FD082D08316
:075B0400F090FE82E4F022A4
:10554F0090053FEFF0A905126413EF60037F01226E
:10555F0090053F1264D4EF60037F01221265D4EFF0
:10556F0060037F0122AF011264D8EF60037F012235
:10557F001265D4EF60037F0122AF031264D8EF608E
:10558F00037F01221265D4EF60037F01221265DDD4
:09559F00EF60037F01227F00226E
:105245009004FF126405EF60037F01229004FF12B2
:1052550064D4EF60037F01221265D4EF60037F0100
:1052650022900500E0FF1264D8EF60037F0122124F
:1052750065D4EF60037F01229004FFE025E044013F
:10528500FF1264D8EF60037F01221265D4EF60033B
:105295007F012212655C9005011262F8EF60037FC1
:0E52A50001221265DDEF60037F01227F0022EF
:104D15009004AB126405EF60037F01229004AB128F
:104D250064D4EF60037F01221265D4EF60037F0135
:104D3500229004ACE0FF1264D8EF60037F012212D9
:104D450065D4EF60037F01229004ABE025E04401C8
:104D5500FF1264D8EF60037F01221265D4EF600370
:104D65007F01229004B0E014F0601812655C1262B5
:104D7500F5EF60037F01229004AEE475F001121493
:104D8500A380E012655C1262F5EF60037F012212D9
:0B4D950065DDEF60037F01227F00223C
:10005E0043BA8053BACFEF14600A14600C14600ECA
:10006E002403800D43BA10800843BA20800343BA9C
:05007E003053BA7F229F
:0B2BCE009003C4EFF0A3EDF0A3EBF0C8
:102BD900A3E0F8A3E0F9A3E0FAA3E0FB90050EE077
:102BE900FCA3E0FDA3E0FEA3E0FF121592E47B0441
:102BF900FAF9F8121592C3E49FFFE49EAD07FC9021
:102C090003C4E0147003022CA7147003022CEA1405
:102C19007003022D4324036003022DA09003CBE02F
:102C2900FB7A00640170144398508D8BECF58D4349
:102C39008E40D28EE49001CAF08011EB64024A7092
:102C49000B4398508DD7ECF5D6438E1553A23F9080
:102C590003C5E0F9FF7E007008A3E06401700280FB
:102C690035EF64024E700D9003C6E06403700543AE
:102C7900A2408022E96404700D9003C6E0640570E7
:102C89000543A2808010E96406700B9003C6E064D6
:102C990007700343A2C0E49001CAF0D2AC229003AA
:102CA900CBE06402700B439A108DD7ECF5D6438EB6
:102CB9001453BAFE9003C5E0FF7E0064087008A3B0
:102CC900E0640970028011EF640A4E700B9003C62C
:102CD900E0640B700343BA0143AF01E49001CBF008
:102CE900229003CBE0FB7A006402700D439A108DA9
:102CF900D7ECF5D6438E148011EB64034A700B436D
:102D0900AC508DD5ECF5D443D10A53BAFD9003C527
:102D1900E0FF7E00640C7008A3E0640D700280116E
:102D2900EF640E4E700B9003C6E0640F700343BA54
:102D39000243AF08E49001CCF0229003CBE0FB7A88
:102D4900006402700D4384108DD7ECF5D6438E14C0
:102D59008011EB64044A700B4384508DD3ECF5D297
:102D690043D1A053BAFB9003C5E0FF7E0064107005
:102D790008A3E0641170028016EF64124E7010907F
:102D890003C6E064137008F5CA75C90443BA04435D
:072D9900AF10E49001CDF042
:012DA0002210
:0F587E00A3E475F0011214B9A9F0FA12138CFD0E
:10588D00EF14601514601D1460252403702D900114
:10589D00CAE070FA04F08D99229001CBE070FA0401
:1058AD00F08D9B229001CCE070FA04F08DAD22902A
:0C58BD0001CDE070FA04F0AF058F8522E9
:106070009004B2EBF0A3EAF0A3E9F0AE079004B508
:1060800074FFF5F01214B945F0600CAF069004B23D
:08609000E0FB12587E80E622BD
:1060980090051AEBF0A3EAF0A3E9F0AE0790051A11
:1060A800E0FBA3E0FAA3E0F912138C600AAF0690B4
:0860B800051A12587E80E62251
:1058C90043BC80EF131313541FFB7A006401701754
:1058D900EF5407FEF87401088002C333D8FCFEF4C4
:1058E9005294EE42938019EB4A7015EF5407FEF873
:1058F9007401088002C333D8FCFEF45292EE42913F
:09590900ED540F42DE43DE2022C2
:025F9E00A90553
:105FA00053BCF0EF42BC43BC40E5BC30E5FB53BC06
:105FB000DFAFBDEFFEADBEEDFFAD01A8050880056A
:085FC000CEC313CE13D8F9FF84
:015FC80022B6
:105BDC00EF14601814602014602614602C240470D8
:105BEC0030E4F58AF58C438904D28C22E4F58BF5EC
:105BFC008D438940D28E22E4F5D7F5D6438E1822F8
:105C0C00E4F5D5F5D443D10C22E4F5D3F5D243D148
:025C1C00C022A4
:105B5200EF14601714601E14602514602C24047066
:105B620030AF8CEFFCAF8AEFFD8026AF8DEFFCAF3C
:105B72008BEFFD801CAFD6EFFCAFD7EFFD8012AFED
:105B8200D4EFFCAFD5EFFD8008AFD2EFFCAFD3EF7F
:055B9200FDAF05AE04AB
:015B970022EB
:10591200EF14601714601E146027146030240470A2
:1059220037C28CE4F58CF58AD28C22C28EE4F58DD6
:10593200F58BD28E22538EEFE4F5D6F5D7438E1037
:105942002253D1F7E4F5D4F5D543D1082253D17FC0
:09595200E4F5D2F5D343D1802223
:054BFC00900540EFF000
:104C01007E037FE81214187C007D0C121406AB079A
:104C1100AA06E4F9F890050EE0FCA3E0FDA3E0FE8E
:104C2100A3E0FF121592C3E49FFFE49EFE900540AE
:104C3100E0F9FD7C00700A8F8AEEF58CD28CD2A946
:104C410022ED64014C700A8F8BEEF58DD28ED2ABC2
:104C510022E9FD7C006402700C8FD7EEF5D6438EFD
:104C61001043AF0422ED64034C700C8FD5EEF5D4E4
:104C710043D10843AF2022E96404700B8FD3EEF5D2
:074C8100D243D18043AF4094
:014C88002209
:0527B5009003C4EFF0E9
:1027BA00E49003CFF07D011222D99003C4E0C454FF
:1027CA000FFFF87401088002C333D8FC42F143BA00
:1027DA00809003C5E0F8A3E0F9A3E0FAA3E0FB9038
:1027EA00050EE0FCA3E0FDA3E0FEA3E0FF121592B4
:1027FA00780F1216599003CFEFF09003C5E0F8A3B3
:10280A00E0F9A3E0FAA3E0FB90050EE0FCA3E0FDEB
:10281A00A3E0FEA3E0FF121592C006C0079003CF03
:10282A00E02401FFE433AB07FA3395E0F9F8D00767
:10283A00D0061215929003CDEEF0A3EFF09003C9E3
:10284A00E0FCA3E0FDE41211BA7B007A40791C781F
:10285A004612109FC004C005C006C0079003CDE011
:10286A00FCA3E0FDE41211BAD003D002D001D000DB
:10287A00120F961211F39003CBEEF0A3EFF0900330
:10288A00C4E0FFC39430748094809003CFE0FD507D
:10289A006AEFC4540FF975F050A4FFAEF02402FB9E
:1028AA00EE34FF8B82F583EDF09003CDE0FCA3E0DC
:1028BA00FDE42FFFEE34FF8F82F583ECF0A3EDF0F9
:1028CA009003CBE0FCA3E0FDE975F050A42410FBD3
:1028DA00E5F034FFFA9003C4E0540F75F008A42B16
:1028EA00FFE5F03A8F82F583ECF0A3EDF0E975F09D
:1028FA0050A42414FDE5F034FF806D9003C4E02455
:10290A00D0C4540FF975F050A4FFAEF02402FBEEC8
:10291A0034FC8B82F583EDF09003CDE0FCA3E0FD5F
:10292A00E42FFFEE34FC8F82F583ECF0A3EDF090F8
:10293A0003CBE0FCA3E0FDE975F050A42410FBE50D
:10294A00F034FCFA9003C4E0540F75F008A42BFF8E
:10295A00E5F03A8F82F583ECF0A3EDF0E975F050DB
:10296A00A42414FDE5F034FCFC9003C4E0540F7574
:10297A00F008A42DFFE5F03C8F82F583E04480F057
:10298A009003C4E0C4540F1460151460171460193E
:10299A0014601B14601D2405701C43F60180174344
:1029AA00F610801243F701800D43F710800843FEAA
:0929BA0001800343FE1053BA7FB3
:0129C30022F1
:0B3A31009003C4EFF0A3ECF0A3EDF055
:103A3C0043BA809003C4E0C3943074809480506F78
:103A4C00A3E0FCA3E0FDE41211BA7B007A40791CE0
:103A5C00784612109FC004C005C006C0079003C46E
:103A6C00E0C4540F75F050A42400FFE5F034FF8F30
:103A7C0082F583E0FCA3E0FDE41211BAD003D0027E
:103A8C00D001D000120F961211F39003C7EEF0A3E1
:103A9C00EFF09003C7E0FCA3E0FD9003C4E0F9C491
:103AAC00540F75F050A42410FBE5F034FF80739094
:103ABC0003C5E0FCA3E0FDE41211BA7B007A407967
:103ACC001C784612109FC004C005C006C0079003A6
:103ADC00C4E024D0C4540F75F050A42400FFE5F0CA
:103AEC0034FC8F82F583E0FCA3E0FDE41211BAD024
:103AFC0003D002D001D000120F961211F39003C71D
:103B0C00EEF0A3EFF09003C7E0FCA3E0FD9003C43C
:103B1C00E0F924D0C4540F75F050A42410FBE5F048
:103B2C0034FCFAE9540F75F008A42BFFE5F03A8F3A
:0B3B3C0082F583ECF0A3EDF053BA7F9C
:013B4700225B
:052DA10090035FEFF05C
:102DA600E490036EF0900360E0F8A3E0F9A3E0FA84
:102DB600A3E0FB90050EE0FCA3E0FDA3E0FEA3E08C
:102DC600FF121592780F12165990036EEFF09003CA
:102DD60060E0F8A3E0F9A3E0FAA3E0FB90050EE0BB
:102DE600FCA3E0FDA3E0FEA3E0FF121592C006C01F
:102DF6000790036EE02401FFE433AB07FA3395E056
:102E0600F9F8D007D00612159290036A12168C9024
:102E16000364E0FCA3E0FDE41211BA7B007A40797A
:102E26001C784612109FC004C005C006C007900358
:102E36006AE0FCA3E0FDA3E0FEA3E0FFE41211B507
:102E4600D003D002D001D000120F961211F39003D6
:102E56006612168C43BA8090035FE0C39430748088
:102E6600948090036EE0FD90035FE0504AC4540FD7
:102E7600F975F050A4FBAAF02402FFEA34FF8F8212
:102E8600F583EDF090036AA3A3E0FEA3E0FFE42B35
:102E9600FDEA34FF8D82F583EEF0A3EFF090036632
:102EA600A3A3E0FEA3E0FDAC06E975F050A4241050
:102EB600FBE5F034FF804A24D0C4540FF975F05076
:102EC600A4FBAAF02402FFEA34FC8F82F583EDF01E
:102ED60090036AA3A3E0FEA3E0FFE42BFDEA34FC23
:102EE6008D82F583EEF0A3EFF0900366A3A3E0FED8
:102EF600A3E0FDAC06E975F050A42410FBE5F03420
:102F0600FCFA90035FE0540F75F008A42BFFE5F080
:102F16003A8F82F583ECF0A3EDF090035FE0C454A2
:102F26000F14601514601714601914601B14601DCB
:102F36002405701C43F601801743F610801243F7F0
:102F460001800D43F710800843FE01800343FE1005
:032F560053BA7FEC
:012F59002255
:1061D00046038200000000000046037C000000002F
:0261E0000000BD
:1053E000E4F5D875D906EF64017054EDB40A0050A5
:1053F0004E9053F8F828287302541602541A025497
:105400001E02542202542602542A02542E025432FE
:1054100002543602543CE4F5DA2275DA422275DA97
:10542000632275DA532275DA732275DA202275DA6F
:10543000102275DA302275DA49D2DE2275DA4C2272
:1064E600EF64017008AFFAEFFCAFEAEFFDAF05AE5F
:0164F60004A1
:0164F7002282
:0A004600EF64017004F5F9F5E922FA
:0541DA0090051DEFF04F
:1041DF00C2DEAFF9EFFFABE9EBA3CFF0A3EFF090A7
:1041EF00051DE070637E037FE81214187C007D0CC0
:1041FF00121406AB07AA06E4F9F890050EE0FCA32B
:10420F00E0FDA3E0FEA3E0FF121592AC06AD079010
:10421F00037CECF0A3EDF075DA49E5E904F5EA85E6
:10422F00F9FA90037CE0FEA3E0FF900383E02FFFF9
:10423F00900382E03EFE90051FE02FFF90051EE0E9
:10424F003E900382F0A3EFF090051DE064017057DC
:10425F007E037FE81214187C007D0C121406AB0746
:10426F00AA06E4F9F890050EE0FCA3E0FDA3E0FE3A
:10427F00A3E0FF12159290037EEEF0A3EFF075DB33
:10428F0049E5E904F5EA85F9FA900385E02FFF90F7
:10429F000384E03EFE90051FE02FFF90051EE03ED9
:0942AF00900384F0A3EFF0D2DECD
:0142B80022E3
:10516000AD07EDFB7A007020900382E0FEA3E0F52E
:10517000EAEEF5FA90037CE0FEA3E0FF900383E003
:105180002FF0900382E03EF0EB64014A7020900320
:1051900084E0FEA3E0F5EBEEF5FB90037EE0FEA3DA
:1051A000E0FF900385E02FF0900384E03EF0ED6493
:1051B000027020900386E0FEA3E0F5ECEEF5FC9093
:1051C0000380E0FEA3E0FF900387E02FF0900386CA
:0451D000E03EF022AB
:105EAF00EF7007ED24FF9288D2A8EF64017007ED21
:105EBF0024FF928AD2AAEFFD7C0064027003438F05
:105ECF0010ED64034C7003438F20ED64044C70039A
:045EDF00438F40228B
:0561E20042052E000043
:10604700E47BE07A2EF9F890050EE0FCA3E0FDA3CF
:10605700E0FEA3E0FF12159290052EEEF0A3EFF0FD
:0960670075DC48E4F5D9D2DE2213
:10631200AFF9EFFEADE9EDFF90052FE02FFF9005FD
:0C6322002EE03E8FECF5FC30DAFDC2DA14
:01632E00224C
:10645D00AB07AA06EB1BAE0270011A4E6005126364
:04646D001280F12286
:10544000EDFB7A0064017025EFC4540F2410FDE4D5
:1054500034FE8D82F583C083C082E0FEEF540FFFDF
:10546000F87401088002C333D8FC4E8028EB4A70E0
:1054700029EFC4540F2410FDE434FE8D82F583C05F
:1054800083C082E0FEEF540FFFF87401088002C36E
:0B54900033D8FCF45ED082D083F02201
:1022D900ED600302237CEF54F0F9FB7A007013EFF1
:1022E900540FFEF87401088002C333D8FCF45293EA
:1022F9005294EB64104A7013EF540FFEF8740108FE
:102309008002C333D8FCF452915292E964207013CD
:10231900EF540FFEF87401088002C333D8FCF4525D
:10232900955296E9FB7A0064307013EF540FFEF86A
:102339007401088002C333D8FCF452B152B2EB6481
:10234900404A7013EF540FFEF87401088002C3333A
:10235900D8FCF452B352B4E964506003022589EF02
:10236900540FFEF87401088002C333D8FCF452C933
:1023790052CA22ED6401600302242CEF54F0F9FBE8
:102389007A007015EF540FFEF87401088002C33308
:10239900D8FCFEF45293EE4294EB64104A7015EFA8
:1023A900540FFEF87401088002C333D8FCFEF452BE
:1023B90091EE4292E964207015EF540FFEF8740112
:1023C900088002C333D8FCFEF45295EE4296E9FB2D
:1023D9007A0064307015EF540FFEF874010880021A
:1023E900C333D8FCFEF452B1EE42B2EB64404A70FA
:1023F90015EF540FFEF87401088002C333D8FCFEB0
:10240900F452B3EE42B4E964506003022589EF54F3
:102419000FFEF87401088002C333D8FCFEF452C9D8
:10242900022586ED640260030224DDEF54F0F9FB16
:102439007A007015EF540FFEF87401088002C33357
:10244900D8FCFE4293EEF45294EB64104A7015EFF7
:10245900540FFEF87401088002C333D8FCFE429180
:10246900EEF45292E964207015EF540FFEF87401EE
:10247900088002C333D8FCFE4295EEF45296E9FB7C
:102489007A0064307015EF540FFEF8740108800269
:10249900C333D8FCFE42B1EEF452B2EB64404A7049
:1024A90015EF540FFEF87401088002C333D8FCFEFF
:1024B90042B3EEF452B4E964506003022589EF5443
:1024C9000FFEF87401088002C333D8FCFE42C9EE3E
:1024D900F452CA22ED64036003022589EF54F0FD2A
:1024E9007C007014EF540FFEF87401088002C333A6
:1024F900D8FCFE4293EE4294ED64104C7014EF54F4
:102509000FFEF87401088002C333D8FCFE4291EE35
:102519004292EF54F064207014EF540FFEF87401E6
:10252900088002C333D8FCFE4295EE4296EF54F080
:10253900FD7C0064307014EF540FFEF874010880BC
:1025490002C333D8FCFE42B1EE42B2ED64404C7096
:1025590014EF540FFEF87401088002C333D8FCFE4F
:1025690042B3EE42B4EF54F064507014EF540FFECE
:10257900F87401088002C333D8FCFE42C9EE42CA8E
:01258900222F
:0665E6002564002566009B
:0A659800C2B5C2B3120006D2B5224C
:0A65A200C2B5D2B3120006D2B52232
:0461ED00AD07AC0648
:1061F100EC900530F0A3EFF0C2B5D2B3900530E0DA
:0E620100FF120006900531E0FF120006D2B534
:01620F00226C
:10537F0090043CEEF0A3EFF0A3ECF0A3EDF0A3EA62
:10538F00F0A3EBF07F2A126598E4FF1265A2900458
:10539F003CA3E02402FF1265A2E4FF1265A2900471
:1053AF0040A3E02402FF1265A27F2B126598E4FF51
:1053BF001265A290043EA3E004FF1265A2E4FF125F
:1053CF0065A2900442A3E004FF1265A27F2C026540
:0153DF009835
:08549B00900516EEF0A3EFF0FE
:1054A300900442E4F0A3749FF07B7F7A00E4FDFC58
:1054B300FFFE12537FE4900518F0900518E0C394A3
:1054C300A074809480502BE4A3F0900519E0C3945A
:1054D30080748094805013900516E0FEA3E0FF12C1
:1054E30061ED900519E004F080E0900518E004F008
:0254F30080C86F
:0154F5002294
:1029C40090046F7412F0E4A3F0A3F0A3F07B117DE4
:1029D400107F01123B48C2B27F0A7E0012645DD2AE
:1029E400B27F787E0012645D7F111265987F787ED5
:1029F4000012645D7FB11265987F011265A27F2C7D
:102A04001265A27F2D1265A27FB21265987F011212
:102A140065A27F2C1265A27F2D1265A27FB3126579
:102A2400987F011265A27F2C1265A27F2D1265A2E8
:102A34007F011265A27F2C1265A27F2D1265A27FF1
:102A4400B41265987F071265A27FC01265987FA2B1
:102A54001265A27F021265A27F841265A27FC11251
:102A640065987FC51265A27FC21265987F0A1265B8
:102A7400A2E4FF1265A27FC31265987F8A1265A241
:102A84007F2A1265A27FC41265987F8A1265A27F8D
:102A9400EE1265A27FC51265987F0E1265A27F367D
:102AA400126598E4701E14600E14600F14601024F4
:102AB4000370117FC0800AE4FF80067FA080027F3C
:102AC400601265A27FE01265987F0F1265A27F1ADB
:102AD4001265A27F0F1265A27F181265A27F2F12C2
:102AE40065A27F281265A27F201265A27F2212654B
:102AF400A27F1F1265A27F1B1265A27F231265A20B
:102B04007F371265A2E4FF1265A27F071265A27FD8
:102B1400021265A27F101265A27FE11265987F0FF1
:102B24001265A27F1B1265A27F0F1265A27F171286
:102B340065A27F331265A27F2C1265A27F291265DC
:102B4400A27F2E1265A27F301265A27F301265A289
:102B54007F391265A27F3F1265A2E4FF1265A27F4E
:102B6400071265A27F031265A27F101265A27F2A55
:102B7400126598E4FF1265A27F021265A2E4FF12B7
:102B840065A27F821265A27F2B126598E4FF12650D
:102B9400A27F031265A2E4FF1265A27F831265A2DD
:102BA4007FF01265987F011265A27FF6126598E4A2
:102BB400FF1265A27F3A1265987F051265A27F29EC
:0A2BC40012659874FFFFFE02549B97
:105C1E009004B7EEF0A3EFF09004BBEAF0A3EBF024
:105C2E009004B9ECF0A3EDF09004B7E0FAA3E0FB1A
:105C3E00FFAE02C007A3E0FFA3E0900442CFF0A3A3
:105C4E00EFF0D00712537F9004BBE0FEA3E0FF02FB
:025C5E0061EDF6
:06401A00F583E02430FBF9
:10402000900444EEF0A3EFF0A3ECF0A3EDF0A3EBCB
:01403000F09F
:10403100E4A3F0900449E0F9C394107480948040A3
:10404100030240F9E9FF900447E02FFD900446E0A8
:104051003400FC900445E02407FB900444E0340064
:10406100FA7E00900446E0F8A3E02FFFEE389004BA
:1040710042F0A3EFF0900444E0FEA3E0FF12537F6F
:10408100900448E0FF3395E0FEEFC4F8540FC86890
:10409100FFEEC454F048FE74962FF58274FE3EF58F
:1040A10083C083C082900449E0D082D0832582F509
:1040B10082E43583F583E49390044BF0E490044A61
:1040C100F090044AE0C39408748094805021A3E0E6
:1040D10030E0067F007EF8800474FFFFFE1261ED80
:1040E10090044BE0C313F090044AE004F080D290B6
:0840F1000449E004F002403430
:0140F90022A4
:104F890090040FEEF0A3EFF0A3ECF0A3EDF0A3EB88
:074F9900F0A3EAF0A3E9F028
:104FA000E4A3F0A3F0900413E0FBA3E0FAA3E0F97C
:104FB000A3E0FEA3E0FFF5828E831213A5FB603E03
:104FC000EF7803C333CE33CED8F9FF900410E02F2F
:104FD000FF90040FE03EFE900412E0C4F8540FC8A6
:104FE00068FD900411E0C454F048FC124020900485
:0E4FF00017E004F070AF900416E004F080A704
:014FFE002290
:10439600900418EEF0A3EFF0A3ECF0A3EDF0A3EB7E
:0143A600F026
:1043A7003395E0C36480948090041BE0C4F8540FF5
:1043B700C868FD90041AE0C454F048FC900418E063
:1043C700FEA3E0FF500E7B2D12402090041CE0F46A
:1043D70004F080057B2012402090041CE0FF75F05C
:1043E7006412136A90041DF0EF75F00A12136AFF46
:1043F70075F00A12136AAFF090041EEFF090041CD8
:10440700E0FF75F00A12136AAFF090041FEFF0E4B3
:10441700A3F0900420E0FBFF7E00C3940374809414
:10442700805045EF2401FFEE33FEEF7803C333CE10
:1044370033CED8F9FF900419E02FFF900418E03E1F
:10444700FE90041BE0C4F8540FC868FD90041AE0FE
:10445700C454F048FC741D2BF582E4340412401A4E
:08446700900420E004F080AA9B
:01446F00222A
:0E4E9B0090044CEEF0A3EFF0A3ECF0A3EDF0CA
:104EA900EB75F06484A3F0EB75F00A8475F00A845D
:104EB900A3E5F0F0EB75F00A84A3E5F0F0E4A3F0C4
:104EC900900453E0C3940374809480503BE0FB75D5
:104ED900F008A4FF90044DE02FFF90044CE035F05A
:104EE900FE90044FE0C4F8540FC868FD90044EE0EA
:104EF900C454F048FC74502BF582E4340412401A6F
:084F0900900453E004F080B8AD
:014F1100227D
:1036D400900388EEF0A3EFF0A3ECF0A3EDF0A3EADF
:0436E400F0A3EBF074
:1036E800C3EA6480948090038BE0C4F8540FC868E0
:1036F800FD90038AE0C454F048FC900388E0FEA3E0
:10370800E0FF501C7B2D12402090038CE0FEA3E0CC
:10371800FFC3E49FFFE49E90038CF0A3EFF08005C5
:103728007B2012402090038CE0FAA3E0FB7C277DED
:1037380010FFAE0212146DA3EFF07C037DE8AF0317
:10374800AE0212146D7C007D0A12146DA3EDF09088
:10375800038CA3E07C007D64FFAE0212146D7C0034
:103768007D0A12146D900390EDF07C007D0AAF0382
:10377800AE0212146D7C007D0A12146DA3EDF09058
:10378800038CE0FEA3E0FF7C007D0A12146D900319
:1037980092EDF0E4A3F0900393E0FBFF7E00C39466
:1037A80005748094805045EF2401FFEE33FEEF78D6
:1037B80003C333CE33CED8F9FF900389E02FFF90AF
:1037C8000388E03EFE90038BE0C4F8540FC868FD00
:1037D80090038AE0C454F048FC748E2BF582E434DC
:0C37E8000312401A900393E004F080AA42
:0137F40022B2
:0E46E5009003F1EEF0A3EFF0A3ECF0A3EDF0E4
:1046F3007C277D10AF03AE02121418A3EFF07C03E6
:104703007DE8AF03AE021214187C007D0A12141860
:10471300A3EDF07C007D64AF03AE021214187C009D
:104723007D0A121418A3EDF07C007D0AAF03AE02DC
:104733001214187C007D0A121418A3EDF0AE02AF18
:10474300037C007D0A121418A3EDF0E4A3F0900398
:10475300FAE0C3940574809480503BE0FB75F00845
:10476300A4FF9003F2E02FFF9003F1E035F0FE90F9
:1047730003F4E0C4F8540FC868FD9003F3E0C45495
:10478300F048FC74F52BF582E4340312401A9003CD
:06479300FAE004F080B81A
:0147990022FD
:0E3D54009002B7EEF0A3EFF0A3ECF0A3EDF0B9
:103D62009002BFE0FFC3740A9F7480F898500374F6
:103D72000AF09002BFE004F09002BBE0FCA3E0FD79
:103D8200A3E0FEA3E0FFE4FBFAF9F8D312163240F7
:103D9200319001D174FFF0A37465F0A374E6F09042
:103DA20002BBE0FCA3E0FDA3E0FEA3E0FF9001D490
:103DB20012168C0B7A0279C0121D379002E2EFF0D4
:103DC20080389002C07420F09001D174FFF0A37487
:103DD20065F0A374E6F09002BBE0FCA3E0FDA3E073
:103DE200FEA3E0FF9001D412168C7B017A0279C106
:103DF200121D379002E2EFF0801E9002BFE0FF90AA
:103E020002E2E0FEC39F501574C02EF582E4340234
:103E1200F5837420F09002E2E004F080DD74C02F9C
:103E2200F582E43402F583E4F09002B7E0FEA3E009
:103E3200FFA3E0FCA3E0FD7B017A0279C0024F8977
:0E31100090022AEEF0A3EFF0A3ECF0A3EDF096
:10311E00900233E0FFC374069F7480F898500374D6
:10312E0006F0900232E0FFC3740A9F7480F8985044
:10313E0003740AF090022EE0FCA3E0FDA3E0FEA3D0
:10314E00E0FFE4FBFAF9F812113C9001D160314036
:10315E002F74FFF0A37465F0A374E9F090022EE0D3
:10316E00FCA3E0FDA3E0FEA3E0FF9001D412168CB9
:10317E007B017A027935121D37900234EFF08030E0
:10318E0074FFF0A37465F0A374E9F090022EE0FCD6
:10319E00A3E0FDA3E0FEA3E0FF9001D412168C7B0A
:1031AE00017A027936121D37900234EFF0E004F006
:1031BE00900234E024F9FD900232E0FEC3ED9E143D
:1031CE00900257F0900233E0AE052E04900258F0B4
:1031DE00900257E0FF3395E0FED3E49FEE6480F853
:1031EE007480984022A3E0FF3395E0FE74352FF5EE
:1031FE008274023EF5837420F0900258E004F09041
:10320E000257E004F080C990022EE0FCA3E0FDA37B
:10321E00E0FEA3E0FFE4FBFAF9F812113C9002572E
:10322E0060174015E0FF3395E0FE74352FF582747C
:10323E00023EF583742DF08013E0FF3395E0FE74AB
:10324E00352FF58274023EF5837420F0900258E01B
:10325E00FF3395E0FE74352FF58274023EF583E45C
:10326E00F090022AE0FEA3E0FFA3E0FCA3E0FD7BCA
:08327E00017A027935024F8943
:0B3916009003D0EBF0A3EAF0A3E9F06F
:1039210074FFFFFE12549BE49003D7F0A3F0E490E0
:1039310003D5F0A3F09003D5E0FAA3E0FB7C007D72
:1039410028FFAE02121406C006C007A3E0FEA3E0E2
:10395100FF121406C006C007AF03AE02121406EF31
:103961002427FBE43EFA9003D7E0FEA3E0FF121404
:1039710006EF2427FFE43E900442F0A3EFF0D005C8
:10398100D004D007D00612537FE49003D3F0A3F004
:103991009003D4E025E0FF9003D3E033FE9003D001
:1039A100E0FBA3E0FAA3E0F98F828E831213A590C6
:1039B10003DAF0E92FF9EA3EFA9000011213A5901B
:1039C10003D9F0FEA3E0FDEDFF1261ED9003D4E019
:1039D10004F070069003D3E004F0C39003D4E094A4
:1039E100409003D3E06480948640A59003D6E00420
:1039F100F070069003D5E004F0C39003D6E0940381
:103A01009003D5E06480948050030239369003D846
:103A1100E004F070069003D7E004F0C39003D8E00F
:0F3A210094049003D7E064809480500302392FFF
:013A30002273
:10009600000000000000000000000000000000005A
:1000A6000000000808080808080800000808000002
:1000B6000048242412000000000000000000000098
:1000C6000000004848487E2424247E24242400007E
:1000D6000000103C5252121C30505052523C10102C
:1000E600000000222515150D2A58545452220000EE
:1000F6000000000C1212120A76252919916E0000D2
:1001060000060404020000000000000000000000D9
:1001160000402010100808080808081010204000A9
:10012600000204080810101010101008080402003D
:100136000000000008086B1C1C6B0808000000008B
:100146000000000000101010FE101010000000004B
:100156000000000000000000000000000604040289
:1001660000000000000000007E000000000000000B
:10017600000000000000000000000000060600006D
:100186000000402020201010080808040402020085
:100196000000001824424242424242422418000013
:1001A600000000101C10101010101010107C000021
:1001B6000000003C4242424020100804427E0000FB
:1001C6000000003C4242402018204042423C0000D1
:1001D60000000020303028242422FE2020F80000D1
:1001E6000000007E0202021E22404042221C000045
:1001F600000000182402023A4642424244380000F7
:100206000000007E422020101008080808080000A0
:100216000000003C4242422418244242423C000074
:100226000000001C22424242625C4040241800004A
:100236000000000000001818000000001818000058
:100246000000000000000008000000000008080888
:10025600000000402010080402040810204000009E
:100266000000000000007E00007E0000000000008C
:1002760000000002040810204020100804020000BC
:100286000000003C424246201010100018180000E2
:100296000000001C225A55555555553A423C00005F
:1002A6000000000808181414243C224242E700000B
:1002B6000000001F2222221E22424242221F00006C
:1002C6000000007C4242010101010142221C0000A3
:1002D6000000001F2242424242424242221F0000C8
:1002E6000000003F4212121E12120242423F00005C
:1002F6000000003F4212121E121202020207000004
:100306000000003C2222010101712122221C000072
:10031600000000E7424242427E42424242E700007B
:100326000000003E0808080808080808083E000003
:100336000000007C10101010101010101010110F7B
:100346000000007722120A0E0A12122222770000FB
:10035600000000070202020202020202427F0000BF
:100366000000007736363636362A2A2A2A6B0000EF
:10037600000000E346464A4A525252626247000073
:100386000000001C2241414141414141221C000024
:100396000000003F424242423E02020202070000C3
:1003A6000000001C224141414141414D321C600088
:1003B6000000003F4242423E1212222242C7000083
:1003C6000000007C4242020418204042423E0000E7
:1003D6000000007F4908080808080808081C0000F3
:1003E600000000E74242424242424242423C000092
:1003F600000000E7424222242414141808080000D2
:100406000000006B2A2A2A2A2A3614141414000023
:10041600000000E7422424181818242442E70000AC
:10042600000000772222141408080808081C00009F
:100436000000007E2120101008040442423F000004
:100446000078080808080808080808080808780056
:100456000000020404040808081010202020404070
:10046600001E1010101010101010101010101E008A
:10047600001824000000000000000000000000003A
:1004860000000000000000007E00000000000000E8
:100496000006080000000000000000000000000048
:1004A600000000000000001C22302C22326C0000EC
:1004B600000000000302021A26424242261A0000E9
:1004C6000000000000000038440202024438000028
:1004D600000000006040407C4242424262DC000074
:1004E600000000000000003C42427E02423C000048
:1004F600000000003048083E08080808083E0000D2
:10050600000000000000007C22221C023C42423C0B
:10051600000000000302023A4642424242E700005F
:100526000000000C0C00000E08080808083E000039
:100536000000003030000038202020202020221E1D
:100546000000000003020272120A0E122277000057
:10055600000000080E08080808080808083E000001
:10056600000000000000007F9292929292B7000075
:10057600000000000000003B4642424242E7000005
:10058600000000000000003C42424242423C0000A3
:10059600000000000000001B26424242261A020705
:1005A600000000000000005864424242645840E0E7
:1005B60000000000000000774C040404041F000043
:1005C600000000000000007C42023C40423E000069
:1005D600000000000008083E08080808483000002F
:1005E60000000000000000634242424262DC00005C
:1005F6000000000000000077222214140808000002
:1006060000000000000000DB91525A2A242400005A
:10061600000000000000006E241818182476000060
:1006260000000000000000E742242418180808060D
:10063600000000000000007E22100808447E000032
:1006460000C0202020202020102020202020C000B4
:100656001010101010101010101010101010101094
:10066600000304040404040408040404040403004A
:10067600045A2000000000000000000000000000F6
:100686000000000000000000002F0000000007002E
:10069600070000147F147F1400242A7F2A120062A8
:1006A6006408132300364955225000000503000054
:1006B60000001C224100000041221C000014083EDC
:1006C60008140008083E0808000000A060000008A2
:1006D60008080808000060600000002010080402F6
:1006E600003E5149453E0000427F400000426151B4
:1006F6004946002141454B31001814127F1000274E
:1007060045454539003C4A49493000017109050310
:1007160000364949493600064949291E0000363641
:1007260000000000563600000008142241000014A4
:100736001414141400004122140800020151090681
:1007460000324959513E007C1211127C007F494902
:100756004936003E41414122007F4141221C007F33
:1007660049494941007F09090901003E4149497A41
:10077600007F0808087F0000417F410000204041BB
:100786003F01007F08142241007F40404040007F27
:10079600020C027F007F0408107F003E4141413E6B
:1007A600007F09090906003E4151215E007F0919B3
:1007B60029460046494949310001017F0101003FB0
:1007C6004040403F001F2040201F003F4038403F30
:1007D6000063140814630007087008070061514994
:1007E600454300007F41410000552A552A55000027
:1007F60041417F00000402010204004040404040A5
:10080600000001020400002054545478007F48443C
:10081600443800384444442000384444487F003873
:100826005454541800087E0901020018A4A4A47C9C
:10083600007F080404780000447D40000040808466
:100846007D00007F102844000000417F4000007CAE
:1008560004180478007C08040478003844444438BA
:1008660000FC242424180018242418FC007C080406
:10087600040800485454542000043F444020003CDF
:100886004040207C001C2040201C003C4030403C66
:10089600004428102844001CA0A0A07C00446454F6
:1008A6004C4414141414141400000000000000003A
:1008B6000000000000000000000000F8000000003A
:1008C600000000333000000000100C06100C06007B
:1008D600000000000000000040C07840C0784000E2
:1008E600043F04043F040400007088FC0830000044
:1008F600001820FF211E0000F008F000E01800009C
:1009060000211C031E211E0000F008887000000054
:100916001E2123241927211010160E0000000000A6
:100926000000000000000000000000E018040200C3
:10093600000000071820400000020418E000000034
:100946000040201807000000404080F08040400032
:100956000202010F01020200000000F00000000088
:100966000101011F0101010000000000000000005C
:1009760080B07000000000000000000000000000D1
:10098600000101010101010100000000000000005A
:1009960000303000000000000000000080601804F5
:1009A600006018060100000000E010080810E000D2
:1009B600000F102020100F00001010F8000000009B
:1009C6000020203F202000000070080808887000E2
:1009D6000030282422213000003008888848300062
:1009E6000018202020110E000000C02010F8000082
:1009F60000070424243F240000F80888880808001B
:100A06000019212020110E0000E01088881800002F
:100A1600000F112020110E0000380808C838080001
:100A26000000003F00000000007088080888700081
:100A3600001C222121221C0000E010080810E00002
:100A46000000312222110F00000000C0C00000008B
:100A560000000030300000000000008000000000B0
:100A660000008060000000000000804020100800A8
:100A76000001020408102000404040404040400071
:100A8600040404040404040000081020408000004C
:100A96000020100804020100007048080808F00051
:100AA6000000003036010000C030C828E810E00021
:100AB6000718272423140B000000C038E0000000AC
:100AC600203C23020227382008F888888870000016
:100AD600203F202020110E00C030080808083800EA
:100AE600071820202010080008F808080810E00061
:100AF600203F202020100F0008F88888E808100002
:100B0600203F20202320180008F88888E8081000D5
:100B1600203F200003000000C0300808083800000D
:100B260007182020221E020008F808000008F8080E
:100B3600203F210101213F20000808F80808000095
:100B46000020203F2020000000000808F8080800C8
:100B5600C08080807F00000008F888C02818080040
:100B6600203F20012638200008F808000000000079
:100B7600203F20202020300008F8F800F8F8080070
:100B8600203F003F003F200008F830C00008F8086A
:100B9600203F200007183F00E01008080810E0007A
:100BA6000F10202020100F0008F808080808F00091
:100BB600203F210101010000E01008080810E000B4
:100BC6000F18242438504F0008F888888888700049
:100BD600203F2000030C30200070880808083800E9
:100BE6000038202121221C00180808F808081800DF
:100BF6000000203F2000000008F808000008F80860
:100C0600001F202020201F000878880000C8380810
:100C1600000007380E010000F80800F80008F80088
:100C2600033C0700073C0300081868808068180822
:100C360020302C03032C30200838C800C8380800A0
:100C46000000203F2000000010080808C8380800EF
:100C56002038262120201800000000FE0202020093
:100C66000000007F40404000000C30C00000000043
:100C7600000000010638C00000020202FE0000006B
:100C8600004040407F000000000004020202040011
:100C9600000000000000000000000000000000004E
:100CA6008080808080808080000202040000000036
:100CB600000000000000000000008080808000002E
:100CC6000019242222223F2008F80080800000001C
:100CD600003F112020110E000000008080800000DF
:100CE600000E112020201100000000808088F800EE
:100CF600000E112020103F20000080808080000020
:100D0600001F222222221300008080F08888881883
:100D16000020203F2020000000008080808080008E
:100D2600006B94949493600008F800808080000023
:100D3600203F210000203F200080989800000000FE
:100D46000020203F2020000000000080989800002E
:100D560000C08080807F000008F80000808080004E
:100D6600203F24022D302000000808F80000000073
:100D76000020203F2020000080808080808080002E
:100D8600203F20003F20003F8080008080800000C0
:100D9600203F210000203F2000008080808000004E
:100DA600001F202020201F0080800080800000007F
:100DB60080FFA12020110E000000008080808000AE
:100DC600000E112020A0FF8080808000808080009F
:100DD60020203F21200001000000808080808000CC
:100DE6000033242424241900008080E08080000041
:100DF6000000001F2020000080800000008080008E
:100E0600001F202020103F208080800000808080EE
:100E160000010E300806010080800080008080807E
:100E26000F300C030C300F000080800080808000A3
:100E36000020312E0E3120008080800000808080CE
:100E460080818E701806010000808080808080007E
:100E56000021302C2221300000000000807C02029C
:100E660000000000003F404000000000FF000000BE
:100E760000000000FF0000000002027C800000006D
:100E86000040403F00000000000601010202040489
:080E9600000000000000000054
:10615A00E4900541F0900541E064126017E4FB7D8C
:10616A00757F69125D61900541EFF07F0A7E00122A
:04617A00645D80E1FF
:01617E0022FE
:1052B3007F0A7E0012645D12615A7B807D6B7F6979
:1052C3001263697F027E0012645DE4FB7D6B7F697C
:1052D300125D61EF20E7F37B017D6B7F69126369E8
:1052E300E4FB7D6C7F691263697B017D1A7F691220
:1052F30063697B077D197F691263697B187D1B7F57
:10530300691263697B107D1C7F691263697B037D6E
:065313001D7F69026369C1
:10574A007B017A0479BD9004867406F0E4A3F07DA7
:10575A003B7F69124E229004BDE0FEA3E0FDEDFFFF
:10576A00900394EEF0A3EFF09004BFE0FEA3E0FDF7
:10577A00EDFF900396EEF0A3EFF09004C1E0FEA3D4
:0C578A00E0FDEDFF900398EEF0A3EFF0BF
:0157960022F0
:105797007B017A0479C39004867406F0E4A3F07D54
:1057A700437F69124E229004C3E0FEA3E0FDEDFFA4
:1057B70090039AEEF0A3EFF09004C5E0FEA3E0FD9E
:1057C700EDFF90039CEEF0A3EFF09004C7E0FEA37B
:0C57D700E0FDEDFF90039EEEF0A3EFF06C
:0157E30022A3
:0660C000C2A7EF4480FFBF
:1060C600E4FEEEC39408748094805015EF3392A3D7
:1060D600EF25E0FFC2A5D2A5A2A4E4334FFF0E80B0
:0160E600E1D8
:0160E7002296
:0D001600C2A71260C6AF051260C6D2A722B5
:0F657A001260C0E4FF1260C6EF1213D2D2A72244
:0B5CE300900505EBF0A3EAF0A3E9F048
:105CEE001260C0E4FDFC900508E0FFC3ED9FEC944C
:105CFE0000501FE4FF1260C6900505E0FBA3E0FA1A
:105D0E00A3E0F98D828C83EF1213E40DBD00010C1C
:045D1E0080D4D2A7B4
:015D2200225E
:106471007B017A0579427F7512657A900542E06465
:036481001270EDA9
:0164840022F5
:105601001264717D807F6B1200167F027E0012642E
:105611005D7B017A0579437F6B12657A900543E0E2
:10562100644170ED7D017F6B1200161D7F6C1200CD
:10563100160D7F1A1200167D077F191200167D18AC
:105641007F1B1200167D107F1C1200167D037F1D2B
:035651000200163E
:1059A4007B017A0479C99005087406F07F3B125C88
:1059B400E39004C9E0FEA3E0FDEDFF900394EEF054
:1059C400A3EFF09004CBE0FEA3E0FDEDFF9003967F
:1059D400EEF0A3EFF09004CDE0FEA3E0FDEDFF9028
:0759E4000398EEF0A3EFF0C1
:0159EB002299
:1059EC007B017A0479CF9005087406F07F43125C32
:1059FC00E39004CFE0FEA3E0FDEDFF90039AEEF000
:105A0C00A3EFF09004D1E0FEA3E0FDEDFF90039C2A
:105A1C00EEF0A3EFF09004D3E0FEA3E0FDEDFF90D9
:075A2C00039EEEF0A3EFF072
:015A33002250
:0E650900EBF0A3EAF0A3E9F0C2A7EF4480FF95
:0365170002000679
:10002600900544EDF0C2A7126517900544E0FF1253
:050036006517D2A722AE
:10632F00900520126509E4FF126517900520E0FB28
:0D633F00A3E0FAA3E0F9EF1213D2D2A722D7
:0356A70090047BF1
:1056AA00126509E490047FF0A3F090047EE0FFC342
:1056BA00900480E09F90047FE09400502FE4FF1252
:1056CA00651790047BE0FBA3E0FAA3E0F990047F5E
:1056DA00E0FCA3E0F5828C83EF1213E4900480E0EF
:0E56EA0004F070C690047FE004F080BED2A7EA
:0156F800228F
:10621000E4900545F0900545E0641260147B017A36
:106220000579457F7512632F7F0A7E0012645D80B9
:01623000E489
:01623100224A
:104FFF00E4900546F07F0AFE12645D90046F741210
:10500F00F0E4A3F0A3F0A3F07B117D107F01123B1E
:10501F00481262107D807F6B1200267F027E001285
:10502F00645D7B017A0579467F6B12632F9005468D
:10503F00E0644170ED7D017F6B120026E4FD7F6C13
:10504F001200267D017F1A1200267D077F1912009C
:10505F00267D187F1B1200267D107F1C1200267DD7
:06506F00037F1D02002674
:105A34007B017A0479D590047E7406F07F3B12567C
:105A4400A79004D5E0FEA3E0FDEDFF900394EEF0F3
:105A5400A3EFF09004D7E0FEA3E0FDEDFF900396E2
:105A6400EEF0A3EFF09004D9E0FEA3E0FDEDFF908B
:075A74000398EEF0A3EFF030
:015A7B002208
:105A7C007B017A0479DB90047E7406F07F43125626
:105A8C00A79004DBE0FEA3E0FDEDFF90039AEEF09F
:105A9C00A3EFF09004DDE0FEA3E0FDEDFF90039C8E
:105AAC00EEF0A3EFF09004DFE0FEA3E0FDEDFF903D
:075ABC00039EEEF0A3EFF0E2
:015AC30022C0
:01004100229C
:07641C00C2A5126423D2A502
:0E6423007F147E00EF1FAC0670011E4C70F659
:016431002248
:0F658900D2A3D2A5126423C2A3126423C2A522F7
:0A65AC00C2A312641CD2A3026423F0
:1063A000AD07C2A5126423ED6004C2A38002D2A38C
:0A63B000D2A5126423C2A5026423E3
:1064320012641C30A306C2A5E4FEFF22C2A51264A8
:06644200237E007F012211
:0460E800E025E0FFD0
:0260EC00AD07FE
:1060EE007B08AF031BEF6015ED30E704D2A38002EF
:1060FE00C2A3ED25E0FD12641EC2A580E502643246
:025E7A00AD0772
:105E7C00E4FBC2A5126423D2A3E4FAEAC394087427
:105E8C00809480501112642312641CEB25E0FB30CB
:105E9C00A3010B0A80E5C2A5126423AF051263A00F
:025EAC00AF0342
:015EAE0022D1
:10636900900547EFF0AA03A9051265891260E8AF05
:0C637900011260ECAF021260EC0265AC97
:095D6100900548EDF0AA07A90322
:105D6A00126589EA25E0FF1260ECE0FF1260ECE9B7
:105D7A00640170031265AC126589AF02EF25E04435
:105D8A0001FF1260ECE4FF125E7AAD071265ACAF58
:015D9A000503
:015D9B0022E5
:104E2200900481EFF0A3EDF0A3EBF0A3EAF0A3E985
:104E3200F01265899004811260E8A3E0FF1260EC31
:104E4200900487E0640170031265AC1265899004D6
:104E520081E025E04401FF1260EC900486E014F04A
:104E620060207F01125E7A900483E0FBA3E0FAA344
:104E7200E0F9EF1213D2900484E475F0011214A346
:104E820080D8E4FF125E7A900483E0FBA3E0FAA3E9
:094E9200E0F9EF1213D20265AC45
:10653C007D017F0E1258C97D0A7C00E4FF0241DA0E
:104A440090050AEBF0A3EAF0A3E9F0900509EFF072
:104A5400E490050DF0FD12588D900509E0FF7DFFEF
:104A640012588D900509E0FF7D0112588D900509BB
:104A7400E0FFE4FD12588DE490050DF090050DE083
:104A8400FFC3948074809480504C90050AE0FBA38B
:104A9400E0FAA3E0F975F002EFA4F58285F0831241
:104AA40014CF7D00900509E0FF12588D90050AE0AF
:104AB400FBA3E0FAA3E0F9A3E075F002A4F5828574
:104AC400F0831214CFFD900509E0FF12588D900574
:064AD4000DE004F080A6D5
:014ADA0022B9
:105B0B00E4900549F0D2A0C2A1C2A0D2A1D2A0C2FA
:105B1B00A1F0900549E0C39480748094805027C213
:105B2B00A0E4FD7F0E125F9E900549E025E0240165
:105B3B00F582E43400F583EEF0A3EFF0D2A09005EC
:065B4B0049E004F080CCEB
:015B51002231
:0665EC0025640025660095
:0A65B600C2B5C2B3120006D2B5222E
:0A65C000C2B5D2B3120006D2B52214
:075FC9002428FFE03400FE74
:045FD000AD07AC0667
:105FD400EC900532F0A3EFF0C2B5D2B3900532E0F5
:0E5FE400FF120006900533E0FF120006D2B552
:015FF200228C
:10356E0090046F7412F0E4A3F0A3F0A3F07B117D2E
:10357E00107F01123B48D2B6C2B3C2B27FC87E00E2
:10358E0012645DD2B27F647E0012645D7F36126576
:10359E00B67FA01265C07F3A1265B67F051265C070
:1035AE007FB21265B67F0C1265C07F0C1265C0E447
:1035BE00FF1265C07F331265C07F331265C07FB7BF
:1035CE001265B67F351265C07FBB1265B67F3712A6
:1035DE0065C07FC01265B67F2C1265C07FC21265B2
:1035EE00B67F011265C07FC31265B67F121265C029
:1035FE007FC41265B67F201265C07FC61265B67F86
:10360E000F1265C07FD01265B67FA41265C07FA170
:10361E001265C07FE01265B67FD01265C07F0412BE
:10362E0065C07F0D1265C07F111265C07F131265D4
:10363E00C07F2B1265C07F3F1265C07F541265C0DC
:10364E007F4C1265C07F181265C07F0D1265C07F5A
:10365E000B1265C07F1F1265C07F231265C07FE10C
:10366E001265B67FD01265C07F041265C07F0C1242
:10367E0065C07F111265C07F131265C07F2C126565
:10368E00C07F3F1265C07F441265C07F511265C076
:10369E007F2F1265C07F1F1265C07F1F1265C07F0E
:1036AE00201265C07F231265C07F211265B67F117F
:1036BE001265B67F787E0012645D7F291265B6743E
:0636CE00FFFFFE0251D4D3
:1056F900900454EEF0A3EFF0A3ECF0A3EDF0A3EACD
:10570900F0A3EBF07F2A1265B6900455E09004549B
:10571900125FC9900459E0900458125FC97F2B1297
:1057290065B6900457E02434FF900456125FCC907C
:10573900045BE02434FF90045A125FCC7F2C02658D
:01574900B6A9
:0851D4009004E7EEF0A3EFF0F8
:1051DC0090045AE4F0A37486F07BEF7A00E4FDFCB3
:1051EC00FFFE1256F9E49004E9F0A3F0E49004EB0E
:1051FC00F0A3F09004E7E0FEA3E0FF125FD0900470
:10520C00ECE004F070069004EBE004F0C39004ECC6
:10521C00E094879004EBE0940040D89004EAE0041A
:10522C00F070069004E9E004F0C39004EAE094F016
:08523C009004E9E0940040B485
:015244002247
:105C60009004EDEEF0A3EFF09004F1EAF0A3EBF076
:105C70009004EFECF0A3EDF09004EDE0FAA3E0FB6C
:105C8000FFAE02C007A3E0FFA3E090045ACFF0A349
:105C9000EFF0D0071256F99004F1E0FEA3E0FF0206
:025CA0005FD0D3
:0640FA00F583E02430FB19
:1041000090045CEEF0A3EFF0A3ECF0A3EDF0A3EBD2
:01411000F0BE
:10411100E4A3F0900461E0F9C394107480948040AA
:10412100030241D9E9FF90045FE02FFD90045EE0B6
:104131003400FC90045DE02407FB90045CE0340053
:10414100FA7E0090045EE0F8A3E02FFFEE389004C1
:104151005AF0A3EFF090045CE0FEA3E0FF1256F9E1
:10416100900460E0FF3395E0FEEFC4F8540FC86897
:10417100FFEEC454F048FE74962FF58274FE3EF5AE
:1041810083C083C082900461E0D082D0832582F510
:1041910082E43583F583E493900463F0E490046250
:1041A100F0900462E0C39408748094805021A3E0ED
:1041B10030E0067F007EF8800474FFFFFE125FD0BE
:1041C100900463E0C313F0900462E004F080D290A5
:0841D1000461E004F002411456
:0141D90022C3
:10507500900421EEF0A3EFF0A3ECF0A3EDF0A3EB89
:07508500F0A3EAF0A3E9F03B
:10508C00E4A3F0A3F0900425E0FBA3E0FAA3E0F97D
:10509C00A3E0FEA3E0FFF5828E831213A5FB603E16
:1050AC00EF7803C333CE33CED8F9FF900422E02F30
:1050BC00FF900421E03EFE900424E0C4F8540FC895
:1050CC0068FD900423E0C454F048FC1241009004A5
:0E50DC0029E004F070AF900428E004F080A7F3
:0150EA0022A3
:1044700090042AEEF0A3EFF0A3ECF0A3EDF0A3EB91
:01448000F04B
:104481003395E0C36480948090042DE0C4F8540F08
:10449100C868FD90042CE0C454F048FC90042AE064
:1044A100FEA3E0FF500E7B2D12410090042EE0F49C
:1044B10004F080057B2012410090042EE0FF75F08E
:1044C1006412136A90042FF0EF75F00A12136AFF59
:1044D10075F00A12136AAFF0900430EFF090042ED9
:1044E100E0FF75F00A12136AAFF0900431EFF0E4C7
:1044F100A3F0900432E0FBFF7E00C3940374809428
:10450100805045EF2401FFEE33FEEF7803C333CE35
:1045110033CED8F9FF90042BE02FFF90042AE03E20
:10452100FE90042DE0C4F8540FC868FD90042CE0FF
:10453100C454F048FC742F2BF582E434041240FA81
:08454100900432E004F080AAAE
:01454900224F
:0E4F1200900464EEF0A3EFF0A3ECF0A3EDF03A
:104F2000EB75F06484A3F0EB75F00A8475F00A84E5
:104F3000A3E5F0F0EB75F00A84A3E5F0F0E4A3F04C
:104F400090046BE0C3940374809480503BE0FB7545
:104F5000F008A4FF900465E02FFF900464E035F0B2
:104F6000FE900467E0C4F8540FC868FD900466E042
:104F7000C454F048FC74682BF582E434041240FAFF
:084F800090046BE004F080B81E
:014F88002206
:1037F5009003A0EEF0A3EFF0A3ECF0A3EDF0A3EAA5
:04380500F0A3EBF051
:10380900C3EA648094809003A3E0C4F8540FC868A5
:10381900FD9003A2E0C454F048FC9003A0E0FEA38D
:10382900E0FF501C7B2D1241009003A4E0FEA3E0B1
:10383900FFC3E49FFFE49E9003A4F0A3EFF080058B
:103849007B201241009003A4E0FAA3E0FB7C277DD2
:1038590010FFAE0212146DA3EFF07C037DE8AF03F5
:10386900AE0212146D7C007D0A12146DA3EDF09066
:1038790003A4A3E07C007D64FFAE0212146D7C00FA
:103889007D0A12146D9003A8EDF07C007D0AAF0348
:10389900AE0212146D7C007D0A12146DA3EDF09036
:1038A90003A4E0FEA3E0FF7C007D0A12146D9003DF
:1038B900AAEDF0E4A3F09003ABE0FBFF7E00C39414
:1038C90005748094805045EF2401FFEE33FEEF78B4
:1038D90003C333CE33CED8F9FF9003A1E02FFF9075
:1038E90003A0E03EFE9003A3E0C4F8540FC868FDAE
:1038F9009003A2E0C454F048FC74A62BF582E4348A
:0C390900031240FA9003ABE004F080AA27
:01391500228F
:0E479A009003FBEEF0A3EFF0A3ECF0A3EDF024
:1047A8007C277D10AF03AE02121418A3EFF07C0330
:1047B8007DE8AF03AE021214187C007D0A121418AB
:1047C800A3EDF07C007D64AF03AE021214187C00E8
:1047D8007D0A121418A3EDF07C007D0AAF03AE0227
:1047E8001214187C007D0A121418A3EDF0AE02AF63
:1047F800037C007D0A121418A3EDF0E4A3F09004E2
:1048080004E0C3940574809480503BE0FB75F00885
:10481800A4FF9003FCE02FFF9003FBE035F0FE902F
:1048280003FEE0C4F8540FC868FD9003FDE0C454CB
:10483800F048FC74FF2BF582E434031240FA90042C
:0648480004E004F080B85A
:01484E002247
:0E3E42009002E3EEF0A3EFF0A3ECF0A3EDF09E
:103E50009002EBE0FFC3740A9F7480F898500374DB
:103E60000AF09002EBE004F09002E7E0FCA3E0FD32
:103E7000A3E0FEA3E0FFE4FBFAF9F8D31216324008
:103E8000319001D174FFF0A37465F0A374ECF0904D
:103E900002E7E0FCA3E0FDA3E0FEA3E0FF9001D475
:103EA00012168C0B7A0279EC121D3790030EEFF08C
:103EB00080389002EC7420F09001D174FFF0A3746C
:103EC00065F0A374ECF09002E7E0FCA3E0FDA3E052
:103ED000FEA3E0FF9001D412168C7B017A0279EDEB
:103EE000121D3790030EEFF0801E9002EBE0FF9062
:103EF000030EE0FEC39F501574EC2EF582E43402ED
:103F0000F5837420F090030EE004F080DD74EC2F54
:103F1000F582E43402F583E4F09002E3E0FEA3E0EE
:103F2000FFA3E0FCA3E0FD7B017A0279EC0250756F
:0E328600900259EEF0A3EFF0A3ECF0A3EDF0F0
:10329400900262E0FFC374069F7480F89850037430
:1032A40006F0900261E0FFC3740A9F7480F898509E
:1032B40003740AF090025DE0FCA3E0FDA3E0FEA32A
:1032C400E0FFE4FBFAF9F812113C9001D1603140BF
:1032D4002F74FFF0A37465F0A374EFF090025DE027
:1032E400FCA3E0FDA3E0FEA3E0FF9001D412168C42
:1032F4007B017A027964121D37900263EFF080300B
:1033040074FFF0A37465F0A374EFF090025DE0FC29
:10331400A3E0FDA3E0FEA3E0FF9001D412168C7B92
:10332400017A027965121D37900263EFF0E004F030
:10333400900263E024F9FD900261E0FEC3ED9E1467
:10334400900286F0900262E0AE052E04900287F0AF
:10335400900286E0FF3395E0FED3E49FEE6480F8AC
:103364007480984022A3E0FF3395E0FE74642FF547
:103374008274023EF5837420F0900287E004F0909A
:103384000286E004F080C990025DE0FCA3E0FDA3A6
:10339400E0FEA3E0FFE4FBFAF9F812113C90028688
:1033A40060174015E0FF3395E0FE74642FF58274D6
:1033B400023EF583742DF08013E0FF3395E0FE7434
:1033C400642FF58274023EF5837420F0900287E046
:1033D400FF3395E0FE74642FF58274023EF583E4B6
:1033E400F0900259E0FEA3E0FFA3E0FCA3E0FD7B24
:0833F400017A027964025075B0
:105FF300E4FB7D6B7F681263697B077D197F681201
:106003006369E4FB7D197F68125D61EF64076009D2
:0A6013007F017E0012645D80E92227
:10595B007F647E0012645D125FF3E4FB7D6B7F68F6
:10596B001263697B077D197F681263697B047D1A5B
:10597B007F681263697B187D1B7F681263697B10DC
:10598B007D1C7F68126369E4FB7D6A7F6812636923
:09599B007B027D377F680263691D
:1057E4007B017A0479F39004867406F0E4A3F07DD7
:1057F4003B7F68124E229004F3E0FEA3E0FDEDFF30
:105804009003ACEEF0A3EFF09004F5E0FEA3E0FD0E
:10581400EDFF9003AEEEF0A3EFF09004F7E0FEA3EB
:0C582400E0FDEDFF9003B0EEF0A3EFF00C
:015830002255
:105831007B017A0479F99004867406F0E4A3F07D83
:10584100437F68124E229004F9E0FEA3E0FDEDFFD4
:105851009003B2EEF0A3EFF09004FBE0FEA3E0FDB5
:10586100EDFF9003B4EEF0A3EFF09004FDE0FEA392
:0C587100E0FDEDFF9003B6EEF0A3EFF0B9
:01587D002208
:0A65CA002D00200025640025660066
:05601D00F583E493FF90
:106022007E08C2B5D2B3C2A5AD061EED6014EF3034
:10603200E704D2A38002C2A3D2A5C2A5EF25E0FF46
:0460420080E6D2B56D
:016046002237
:10617F007E06C2B5D2B3C2A5AD061EED6014EF30D8
:10618F00E704D2A38002C2A3D2A5C2A5EF25E0FFE8
:04619F0080E6D2B50F
:0161A30022D9
:085F450054F0C4540F4410FF96
:105F4D007E08C2B5C2B3C2A5AD061EED6014EF301A
:105F5D00E704D2A38002C2A3D2A5C2A5EF25E0FF1C
:045F6D0080E6D2B543
:015F7100220D
:104DA000900488EEF0A3EFF0A3EBF0A3EAF0A3E900
:014DB000F012
:104DB10090048E7406F090048AE0FBA3E0FAA3E06D
:104DC100F990048EE0F582758300E4804E90048EA4
:104DD100E0604D14F0900488E0FAA3E0FB7C007DD4
:104DE1000AFFAE0212141890048DEDF07C007D0ACA
:104DF100AF03AE02121418900488EEF0A3EFF09006
:104E0100048DE02430FF90048AE0FBA3E0FAA3E0E4
:104E1100F990048EE0F582758300EF1213E480AD02
:014E2100226E
:1048FB00D2B5D2A5C2B27F327E0012645DD2B27F36
:10490B00AE125F4DE4FF125F4D7F10125F4D7F4083
:10491B00125F4D7F81125F4D7F7F125F4D7FA11222
:10492B005F4D7FC8125F4D7FA6125F4D7FA8125F50
:10493B004D7F3F125F4D7FD3125F4DE4FF125F4DF2
:10494B007FD5125F4D7F80125F4D7FD9125F4D7FF8
:10495B00F1125F4D7FDA125F4D7F12125F4D7FDBDD
:10496B00125F4D7F40125F4D7F20125F4D7F021211
:10497B005F4D7F8D125F4D7F14125F4D7FA4125FD1
:10498B004D7FA6125F4D7FAF125F4DE4FF125E436A
:06499B00E4FDFF0264854B
:10648500AC07ED24B0FF125F4DEC125F45EC540FE5
:04649500FF025F4D56
:025E4300AC07AA
:105E4500E4FBEBC39408748094805028EB24B0FFE6
:105E5500125F4D7F01125F4D7F10125F4DE4FAEA2C
:105E6500C39480748094805008AF041260220A8025
:045E7500EE0B80CEE2
:015E79002206
:1062B900AA07A905126485E924B0FF125F4DEA1205
:0E62C9005F45EA540FFF125F4DAF03026022E3
:1062D700AB07AA05126485EA24B0FF125F4DEB12E3
:0E62E7005F45EB540FFF125F4DE4FF02602293
:104B6C0090048FEFF0A3EDF0A3EBF0A3EAF0A3E930
:014B7C00F048
:104B7D00E4A3F0FCA3F0900491E0FBA3E0FAA3E022
:104B8D00F9900495E0F5827583001213A5605F24FA
:104B9D00E0900494F090048FE0D3947E7480948020
:104BAD004006E4F0A3E004F090048FE0FFA3E0FDE5
:104BBD00126485E4FCECC3940674809480502090BC
:104BCD000494E075F006A42486F582E5F03406F52C
:104BDD0083E5822CF582E4358312601D0C80D6901E
:0E4BED00048FE02406F0900495E004F0808828
:014BFB002297
:10461900900496EFF0A3EDF0A3EBF0A3EAF0A3E981
:01462900F0A0
:10462A00E4A3F0FCA3F0900498E0FBA3E0FAA3E073
:10463A00F990049CE0F5827583001213A5700302B9
:10464A0046E424E090049BF0900496E0D3947874B6
:10465A008094804006E4F0A3E004F0900496E0FF22
:10466A00A3E0FD126485E4FCECC394087480948092
:10467A00502090049BE075F010A42CF582E435F0EC
:10468A00F583E58224AEF582E583340812601D0CB9
:10469A0080D6900496E0FFA3E004FD126485E4FC52
:1046AA00ECC3940874809480502090049BE075F0C9
:1046BA0010A42CF582E435F0F583E58224B6F58260
:1046CA00E583340812601D0C80D6900496E0240815
:0A46DA00F090049CE004F00246306A
:0146E40022B3
:08610E00900433EFF0A3EDF063
:10611600AE02AF037B017A047935124DA0900433A9
:0E612600E0FFA3E0FD7B017A047936024B6CAA
:0E50EB009003DBEFF0A3EDF0A3EAF0A3EBF0EF
:1050F900C3EA6480948050259003DDE0FEA3E0FFBD
:10510900C3E49FFFE49E9003DDF0A3EFF09003DB7F
:10511900E0FFA3E0FD7BFF7A6579CA800E9003DB8F
:10512900E0FFA3E0FD7BFF7A6579CC124B6C90031D
:10513900DBE02406F09003DDE0FEA3E0FF7B017ACB
:105149000379DF124DA09003DBE0FFA3E0FD7B01B3
:075159007A0379E0024B6CC0
:0E3F300090030FEEF0A3EFF0A3ECF0A3EDF082
:103F3E00900317E0FFC3740A9F7480F898500374BF
:103F4E000AF0900317E004F0900313E0FCA3E0FDE9
:103F5E00A3E0FEA3E0FFE4FBFAF9F8D31216324019
:103F6E00319001D174FFF0A37465F0A374CEF0907C
:103F7E000313E0FCA3E0FDA3E0FEA3E0FF9001D459
:103F8E0012168C0B7A037918121D3790033AEFF044
:103F9E0080389003187420F09001D174FFF0A37450
:103FAE0065F0A374CEF0900313E0FCA3E0FDA3E054
:103FBE00FEA3E0FF9001D412168C7B017A037919CF
:103FCE00121D3790033AEFF0801E900317E0FF901A
:103FDE00033AE0FEC39F501574182EF582E43403A5
:103FEE00F5837420F090033AE004F080DD74182F0E
:103FFE00F582E43403F583E4F090030FA3E0FFA30E
:0C400E00A3E0FD7B017A037918024B6CE3
:0E33FC00900288EEF0A3EFF0A3ECF0A3EDF04A
:10340A00900291E0FFC374069F7480F89850037489
:10341A0006F0900290E0FFC3740A9F7480F89850F7
:10342A0003740AF090028CE0FCA3E0FDA3E0FEA383
:10343A00E0FFE4FBFAF9F812113C9001D160314047
:10344A002F74FFF0A37465F0A374D1F090028CE09E
:10345A00FCA3E0FDA3E0FEA3E0FF9001D412168CCA
:10346A007B017A027993121D37900292EFF0803035
:10347A0074FFF0A37465F0A374D1F090028CE0FCA1
:10348A00A3E0FDA3E0FEA3E0FF9001D412168C7B1B
:10349A00017A027994121D37900292EFF0E004F05B
:1034AA00900292E024F9FD900290E0FEC3ED9E1492
:1034BA009002B5F0900291E0AE052E049002B6F0AB
:1034CA009002B5E0FF3395E0FED3E49FEE6480F806
:1034DA007480984022A3E0FF3395E0FE74932FF5A1
:1034EA008274023EF5837420F09002B6E004F090F4
:1034FA0002B5E004F080C990028CE0FCA3E0FDA3D1
:10350A00E0FEA3E0FFE4FBFAF9F812113C9002B5E1
:10351A0060174015E0FF3395E0FE74932FF582742F
:10352A00023EF583742DF08013E0FF3395E0FE74BC
:10353A00932FF58274023EF5837420F09002B6E070
:10354A00FF3395E0FE74932FF58274023EF583E40F
:10355A00F0900288A3E0FFA3A3E0FD7B017A027941
:04356A0093024B6C11
:10177B00900350ECF0A3EDF0A3EBF0A3EAF0A3E998
:09178B00F090034EEEF0A3EFF024
:101794007E005407FF90035CEEF0A3EFF070179007
:1017A400034EE0FEA3E07803CEC313CE13D8F9FFB3
:1017B40090035AEE801890034EE0FEA3E07803CE27
:1017C400C313CE13D8F92401FFE43E90035AF0A3C7
:1017D400EFF0E4900356F0A3F090035AE0FEA3E088
:1017E400FF900356E0FCA3E0FDC39FEE6480F8EC99
:1017F4006480984003021D36E4FF126485E4A3F07C
:10180400A3F0900350E0FCA3E0FDC3900359E09DD6
:10181400900358E09C4003021D25E490035EF09081
:10182400035BE024FFFF90035AE034FFFE9003566D
:10183400E0FAA3E0FBC39FEE6480F8EA648098407A
:101844001590035CE0FEA3E0FF4E600AEF9401EE06
:1018540064809480404D90035EE0FFC007AE02EBCD
:101864007803C333CE33CED8F9FF12140690035253
:10187400E0FBA3E0FAA3E02FF9EA3EFA900358E074
:10188400FEA3E029F9EA3EFA12138CFF900355E017
:10189400FEEFD39E40047E0180027E00D0E04E9095
:1018A400035EF090035BE024FFFF90035AE034FFF3
:1018B400FE900356E0FCA3E0FDC39FEE6480F8ECC9
:1018C400648098401590035CE0FEA3E0FF4E600A3C
:1018D400EF9402EE64809480406390035EE0FFC066
:1018E40007AE04ED7803C333CE33CED8F9FF9003AB
:1018F40050E0FCA3E0FD121406A3E0FBA3E0FAA36E
:10190400E02FF9EA3EFA900358E0FEA3E029F9EA51
:101914003EFA900350E0FEA3E029F9EA3EFA1213DE
:101924008CFF900355E0FEEFD39E40047F018002BC
:101934007F00EF25E0FED0E04E90035EF090035B65
:10194400E024FFFF90035AE034FFFE900356E0FCCE
:10195400A3E0FDC39FEE6480F8EC6480984015908A
:10196400035CE0FEA3E0FF4E600AEF9403EE6480A4
:101974009480406C90035EE0FFC007AE04ED7803F2
:10198400C333CE33CED8F9FF900350E0FCA3E0FD7F
:10199400121406A3E0FBA3E0FAA3E02FF9EA3EFA4F
:1019A400900358E0FEA3E029F9EA3EFA900351E0DF
:1019B40025E0FF900350E033FEE92FF9EA3EFA12E6
:1019C400138CFF900355E0FEEFD39E40047F01800B
:1019D400027F00EF25E025E0FED0E04E90035EF0AC
:1019E40090035BE024FFFF90035AE034FFFE900372
:1019F40056E0FCA3E0FDC39FEE6480F8EC6480989D
:101A0400401590035CE0FEA3E0FF4E600AEF9404EF
:101A1400EE64809480406A90035EE0FFC007AE04E9
:101A2400ED7803C333CE33CED8F9FF900350E0FCF6
:101A3400A3E0FD121406A3E0FBA3E0FAA3E02FF950
:101A4400EA3EFA900358E0FEA3E029F9EA3EFA9050
:101A54000350E0FEA3E0F5828E8374031216C912CC
:101A640013A5FF900355E0FEEFD39E40047F018051
:101A7400027F00EF33333354F8FED0E04E90035E20
:101A8400F090035BE024FFFF90035AE034FFFE90E4
:101A94000356E0FCA3E0FDC39FEE6480F8EC648091
:101AA40098401590035CE0FEA3E0FF4E600AEF94BB
:101AB40005EE64809480406D90035EE0FFC007AE45
:101AC40004ED7803C333CE33CED8F9FF900350E04E
:101AD400FCA3E0FD121406A3E0FBA3E0FAA3E02FAD
:101AE400F9EA3EFA900358E0FEA3E029F9EA3EFA47
:101AF400900350E0FEA3E07802C333CE33CED8F98E
:101B040029F9EA3EFA12138CFF900355E0FEEFD355
:101B14009E40047F0180027F00EFC454F0FED0E0B9
:101B24004E90035EF090035BE024FFFF90035AE0C5
:101B340034FFFE900356E0FCA3E0FDC39FEE6480F7
:101B4400F8EC648098401590035CE0FEA3E0FF4E3F
:101B5400600AEF9406EE64809480406990035EE02E
:101B6400FFC007AE04ED7803C333CE33CED8F9FFFC
:101B7400900350E0FCA3E0FD121406A3E0FBA3E0F5
:101B8400FAA3E02FF9EA3EFA900358E0FEA3E02915
:101B9400F9EA3EFA900350E0FEA3E0F5828E8374E6
:101BA400051216C91213A5FF900355E0FEEFD39E4C
:101BB40040047F0180027F00EFC43354E0FED0E094
:101BC4004E90035EF090035BE024FFFF90035AE025
:101BD40034FFFE900356E0FCA3E0FDC39FEE648057
:101BE400F8EC648098401590035CE0FEA3E0FF4E9F
:101BF400600AEF9407EE64809480406A90035EE08C
:101C0400FFC007AE04ED7803C333CE33CED8F9FF5B
:101C1400900350E0FCA3E0FD121406A3E0FBA3E054
:101C2400FAA3E02FF9EA3EFA900358E0FEA3E02974
:101C3400F9EA3EFA900350E0FEA3E0F5828E837445
:101C4400061216C91213A5FF900355E0FEEFD39EAA
:101C540040047F0180027F00EFC4333354C0FED0C0
:101C6400E04E90035EF090035BE024FFFF90035A84
:101C7400E034FFFE900356E0FCA3E0FDC39FEE6456
:101C840080F8EC648098401590035CE0FEA3E0FFCC
:101C94004E600AEF9408EE64809480406B90035E7B
:101CA400E0FFC007AE04ED7803C333CE33CED8F9DA
:101CB400FF900350E0FCA3E0FD121406A3E0FBA395
:101CC400E0FAA3E02FF9EA3EFA900358E0FEA3E01D
:101CD40029F9EA3EFA900350E0FEA3E0F5828E83F0
:101CE40074071216C91213A5FF900355E0FEEFD333
:101CF4009E40047F0180027F00EFC433333354805D
:101D0400FED0E04E90035EF090035EE0FF1260228E
:101D1400900359E004F07006900358E004F00218B0
:101D240006900357E004F07006900356E004F002B6
:021D340017DDB9
:011D3600228A
:0B454A0090036FEFF0A3EDF0A3EBF087
:10455500E4900376F0A3F0900375E0FFC390037732
:10456500E09F7480F8900376E064809840030246EB
:1045750018E4900378F0A3F0900371E0FF13131390
:10458500541FFD900378E0FAA3E0FBC39D7480F807
:10459500EA6480985069900376A3E08FF0A4FF90B9
:1045A500036FE02FFFA3E02BFD126485E490037AEF
:1045B500F0A3F0900372E0FBA3E0FAA3E0F9121375
:1045C5008CFF126022900373E475F0011214A3901E
:1045D500037BE004F0700690037AE004F0C39003D7
:1045E5007BE0941090037AE06480948040C590034A
:1045F50079E004F07082900378E004F002457D9044
:104605000377E004F0600302455C900376E004F074
:0346150002455CFF
:01461800227F
:0663BA00D2A27F017E006B
:1063C000EF1FAA0670011E4A60087D091DED60F0EE
:0263D00080FA51
:0163D20022A8
:105EE300125EF3D2A47F017E001263C0C2A4E4FF5A
:105EF300E4FEEEC39408748094805015EF3392A5AA
:105F0300EF25E0FFC2A7D2A7A2A6E4334FFF0E807E
:015F1300E1AC
:015F1400226A
:10651A00C2A4EF4480FF125EF3AF05125EF3D2A469
:01652A00224E
:10644800C2A4EF4440FF125EF3E4FF125EF3EF12C2
:0564580013D2D2A422C2
:0261A400AC0548
:1061A600C2A4EF4480FF125EF3AF04125EE3AD07B4
:1061B600E4FF125EF3D2A4AF05EC6F60037F012209
:0261C6007F0058
:0161C80022B4
:105F1500900523EBF0A3EAF0A3E9F0C2A4EF444017
:105F2500FF125EF3E4FF125EE3900523E0FBA3E0BE
:105F3500FAA3E0F9EF1213D2E4FF125EF3D2A42222
:105D9C00900534EEF0A3EFF0C3E49FF074109E90E6
:105DAC000534F0A3E0C4F8540FC868FF900534E044
:105DBC00C454F048F0A3EFF0FDE4FF1261A4900589
:085DCC0034E0FD7F010261A437
:10629800125EEFAD07ED7D00FCE4FF125EF3D2A4C1
:1062A800AE04EEC4F854F0C868FEEFC4540F48FFBB
:0162B80022C3
:106499007B017A05794A7F06125F1590054AE06407
:0364A9001C70ED77
:0164AC0022CD
:10654C00126499E4FD7F091261A4E4FFFE025D9CD4
:0E652B00EBF0A3EAF0A3E9F0C2A2EF4440FFB8
:0365390002000657
:1063D30090054BEDF0C2A2EF4480FF1265399005A2
:0963E3004BE0FF126539D2A22241
:10634C0090052612652BE4FF125EF3900526E0FB08
:0D635C00A3E0FAA3E0F9EF1213D2D2A222BF
:055D2300900536EDF0D3
:105D2800C2A2EF4480FF126539900536E0FF126584
:105D3800391263BAC2A2E4FF126539900537EFF051
:105D4800E4FF126539D2A2900537E0FF900536E0EE
:085D58006F60037F01227F0050
:015D60002220
:105F720090052912652BE4FF1265391263BAC2A299
:105F8200E4FF126539900529E0FBA3E0FAA3E0F9EA
:0C5F9200EF1213D2E4FF126539D2A222F4
:105DD400900538EEF0A3EFF0C3E49FF074109E90AA
:105DE4000538F0A3E0C4F8540FC868FF900538E004
:105DF400C454F048F0A3EFF0FDE4FF125D239005D6
:085E040038E0FD7F01025D237F
:105CA200E490053AF0A3F0C2A2FF12653990053ADA
:105CB200E4F0A3EFF0E0F8E4F0E890053AF0E4FF56
:105CC20012653990053AE0F0A3E04FF0D2A29005B8
:105CD2003AE0C4F854F0C868FEA3E0C4540F48FF89
:015CE200229F
:1064AD007B017A05794C7F06125F7290054CE06492
:0364BD001C70ED63
:0164C00022B9
:1061340090046F7420F0E4A3F0A3F0A3F07B207D1F
:10614400207F02123B481264ADE4FD7F09125D23F7
:06615400E4FFFE025DD431
:1063EC009003C71216980001C2009003CB7404F0FE
:0963FC007B117D107F03022BCE02
:10484F0090049DEBF0A3EAF0A3E9F0A38062E47F6C
:10485F001EFEFDFC9004A0E0F8A3E0F9A3E0FAA38C
:10486F00E0FBD3121648404D308702804B90049DD9
:10487F00E0FBA3E0FAA3E0F99004B5E4F0A3741E03
:10488F00F07F0312607090049EE475F01E1214A363
:10489F009004A0E0FCA3E0FDA3E0FEA3E0C3941E00
:1048AF00FFEE9400FEED9400FDEC9400FC9004A04C
:1048BF0012168C809930870F9004A0E0FCA3E0FDC6
:1048CF00A3E0FEA3E0FF2290049DE0FBA3E0FAA388
:1048DF00E0F9A3A3A3E0FFA3E09004B5CFF0A3EF0B
:0C48EF00F07F03126070E4FFFEFDFC226D
:0E4ADB009004A4EBF0A3EAF0A3E9F0A3EDF041
:104AE90074FFA3F0A3F0E4A3F09004A7E0FF9004FF
:104AF900AAE0FEC39F50639004A4E0FBA3E0FAA3DD
:104B0900E0F98E827583001213A5FF9004A8E0F0E6
:104B1900A3E06FF0E4FDEDC39408748094805032F3
:104B29009004A8E0FEA3E0FF30E019EEC313FEEF06
:104B390013FFEE64A0FEEF6401FF9004A8EEF0A35A
:104B4900EFF0800B9004A8E0C313F0A3E013F00D7D
:104B590080C49004AAE004F0808F9004A8E0FEA32A
:024B6900E0FF6B
:014B6B002227
:1049A1009003E8ECF0A3EDF0A3EAF0A3EBF09003A1
:0649B100E6EEF0A3EFF0BA
:1049B700E4FC9003EEE0FBA3E0FAA3E0F9EF1213A7
:1049C700D29003E6E0FEEEFF9003EEE0FBA3E0FAF1
:1049D700A3E0F9900001EF1213E49003E8A3E0903D
:1049E70000021213E49003E8E0FEEE9000031213B6
:1049F700E49003EAA3E09000041213E49003EAE0D2
:104A0700FEEE9000051213E49003ECA3E09000067D
:104A17001213E49003ECE0FEEE9000071213E47D1E
:104A270008124ADB9003EEE0FBA3E0FAA3E0F9905B
:0D4A37000008EF1213E4EE9000090213E4F2
:102F5A00900200E0FBA3E475F0041214B9A9F0FA98
:102F6A0012166C90022512168C900225E0FCA3E042
:102F7A00FDA3E0FEA3E0FF7B017A027904E490035B
:062F8A0042F0A37410F0F8
:102F900090033B12168C90033FEBF0A3EAF0A3E9F9
:012FA000F040
:102FA100E490034CF0A3F0900342E0700302305F21
:102FB10090033BE0FCA3E0FDA3E0FEA3E0FF900350
:102FC1004412168C900344E0FCA3E0FDA3E0FEA3B1
:102FD100E0FFEC335010900344A3A3A3E0121624A6
:102FE10090034412168C900343E0FBE4FAF9F8A332
:102FF100E0FCA3E0FDA3E0FEA3E0FF125B98EB245D
:1030010030FF90033FE0FBA3E0FAA3E0F9EF1213D6
:10301100D2900344E0FCA3E0FDA3E0FEA3E0FFC0E7
:1030210007900343E0FBE4FAF9F8D007125B9890AC
:10303100034412168C90034DE004F0900344E0FC2D
:10304100A3E0FDA3E0FEA3E0FFEC4D4E4F700302B1
:10305100310A900340E475F0011214A380889003B3
:103061003BE0FCA3E0FDA3E0FEA3E0FF90034812D8
:10307100168C900343E0FBE4FAF9F8900348E0FC76
:10308100A3E0FDA3E0FEA3E0FF121592AF039003BE
:103091004CEFF0D3740A9F7480F8985006E02437FF
:1030A100F0800790034CE02430F090034CE0FF9057
:1030B100033FE0FBA3E0FAA3E0F9EF1213D2900380
:1030C10048E0FCA3E0FDA3E0FEA3E0FFC0079003FE
:1030D10043E0FBE4FAF9F8D0071215929003481285
:1030E100168C90034DE004F0900348E0FCA3E0FD52
:1030F100A3E0FEA3E0FFEC4D4E4F600D900340E4D2
:0E31010075F0011214A302307390034DE0FF2D
:01310F00229D
:103C5B00900229EFF07B017A027904E0FFE4FCFD8E
:013C6B00FE5A
:0F3C6C009003B8EBF0A3EAF0A3E9F0A312168CD3
:103C7B009003BF12169800000000E47B02FAF9F8DB
:103C8B009003BBE0FCA3E0FDA3E0FEA3E0FF121555
:103C9B00929003BFE0F8A3E0F9A3E0FAA3E0FBC323
:103CAB001216484003023D539003BBA3A3E0FEA3AF
:103CBB00E024FFFBEE34FFFAA3A3A3E0FEA3E0FF97
:103CCB00C3EB9FFDEA9EFC9003B8E0FBA3E0FAA3D5
:103CDB00E0F98D828C831213A59003C3F08F828E33
:103CEB00831213A5FFC0079003BBA3A3E0FEA3E0C1
:103CFB0024FFFBEE34FFFAA3A3A3E0FEA3E0FDAC8D
:103D0B0006C3EB9DFFEA9CFE9003B8E0FBA3E0FA31
:103D1B008F828E83D0E01213E49003C3E0FFEF8D0C
:103D2B00828C831213E49003BFE0FCA3E0FDA3E0BD
:103D3B00FEA3E02401FFE43EFEE43DFDE43CFC90E9
:083D4B0003BF12168C023C8537
:013D5300224D
:0B1D37009001CEEBF0A3EAF0A3E9F06E
:101D42009001FC121698000000009002007401F04D
:101D5200A37401F0A374D4F09001D1E0FBA3E0FAE4
:0B1D6200A3E0F912138C70030222C1F1
:101D6D00900203F06425600302226D9001D1A3E47B
:101D7D0075F0011214A3A9F0FA12138C1216FA229F
:101D8D0039251E3B462113581DB4631DD0641E3BDF
:101D9D00661DD06920986F21E07021677320127540
:071DAD00211378000022B4AD
:101DB400900200E0FBA3E475F0041214B9A9F0FA50
:091DC40012166C900204EFF0E02D
:031DCD0002227B74
:101DD000900200E0FBA3E475F0041214B9A9F0FA34
:101DE00012166C90022512168C900225E0FCA3E0DE
:101DF000FDA3E0FEA3E0FF7B017A02790490034299
:101E00007401F0A3740AF0122F90900229EFF09061
:101E10000225E0FCA3A3A3EC335014A3E02404F5B3
:101E200082E43402F583742DF0900229E004F07B03
:081E3000017A027904900229F5
:031E38000220562F
:101E3B00900200E0FBA3E475F0041214B9A9F0FAC8
:101E4B0012166C90022512168C900225E0FCA3E072
:101E5B00FDA3E0FEA3E0FF1211F37B017A027904EC
:101E6B009003427401F0A3740AF0122F9090022990
:101E7B00EFF0E4FFFEFDFC900225E0F8A3E0F9A3F0
:101E8B00E0FAA3E0FB12113C5016900229E0240467
:101E9B00F582E43402F583742DF0900229E004F00E
:101EAB007B017A027904900229123C66900229E0A8
:101EBB00FF7E009001CEE0FBA3E0FAA3E0F8AC02BA
:101ECB00AD037B017A027904121344900229E0FFDF
:101EDB00FD9001CFE48DF01214A39001FCE0F8A368
:101EEB00E0F9A3E0FAA3E0FBE4FCFDFEEB2FFFEE31
:101EFB003AFEED39FDEC38FC9001FC12168C900289
:101F0B0025E0FCA3E0FDA3E0FEA3E0FF1211F3EC40
:101F1B001211B5A804A905AA06AB07900225E0FC8F
:101F2B00A3E0FDA3E0FEA3E0FF120EA17B007A2449
:101F3B0079747849120F9690022512168C9002250F
:101F4B00E0FCA3E0FDA3E0FEA3E0FFEC4D4E4F60F1
:101F5B0024900225A3A3A3E01211F37B017A02794B
:101F6B00049003427401F0A3740AF0122F909002B4
:101F7B0029EFF080209002097430F0900208F09065
:101F8B000207F0900206F0900205F0900204F09028
:101F9B0002297406F0900229E0FFFDD374069D74AC
:101FAB0080F898401574042FF582E43402F583749D
:101FBB0030F0900229E004F080DB900229E0240449
:101FCB00F582E43402F583742EF0900229E00412BA
:101FDB003C5F900229E0FF7E009001CEE0FBA3E086
:101FEB00FAA3E0F8AC02AD037B017A027904121379
:101FFB00449001FCE0F8A3E0F9A3E0FAA3E0FB9026
:07200B000229E0FF0221554C
:10201200900200E0FBA3E475F0041214B9A9F0FAEF
:1020220012166C90022512168C900225E0FCA3E099
:10203200FDA3E0FEA3E0FF7B017A027904E49003B2
:1020420042F0A3740AF0122F90900229EFF07B0164
:102052007A027904123C66900229E0FF7E00900128
:10206200CEE0FBA3E0FAA3E0F8AC02AD037B017A79
:10207200027904121344900229E0FFFD9001CFE49B
:102082008DF01214A39001FCE0F8A3E0F9A3E0FAAA
:03209200A3E0FBCD
:03209500022155D0
:10209800900200E0FBA3E475F0041214B9A9F0FA69
:1020A80012166C90022512168C900225E0FCA3E013
:1020B800FDA3E0FEA3E0FF7B017A027904E490032C
:1020C80042F0A37408F0122F90123C5B900229E0B2
:1020D800FF7E009001CEE0FBA3E0FAA3E0F8AC029B
:1020E800AD037B017A027904121344900229E0FFC0
:1020F800FD9001CFE48DF01214A39001FCE0F8A349
:08210800E0F9A3E0FAA3E0FBFB
:0321100002215554
:10211300122F5A123C5B900229E0FF7E009001CE01
:10212300E0FBA3E0FAA3E0F8AC02AD037B017A0283
:102133007904121344900229E0FFFD9001CFE48D4E
:10214300F01214A39001FCE0F8A3E0F9A3E0FAA3D2
:10215300E0FBE4FCFDFEEB2FFFEE3AFEED39FDEC78
:012163003843
:032164000222ADA7
:10216700900200E0FBA3E475F0031214B9A9F0FA9A
:102177001216DA900204EBF0A3EAF0A3E9F090025A
:1021870004E0FBA3E0FAA3E0F912138C7003022228
:10219700B412138CFF9001CEE0FBA3E0FAA3E0F9A1
:1021A700EF1213D29001CFE475F0011214A390013E
:1021B700FCE0FCA3E0FDA3E0FEA3E02401FFE43E76
:1021C700FEE43DFDE43CFC9001FC12168C900205F8
:0921D700E475F0011214A380A5C7
:1021E000122F5A900229EFF07B017A0279047F08BE
:1021F0007E007D007C00123C6C9001CEE0FBA3E0F1
:10220000FAA3E0F8AC02AD037B017A0279047E0008
:102210007F081213449001CFE475F0081214A390C4
:1022200001FCE0FCA3E0FDA3E0FEA3E02408FFE442
:072230003EFEE43DFDE43C2D
:1022370080749001CEE0FBA3E0FAA3E0F9742512C5
:1022470013D29001CFE475F0011214A39001FCE0C2
:10225700FCA3E0FDA3E0FEA3E02401FFE43EFEE4CF
:102267003DFDE43C80409001D1E0FBA3E0FAA3E010
:10227700F912138CFF9001CEE0FBA3E0FAA3E0F97B
:10228700EF1213D29001CFE475F0011214A390015D
:10229700FCE0FCA3E0FDA3E0FEA3E02401FFE43E95
:1022A700FEE43DFDE43CFC9001FC12168C9001D24B
:0722B700E475F0011214A30D
:1022BE00021D5A900200E4F0A3F0A3F09001FCE09E
:0A22CE00FCA3E0FDA3E0FEA3E0FF87
:0122D80022E3
:030023000256542E
:0F565400C0E0C083C082C0D075D000C005C007C1
:10566300309907C2999001CAE4F030982AC298AFE2
:1056730099EFFD647F6005ED6480701690054DE041
:10568300FF04F0D3EF941474809480400A75C760CC
:07569300800590054DE4F0D5
:0D569A00D007D005D0D0D082D083D0E03230
:0300430002623224
:10623200C0E0C083C082E59A30E108539AFD900124
:10624200CBE4F0E59A30E003539AFED082D083D0BB
:02625200E03238
:03008B00026254BA
:10625400C0E0C083C082E5AC30E10853ACFD9001DE
:10626400CCE4F0E5AC30E00353ACFED082D083D074
:02627400E03216
:0300930002627690
:10627600C0E0C083C082E58430E1085384FD90010C
:10628600CDE4F0E58430E0035384FED082D083D0A1
:02629600E032F4
:03003B0002531954
:10531900C0E0C083C082C0D075D000C006C00730CD
:10532900D822C2D8900382E0FEA3E0F5EAEEF5FAAE
:1053390090037CE0FEA3E0FF900383E02FF090034D
:1053490082E03EF030D922C2D9900384E0FEA3E086
:10535900F5EBEEF5FB90037EE0FEA3E0FF900385FD
:10536900E02FF0900384E03EF0D007D006D0D0D0F3
:0653790082D083D0E03277
:03000300020042B6
:01004200328B
:0300130002005692
:010056003277
:0300530002005751
:010057003276
:03005B0002005848
:010058003275
:030083000200591F
:010059003274
:0561E70042053C000030
:1055A80012003E1254F69003C512169800002710F8
:1055B8009003C97425F0A3741CF07F521227B5120A
:1055C800005090053CE0FCA3E0FD7F52123A31C345
:1055D80090053DE0941090053CE094274004E4F0E9
:1055E800A3F090053DE02464F090053CE03400F021
:0955F8007F0A7E0012645D80C987
:100E9E0002125FE86480F8E933E83360110460F011
:100EAE00ED33EC337009E8FCE9FDEAFEEBFF2204BA
:100EBE0060DED3EB9FEA9EE99DE8C2E78CF0C2F7B5
:100ECE0095F0400CE8CCF8E9CDF9EACEFAEBCFFB81
:100EDE0012122A85D0F05804700320D5B3E804709E
:100EEE00075002B2D502126992D5EC0460F7E4CC39
:100EFE00C0E0C398F8603B94186008400DD0E0FB4A
:100F0E00021241E4FBFAC9FC8028E830E406E4C989
:100F1E00FBE4CAFCE830E305E4C9CACBFCE854079D
:100F2E006010F8C3E913F9EA13FAEB13FBEC13FCA8
:100F3E00D8F130F52FC3E49CFCEF9BFFEE9AFEED4B
:100F4E0099FDD0E0FBEF4E4D4C701222DB030212E6
:100F5E0066EC2CFCEF33FFEE33FEED33FDED30E7A8
:100F6E00EB021241EF2BFFEE3AFEED39FDD0E0FB26
:100F7E0050130BBB0003021269ED13FDEE13FEEFCF
:080F8E0013FFEC13FC021241F9
:100F9600EC4D6011E8497017ED33EC3304600DE455
:100FA600FCFFFEFD22E933E8330470F802125F12FB
:100FB600122A58046009E4CC2481500628500902FC
:100FC6001269284003021266C0E0EB4A7044B980F9
:100FD60006D0E0FB021255EF4E701CBD8008EBFFF9
:100FE600EAFEE9FD80EBE98DF0A4FEE5F002107F54
:100FF600E9CDF9EAFEEBFFEF89F0A4FCE5F0CE8936
:10100600F0A42EFFE435F0CD89F0A42DFEE435F0F2
:101016008067EF4E7005BD80D780C3EF8BF0A4AC20
:10102600F0EE8BF0A42CFCE435F0F8EF8AF0A42C5B
:10103600E5F038FCE433CB8DF0A42CFCE5F03BF86E
:10104600EE8AF0A42CFCE5F038F8E433CF89F0A45E
:101056002CFCE5F038CF3400CE89F0A42FFFE5F064
:101066003EFEE433C98DF0A42EFEE5F039CD8AF0BC
:10107600A42FFFE5F03EFEE43DFD33D0E0FB500734
:101086000BBB000F021269EC2CFCEF33FFEE33FEB4
:06109600ED33FD021241E2
:10109C00021269EC5D046005E85904700302125FEA
:1010AC0012122A580460F6EC4860F2EC7004FDFE53
:1010BC00FF22C860DB2481C85009C3986002500627
:1010CC000212669850CAF582E9294B4A7005AB8228
:1010DC0002125575F0007C1A7880C3EF9BEE9AEDE6
:1010EC0099400DC3EF9BFFEE9AFEED99FDE842F09F
:1010FC00DC23ACF0D0E0FFD0E0FED0E0FDAB8220F2
:10110C00E7101BEB60BAEC2CFCEF33FFEE33FEED7B
:10111C0033FD021241E803F830E705C0F075F0002A
:10112C00EF2FFFEE33FEED33FD40B830E7C280AA5F
:10113C0074F8CC6480CCC86480C8F58204604FC35A
:10114C00EB9FF5F0EA9E42F0E99D42F0E89C45F0F9
:10115C00603C501DE5825FFFE582D313CB5BCBF483
:10116C002B5582FB50280ABA002409B900200880AC
:10117C001DE5825BFBE582D313CF5FCFF4C3132F46
:10118C005582FF50090EBE00050DBD00010CC3EBCE
:10119C009FF5F0EA9E42F0E99D42F0E89C45F06034
:0911AC0007CC4820E701B3EC2256
:1011B50075F020800E75F010800575F0087D007EB5
:1011C500007F003392D530D503121624EC3340103E
:1011D500EF33FFEE33FEED33FDEC33FCD5F0ED22BE
:0E11E500E5F0247EA2D513CC92E7CDCEFF22FA
:1011F300EDD2E7CD33EC3392D524814006E4FFFEF4
:10120300FDFC22FCE4CFCECDCC24E0501174FF8052
:10121300EDC3CC13CCCD13CDCE13CECF13CF0470EF
:07122300F030D5DE021624B5
:10122A00E9D2E7C933E833F892D5EDD2E7CD33EC0A
:07123A0033FC5002B2D52283
:10124100EC30E7100FBF000C0EBE00080DBD00040E
:101251000BEB6014A2D5EB13FCED92E7FD2274FFBA
:10126100FCFDFEFF22E480F8A2D574FF13FC7D8013
:03127100E480EF27
:03000000024C8926
:0C4C8900787FE4F6D8FD758107024CD05E
:10127400E709F608DFFA8046E709F208DFFA803E5C
:1012840088828C83E709F0A3DFFA8032E309F60849
:10129400DFFA8078E309F208DFFA807088828C83B1
:1012A400E309F0A3DFFA806489828A83E0A3F60865
:1012B400DFFA805889828A83E0A3F208DFFA804C3F
:1012C40080D280FA80C680D4806980F28033801016
:1012D40080A680EA809A80A880DA80E280CA80337F
:1012E40089828A83ECFAE493A3C8C582C8CCC583F7
:1012F400CCF0A3C8C582C8CCC583CCDFE9DEE780C7
:101304000D89828A83E493A3F608DFF9ECFAA9F045
:10131400EDFB2289828A83ECFAE0A3C8C582C8CC9B
:10132400C583CCF0A3C8C582C8CCC583CCDFEADEB4
:10133400E880DB89828A83E493A3F208DFF980CC16
:1013440088F0EF60010E4E60C388F0ED2402B4040F
:101354000050B9F582EB2402B4040050AF232345B6
:0613640082239012C47305
:10136A00C2D530F707B2D563F0FF05F030E70CB20B
:10137A00D5F4048463F0FF05F080018430D502F4CB
:02138A0004223B
:10138C00BB010689828A83E0225002E722BBFE025F
:09139C00E32289828A83E4932292
:1013A500BB010CE58229F582E5833AF583E02250FD
:1013B50006E92582F8E622BBFE06E92582F8E22247
:0D13C500E58229F582E5833AF583E4932261
:1013D200BB010689828A83F0225002F722BBFE01FA
:0213E200F322F4
:1013E400F8BB010DE58229F582E5833AF583E8F03F
:1013F400225006E92582C8F622BBFE05E92582C8EB
:02140400F222D2
:10140600EF8DF0A4A8F0CF8CF0A428CE8DF0A42EFA
:02141600FE22B4
:10141800BC000BBE0029EF8DF084FFADF022E4CCB8
:10142800F875F008EF2FFFEE33FEEC33FCEE9DEC81
:10143800984005FCEE9DFE0FD5F0E9E4CEFD22EDC7
:10144800F8F5F0EE8420D21CFEADF075F008EF2F11
:10145800FFED33FD4007985006D5F0F222C398FD02
:051468000FD5F0EA229F
:10146D00C2D5EC30E709B2D5E4C39DFDE49CFCEE9A
:10147D0030E715B2D5E4C39FFFE49EFE121418C3E6
:10148D00E49DFDE49CFC800312141830D507C3E4E1
:06149D009FFFE49EFE2209
:1014A300C5F0F8A3E028F0C5F0F8E58215827002D4
:0614B3001583E038F02271
:1014B900A3F8E0C5F025F0F0E582158270021583E6
:0614C900E0C838F0E82243
:1014CF00BB0110E58229F582E5833AF583E0F5F05B
:1014DF00A3E0225009E92582F886F008E622BBFE38
:1014EF000AE92582F8E2F5F008E222E5832AF5837E
:0814FF00E993F5F0A3E9932243
:10150700E88FF0A4CC8BF0A42CFCE98EF0A42CFC83
:101517008AF0EDA42CFCEA8EF0A4CDA8F08BF0A401
:101527002DCC3825F0FDE98FF0A42CCD35F0FCEB60
:101537008EF0A4FEA9F0EB8FF0A4CFC5F02ECD3925
:0F154700FEE43CFCEAA42DCE35F0FDE43CFC2292
:1015560075F008758200EF2FFFEE33FECD33CDCC4C
:1015660033CCC58233C5829BED9AEC99E5829840CF
:101576000CF582EE9BFEED9AFDEC99FC0FD5F0D6AC
:10158600E4CEFBE4CDFAE4CCF9A88222B800C1B9D6
:101596000059BA002DEC8BF084CFCECDFCE5F0CB14
:1015A600F97818EF2FFFEE33FEED33FDEC33FCEB4D
:1015B60033FB10D703994004EB99FB0FD8E5E4F908
:1015C600FA227818EF2FFFEE33FEED33FDEC33FCF5
:1015D600C933C910D7059BE99A4007EC9BFCE99AE9
:1015E600F90FD8E0E4C9FAE4CCFB2275F010EF2F2E
:1015F600FFEE33FEED33FDCC33CCC833C810D7072E
:101606009BEC9AE899400AED9BFDEC9AFCE899F868
:0E1616000FD5F0DAE4CDFBE4CCFAE4C8F922FB
:105B9800C2D5E830E70FB2D5E4C39BFBE49AFAE438
:105BA80099F9E498F8EC30E717B2D5125BCE1215E4
:105BB80092E4C39BFBE49AFAE499F9E498F8800329
:105BC80012159230D50DE4C39FFFE49EFEE49DFDBF
:045BD800E49CFC222B
:0E162400C3E49FFFE49EFEE49DFDE49CFC22D7
:10163200EB9FF5F0EA9E42F0E99D42F0EC6480C82F
:0616420064809845F022CF
:10164800EB9FF5F0EA9E42F0E99D42F0E89C45F0F8
:01165800226F
:10165900E8600FECC313FCED13FDEE13FEEF13FF6F
:03166900D8F12293
:10166C00BB010789828A8302172C5005E9F80217FF
:10167C0020BBFE05E9F802173889828A83021744D9
:0C168C00ECF0A3EDF0A3EEF0A3EFF022D1
:10169800A8828583F0D083D0821216AF1216AF12BB
:1016A80016AF1216AFE473E493A3C583C5F0C583E0
:1016B800C8C582C8F0A3C583C5F0C583C8C582C89C
:0116C80022FF
:1016C900F5F0C582A4C582C5F0C583A42583F58339
:0116D90022EE
:1016DA00BB010789828A8302175D5005E9F8021760
:1016EA0054BBFE05E9F802176689828A8302176FDE
:1016FA00D083D082F8E4937012740193700DA3A37F
:10170A0093F8740193F5828883E473740293686092
:06171A00EFA3A3A380DF92
:104C95000255A8E493A3F8E493A34003F68001F238
:104CA50008DFF48029E493A3F85407240CC8C33320
:104CB500C4540F4420C8834004F456800146F6DFEF
:104CC500E4800B01020408102040809061C9E47E55
:104CD500019360BCA3FF543F30E509541FFEE493E4
:104CE500A360010ECF54C025E060A840B8E493A3AB
:104CF500FAE493A3F8E493A3C8C582C8CAC583CAD6
:104D0500F0A3C8C582C8CAC583CADFE9DEE780BE8D
:0161EC0000B2
:0C172000E6FC08E6FD08E6FE08E6FF22F5
:0C172C00E0FCA3E0FDA3E0FEA3E0FF2230
:0C173800E2FC08E2FD08E2FE08E2FF22ED
:10174400E493FC740193FD740293FE740393FF22EB
:09175400E6FB08E6FA08E6F922BA
:09175D00E0FBA3E0FAA3E0F9228D
:09176600E2FB08E2FA08E2F922B4
:0C176F00E493FB740193FA740293F922D6
:00000001FF
