:10000000020EF002001243C780021283C2AF22D256
:0A001000AF22320200163232323203
:1000230002103EAB07AA06EB1BAE0270011A4E602C
:07003300051212A180F12269
:03003B00020F7C35
:0300430002121D89
:0300530002001791
:10005B00020018900001EBF0A3EAF0A3E9F0AE0761
:10006B0090000474FFF5F01206B145F060089000A3
:07007B000112109180EA223E
:030083000200195F
:03008B0002123F1F
:10009300021261020457E86480F8E933E83360111F
:1000A3000460F0ED33EC337009E8FCE9FDEAFEEBA4
:1000B300FF220460DED3EB9FEA9EE99DE8C2E78C52
:1000C300F0C2F795F0400CE8CCF8E9CDF9EACEFAA6
:1000D300EBCFFB12042285D0F05804700320D5B374
:1000E300E80470075002B2D502046192D5EC0460B3
:1000F300F7E4CCC0E0C398F8603B94186008400D67
:10010300D0E0FB020439E4FBFAC9FC8028E830E4C0
:1001130006E4C9FBE4CAFCE830E305E4C9CACBFC46
:10012300E854076010F8C3E913F9EA13FAEB13FB79
:10013300EC13FCD8F130F52FC3E49CFCEF9BFFEEEE
:100143009AFEED99FDD0E0FBEF4E4D4C701222DB91
:100153000302045EEC2CFCEF33FFEE33FEED33FDC4
:10016300ED30E7EB020439EF2BFFEE3AFEED39FDFC
:10017300D0E0FB50130BBB0003020461ED13FDEE53
:1001830013FEEF13FFEC13FC020439EC4D6011E88E
:10019300497017ED33EC3304600DE4FCFFFEFD22E0
:1001A300E933E8330470F802045712042258046058
:1001B30009E4CC2481500628500902046128400335
:1001C30002045EC0E0EB4A7044B98006D0E0FB0253
:1001D300044DEF4E701CBD8008EBFFEAFEE9FD8085
:1001E300EBE98DF0A4FEE5F0020277E9CDF9EAFE32
:1001F300EBFFEF89F0A4FCE5F0CE89F0A42EFFE439
:1002030035F0CD89F0A42DFEE435F08067EF4E7014
:1002130005BD80D780C3EF8BF0A4ACF0EE8BF0A4C8
:100223002CFCE435F0F8EF8AF0A42CE5F038FCE47C
:1002330033CB8DF0A42CFCE5F03BF8EE8AF0A42C34
:10024300FCE5F038F8E433CF89F0A42CFCE5F03872
:10025300CF3400CE89F0A42FFFE5F03EFEE433C98E
:100263008DF0A42EFEE5F039CD8AF0A42FFFE5F042
:100273003EFEE43DFD33D0E0FB50070BBB000F0215
:100283000461EC2CFCEF33FFEE33FEED33FD02048F
:1002930039020461EC5D046005E85904700302044B
:1002A30057120422580460F6EC4860F2EC7004FD27
:1002B300FEFF22C860DB2481C85009C39860025046
:1002C3000602045E9850CAF582E9294B4A7005ABD1
:1002D3008202044D75F0007C1A7880C3EF9BEE9A7E
:1002E300ED99400DC3EF9BFFEE9AFEED99FDE842B9
:1002F300F0DC23ACF0D0E0FFD0E0FED0E0FDAB8239
:1003030020E7101BEB60BAEC2CFCEF33FFEE33FE5F
:10031300ED33FD020439E803F830E705C0F075F06A
:1003230000EF2FFFEE33FEED33FD40B830E7C28020
:10033300AA74F8CC6480CCC86480C8F58204604F8A
:10034300C3EB9FF5F0EA9E42F0E99D42F0E89C453D
:10035300F0603C501DE5825FFFE582D313CB5BCB9E
:10036300F42B5582FB50280ABA002409B90020084F
:10037300801DE5825BFBE582D313CF5FCFF4C3130C
:100383002F5582FF50090EBE00050DBD00010CC3A1
:10039300EB9FF5F0EA9E42F0E99D42F0E89C45F0C0
:1003A3006007CC4820E701B3EC2275F020800E757E
:1003B300F010800575F0087D007E007F003392D534
:1003C30030D50312081CEC334010EF33FFEE33FE3D
:1003D300ED33FDEC33FCD5F0ED22E5F0247EA2D520
:1003E30013CC92E7CDCEFF22EDD2E7CD33EC33929F
:1003F300D524814006E4FFFEFDFC22FCE4CFCECDF4
:10040300CC24E0501174FF80EDC3CC13CCCD13CDBD
:10041300CE13CECF13CF0470F030D5DE02081CE923
:10042300D2E7C933E833F892D5EDD2E7CD33EC33D5
:10043300FC5002B2D522EC30E7100FBF000C0EBE09
:1004430000080DBD00040BEB6014A2D5EB13FCED0B
:1004530092E7FD2274FFFCFDFEFF22E480F8A2D5A3
:1004630074FF13FC7D80E480EFE709F608DFFA8070
:1004730046E709F208DFFA803E88828C83E709F0B9
:10048300A3DFFA8032E309F608DFFA8078E309F2A2
:1004930008DFFA807088828C83E309F0A3DFFA8097
:1004A3006489828A83E0A3F608DFFA805889828A06
:1004B30083E0A3F208DFFA804C80D280FA80C68002
:1004C300D4806980F28033801080A680EA809A808D
:1004D300A880DA80E280CA803389828A83ECFAE4D6
:1004E30093A3C8C582C8CCC583CCF0A3C8C582C8B2
:1004F300CCC583CCDFE9DEE7800D89828A83E49370
:10050300A3F608DFF9ECFAA9F0EDFB2289828A83CE
:10051300ECFAE0A3C8C582C8CCC583CCF0A3C8C598
:1005230082C8CCC583CCDFEADEE880DB89828A839C
:10053300E493A3F208DFF980CC88F0EF60010E4E5C
:1005430060C388F0ED2402B4040050B9F582EB24B3
:1005530002B4040050AF23234582239004BC73C22A
:10056300D530F707B2D563F0FF05F030E70CB2D50D
:10057300F4048463F0FF05F080018430D502F404B1
:1005830022BB010689828A83E0225002E722BBFE56
:1005930002E32289828A83E49322BB010CE5822948
:1005A300F582E5833AF583E0225006E92582F8E6F1
:1005B30022BBFE06E92582F8E222E58229F582E5DF
:1005C300833AF583E49322BB010689828A83F0226E
:1005D3005002F722BBFE01F322F8BB010DE582298D
:1005E300F582E5833AF583E8F0225006E92582C8CF
:1005F300F622BBFE05E92582C8F222EF8DF0A4A8FE
:10060300F0CF8CF0A428CE8DF0A42EFE22BC000BDC
:10061300BE0029EF8DF084FFADF022E4CCF875F035
:1006230008EF2FFFEE33FEEC33FCEE9DEC98400514
:10063300FCEE9DFE0FD5F0E9E4CEFD22EDF8F5F0DA
:10064300EE8420D21CFEADF075F008EF2FFFED33E2
:10065300FD4007985006D5F0F222C398FD0FD5F060
:10066300EA22C2D5EC30E709B2D5E4C39DFDE49C90
:10067300FCEE30E715B2D5E4C39FFFE49EFE1206FD
:1006830010C3E49DFDE49CFC800312061030D507E3
:10069300C3E49FFFE49EFE22C5F0F8A3E028F0C563
:1006A300F0F8E582158270021583E038F022A3F892
:1006B300E0C5F025F0F0E582158270021583E0C8ED
:1006C30038F0E822BB0110E58229F582E5833AF58B
:1006D30083E0F5F0A3E0225009E92582F886F008CB
:1006E300E622BBFE0AE92582F8E2F5F008E222E5FC
:1006F300832AF583E993F5F0A3E99322E88FF0A425
:10070300CC8BF0A42CFCE98EF0A42CFC8AF0EDA495
:100713002CFCEA8EF0A4CDA8F08BF0A42DCC3825C8
:10072300F0FDE98FF0A42CCD35F0FCEB8EF0A4FEA8
:10073300A9F0EB8FF0A4CFC5F02ECD39FEE43CFC3D
:10074300EAA42DCE35F0FDE43CFC2275F008758259
:1007530000EF2FFFEE33FECD33CDCC33CCC5823348
:10076300C5829BED9AEC99E58298400CF582EE9B4D
:10077300FEED9AFDEC99FC0FD5F0D6E4CEFBE4CD6B
:10078300FAE4CCF9A88222B800C1B90059BA002D05
:10079300EC8BF084CFCECDFCE5F0CBF97818EF2FBE
:1007A300FFEE33FEED33FDEC33FCEB33FB10D703ED
:1007B300994004EB99FB0FD8E5E4F9FA227818EF96
:1007C3002FFFEE33FEED33FDEC33FCC933C910D7F5
:1007D300059BE99A4007EC9BFCE99AF90FD8E0E402
:1007E300C9FAE4CCFB2275F010EF2FFFEE33FEEDD8
:1007F30033FDCC33CCC833C810D7079BEC9AE899A8
:10080300400AED9BFDEC9AFCE899F80FD5F0DAE489
:10081300CDFBE4CCFAE4C8F922C3E49FFFE49EFED7
:10082300E49DFDE49CFC22EB9FF5F0EA9E42F0E997
:100833009D42F0EC6480C864809845F022EB9FF5FC
:10084300F0EA9E42F0E99D42F0E89C45F022E86020
:100853000FECC313FCED13FDEE13FEEF13FFD8F102
:1008630022BB010789828A830209245005E9F80221
:100873000918BBFE05E9F802093089828A83020957
:100883003CECF0A3EDF0A3EEF0A3EFF022A88285F9
:1008930083F0D083D0821208A71208A71208A712E8
:1008A30008A7E473E493A3C583C5F0C583C8C582D1
:1008B300C8F0A3C583C5F0C583C8C582C822F5F0B7
:1008C300C582A4C582C5F0C583A42583F58322BB55
:1008D300010789828A830209555005E9F802094C08
:1008E300BBFE05E9F802095E89828A83020967D0A3
:1008F30083D082F8E4937012740193700DA3A393D1
:10090300F8740193F5828883E4737402936860EF4B
:10091300A3A3A380DFE6FC08E6FD08E6FE08E6FFE6
:1009230022E0FCA3E0FDA3E0FEA3E0FF22E2FC083B
:10093300E2FD08E2FE08E2FF22E493FC740193FD6A
:10094300740293FE740393FF22E6FB08E6FA08E6BB
:10095300F922E0FBA3E0FAA3E0F922E2FB08E2FAC2
:1009630008E2F922E493FB740193FA740293F922E7
:1009730043BA80E59D603178FAE6FBAF9FC3EF9BF6
:10098300FFE49400FEE49400FDE49400FC7BE07A31
:1009930028790178001206FFE42FFFEE3451FEEDB3
:1009A3003425FDEC3402802E78FBE6FBAF9FC3EFCA
:1009B3009BFFE49400FEE49400FDE49400FCE47BDC
:1009C300807ABBF9F81206FFE42FFFEE3436FEED12
:1009D300346EFDEC3401FC9000001208849000009A
:1009E300E0FCA3E0FDA3E0FEA3E0FFC00790FE014F
:1009F300E0FBE4FAF9F8D00712078A900000120826
:100A0300847FC07EF67D577C00900000E0F8A3E071
:100A1300F9A3E0FAA3E0FBC312084050097F007E6C
:100A2300607D547C00227FC07E267D827C00900006
:100A330000E0F8A3E0F9A3E0FAA3E0FBC312084047
:100A430050097F807E8D7D5B7C00227F807EED7DE3
:100A5300AF7C00900000E0F8A3E0F9A3E0FAA3E084
:100A6300FBC312084050097F007EC07DA87C002292
:100A73007F807E2D7DE87C00900000E0F8A3E0F904
:100A8300A3E0FAA3E0FBC312084050097F007E1BDA
:100A93007DB77C00227F807E367D257C019000001F
:100AA300E0F8A3E0F9A3E0FAA3E0FBC31208405087
:100AB300097F007E407D197C01227F807E567D4127
:100AC3007C01900000E0F8A3E0F9A3E0FAA3E0FBC7
:100AD300C312084050097F007E2D7D317C01227FA7
:100AE300007EDB7D5F7C01900000E0F8A3E0F9A3CA
:100AF300E0FAA3E0FBC312084050097F007E807D2B
:100B0300517C01227F607E197D857C01900000E08D
:100B1300F8A3E0F9A3E0FAA3E0FBC31208405009ED
:100B23007F007E367D6E7C01227F207EE07DB27C5D
:100B330001900000E0F8A3E0F9A3E0FAA3E0FBC30F
:100B430012084050097FC07EFC7D9B7C01227FE020
:100B53007EA67DE07C01900000E0F8A3E0F9A3E02D
:100B6300FAA3E0FBC312084050097F807EC37DC90E
:100B73007C01227F607E2B7DFF7C01900000E0F8EA
:100B8300A3E0F9A3E0FAA3E0FBC312084050097FF6
:100B9300007E407DFA7C01227FC07E0E7D167C02A2
:100BA30022900000EFF0A3EDF0A3EBF0A3E0F8A395
:100BB300E0F9A3E0FAA3E0FB900425E0FCA3E0FD49
:100BC300A3E0FEA3E0FF12078AE47B04FAF9F8121C
:100BD300078AC3E49FFFE49EAD07FC900000E01486
:100BE3007003020C7D147003020CC0147003020D19
:100BF3001924036003020D76900007E0FB7A00647A
:100C03000170144398508D8BECF58D438E40D28E3A
:100C1300E49003DAF08011EB64024A700B439850BE
:100C23008DD7ECF5D6438E1553A23F900001E0F922
:100C3300FF7E007008A3E0640170028035EF640258
:100C43004E700D900002E06403700543A2408022C1
:100C5300E96404700D900002E06405700543A2800E
:100C63008010E96406700B900002E0640770034390
:100C7300A2C0E49003DAF0D2AC22900007E0640251
:100C8300700B439A108DD7ECF5D6438E1453BAFEEE
:100C9300900001E0FF7E0064087008A3E06409701F
:100CA300028011EF640A4E700B900002E0640B7037
:100CB3000343BA0143AF01E49003DBF02290000742
:100CC300E0FB7A006402700D439A108DD7ECF5D6E1
:100CD300438E148011EB64034A700B43AC508DD5E3
:100CE300ECF5D443D10A53BAFD900001E0FF7E0036
:100CF300640C7008A3E0640D70028011EF640E4E63
:100D0300700B900002E0640F700343BA0243AF0814
:100D1300E49003DCF022900007E0FB7A00640270A9
:100D23000D4384108DD7ECF5D6438E148011EB64FC
:100D3300044A700B4384508DD3ECF5D243D1A053B6
:100D4300BAFB900001E0FF7E0064107008A3E0642A
:100D53001170028016EF64124E7010900002E0646E
:100D6300137008F5CA75C90443BA0443AF10E4907D
:100D730003DDF022900000EEF0A3EFF0A3EBF0A36D
:100D8300EAF0A3E9F0900000E0C313FF7E007B01CB
:100D93007A00790790020E7402F0A3E4F01210E0D7
:100DA300E4900207F0A3F0900207E0FEA3E0FFC384
:100DB300EE9402501C74072FF58274003EF583E411
:100DC300F0900208E004F070DE900207E004F08087
:100DD300D6E4900207F0A3F0900005E0FEA3E0FF45
:100DE300900207E0FCA3E0FDC39FEC9E50459000FA
:100DF30002E0FBA3E0FAA3E0F98D828C8312059D48
:100E0300FF900000E05401FCA3E0FD900208E02DF8
:100E1300FD900207E03CFC74072DF58274003CF55D
:100E230083EFF0900208E004F070AD900207E00455
:100E3300F080A5900000E0FEA3E0FF1212BE900038
:100E430000E0C313FF7E007B017A00790790020E56
:100E53007402F0A3E4F002112912000C120FE21243
:100E630000067B017A0379E8900005E4F0A3740897
:100E7300F0E4FFFE120D777B017A0379E090020E16
:100E8300E4F0A37408F0E4FFFE1210E012000F7BFD
:100E9300017A0379E0900004E4F0A37408F0E4FF1E
:100EA30012005E9003DFE004F07F0A7E001212BEA0
:100EB3007B017A0379DF90020EE4F0A304F07F0A4A
:100EC3007E001211297B017A0379DE90020EE4F091
:100ED300A304F07F0A7E001210E09003DEE0FDE43D
:100EE300FF1210A47FE87E0312002680B6787FE409
:100EF300F6D8FD758107020F37020E5CE493A3F861
:100F0300E493A34003F68001F208DFF48029E4931D
:100F1300A3F85407240CC8C333C4540F4420C88314
:100F23004004F456800146F6DFE4800B0102040816
:100F3300102040809011B6E47E019360BCA3FF545F
:100F43003F30E509541FFEE493A360010ECF54C064
:100F530025E060A840B8E493A3FAE493A3F8E493EC
:100F6300A3C8C582C8CAC583CAF0A3C8C582C8CAF4
:100F7300C583CADFE9DEE780BEC0E0C083C082C0AC
:100F8300D075D000C006C00730D822C2D89003F76E
:100F9300E0FEA3E0F5EAEEF5FA9003F1E0FEA3E04C
:100FA300FF9003F8E02FF09003F7E03EF030D922F2
:100FB300C2D99003F9E0FEA3E0F5EBEEF5FB900355
:100FC300F3E0FEA3E0FF9003FAE02FF09003F9E0D3
:100FD3003EF0D007D006D0D0D082D083D0E03212FA
:100FE3000973900425120884E4F594F593F592F5BA
:100FF30091F596F595F5B2F5B1F5B4F5B3F5CAF5F6
:10100300C9F5D8F5D9F5DEF58EF598F59AF5ACF571
:1010130084F5A2F5BAF5AFF589F5E9F5F943BA8098
:101023001211F49000031208900001C2009000070F
:101033007402F07B01E4FDFF020BA4C0E0C083C097
:1010430082C0D075D000C005C007309907C29990FF
:1010530003DAE4F030982AC298AF99EFFD647F6019
:1010630005ED6480701690042BE0FF04F0D3EF9439
:101073001474809480400A75C760800590042BE443
:10108300F0D007D005D0D0D082D083D0E032AF06E5
:10109300E0FBA3E475F0011206B1A9F0FA1205848E
:1010A300FDEF14601514601D1460252403702D904A
:1010B30003DAE070FA04F08D99229003DBE070FA12
:1010C30004F08D9B229003DCE070FA04F08DAD22D6
:1010D3009003DDE070FA04F0AF058F852290020BD8
:1010E300EBF0A3EAF0A3E9F0AD07AC0675C50190F8
:1010F300020E74FFF5F01206B145F060288DC4ECC2
:10110300F5C375C65A75C6A590020BE0FBA3E4753B
:10111300F0011206B1A9F0FAE5C21205CA0DBD002D
:10112300010C0080CA2290020BEBF0A3EAF0A3E9C2
:10113300F0AD07AC0675C50290020E74FFF5F01210
:1011430006B145F060288DC4ECF5C390020BE0FBBB
:10115300A3E475F0011206B1A9F0FA120584F5C2F1
:101163000DBD00010C75C65A75C6A50080CA22C202
:10117300D5E830E70FB2D5E4C39BFBE49AFAE499D0
:10118300F9E498F8EC30E717B2D51211A812078AE0
:10119300E4C39BFBE49AFAE499F9E498F880031218
:1011A300078A30D50DE4C39FFFE49EFEE49DFDE472
:1011B3009CFC22440425000000004603F7000000C5
:1011C3000000004603F10000000000004204290073
:1011D300004903E85345454B4652454B004803E05D
:1011E30000000000000000004103DF004103DE00B7
:1011F30000E47BE07A2EF9F8900425E0FCA3E0FDFF
:10120300A3E0FEA3E0FF12078A900429EEF0A3EF08
:10121300F075DC48E4F5D9D2DE22C0E0C083C08299
:10122300E59A30E108539AFD9003DBE4F0E59A3048
:10123300E003539AFED082D083D0E032C0E0C08373
:10124300C082E5AC30E10853ACFD9003DCE4F0E58B
:10125300AC30E00353ACFED082D083D0E032C0E0A8
:10126300C083C082E58430E1085384FD9003DDE44C
:10127300F0E58430E0035384FED082D083D0E032A3
:101283007B407A42790F7800900425E0FCA3E0FDCF
:10129300A3E0FEA3E0FF12078AEF04F5F522AFF9FE
:1012A300EFFEADE9EDFF90042AE02FFF900429E063
:1012B3003E8FECF5FC30DAFDC2DA2275C5038FC42C
:0B12C300EEF5C375C65A75C6A50022E3
:00000001FF
